:020000040800F2
:10000000B805002045010008031400083D11000850
:1000100001140008B1010008DF170008000000000B
:1000200000000000000000000000000007140008AD
:10003000B3010008000000000514000809140008BE
:100040005F0100085F0100085F0100085F01000810
:100050005F0100085F0100085F0100085F01000800
:100060005F0100085F0100085F0100085F010008F0
:100070005F0100085F0100085F0100085F010008E0
:100080005F0100085F0100085F0100085F010008D0
:100090005F0100085F0100085F0100085F010008C0
:1000A0005F0100085F0100085F0100085F010008B0
:1000B0005F0100085F0100085F0100085F010008A0
:1000C0005F0100085F0100085F0100085F01000890
:1000D0005F010008D9170008DB170008DD170008CA
:1000E0005F0100085F0100085F0100085F01000870
:1000F0005F0100085F0100085F0100085F01000860
:100100005F0100085F0100085F0100085F0100084F
:100110005F0100085F0100085F0100085F0100083F
:100120005F0100085F0100085F0100085F0100082F
:10013000DFF80CD000F02AF800480047211800082A
:10014000B80500200648804706480047FEE7FEE75E
:10015000FEE7FEE7FEE7FEE7FEE7FEE7FEE7FEE777
:100160005D14000831010008D2B201E000F8012B53
:10017000491EFBD270470022F6E710B513460A4627
:1001800004461946FFF7F0FF204610BD064C074D08
:1001900006E0E06840F0010394E807009847103457
:1001A000AC42F6D3FFF7C8FFB8180008D81800080B
:1001B000FEE7704730B5B3F5804F05D06FF0704162
:1001C00040F82210002030BD8C690B688D682343F5
:1001D0004C688989240144EA0524234343EA014108
:1001E00050F82230014C23401943E9E70000F0CFDA
:1001F00010B50A6850F8223023F0010340F822308D
:100200008B68082B23D000224C681C43CB68134317
:100210000A691C4314434A6914438A691443CA692E
:1002200014430A6A14434A6A14438A6A1443CA6A22
:1002300014430A6B14434A6B0968144350F8212095
:10024000044B1A40144340F82140002010BD4022C6
:10025000DAE700008000F0FF30B5D1E9003443EA6E
:1002600004138C688D89240244EA054423430C8AD4
:10027000094D00EB820005EB045423430C7D6D0116
:1002800005EB0464896923430B43416801F0404155
:100290000B434360002030BD0000F0FF30B585B057
:1002A00000200090019002900390164801680029F8
:1002B00026D1012101601448416941F480714161F6
:1002C0004069022400F4807004904FF4F060CDE99E
:1002D00000040325694603950C4800F01DF84CF214
:1002E000B300CDE9000469460395094800F014F80D
:1002F0008020CDE9000469460395064800F00CF81B
:1003000005B030BD00000020001002400018014080
:1003100000140140000C01402DE9F84FDFF8C091B6
:10032000002409F1040A0AF1040B23464FF00F08D8
:100330000BF1040ECCE00127A7403A40BA4272D13B
:10034000DFF8A0C14D68A5EB0C0665452BD00DDC90
:10035000032D34D005DC35B3012D19D0022D2FD15A
:100360001BE0112D16D0122D2AD119E0B6F5881FE9
:1003700019D006DCB6F5803F15D0B6F5801F1FD129
:1003800011E0B6F5001F0ED0B6F5041F18D10AE033
:10039000CB6815E0CB681B1D12E0CB6808330FE07B
:1003A000CB680C330CE08B682BB1012B4FF00803AA
:1003B00003D0476104E0042302E0076100E000236A
:1003C000FF2A01D8064601E000F104064FEA840541
:1003D00001D9A5F12005376808FA05FC27EA0C07C2
:1003E00003FA05F547EA050737604D68ED006ED55D
:1003F0003D4DAE6946F00106AE61AD6924F00306DD
:1004000005F001050095394D7719BE68A5072D0F38
:1004100008FA05FC26EA0C06DFF8D4C0604503D1D3
:100420004FF0000C25E052E0DFF8C8C0604502D173
:100430004FF0010C1DE0DFF8C0C0604502D14FF065
:10044000020C16E0DFF8B4C0604502D14FF0030C97
:100450000FE0DFF8ACC0604502D14FF0040C08E0BB
:10046000DFF8A0C0604502D14FF0050C01E04FF06D
:10047000060C0CFA05FC4CEA060CC7F808C04D68DF
:10048000D9F80060ED034D4601D5164300E09643D0
:100490002E604D68DAF80060AD03554601D516436D
:1004A00000E096432E604D68DBF80060ED025D468B
:1004B00001D5164300E096432E604D68DEF80060DB
:1004C000AD02754601D5164300E096432E60641CCC
:1004D0000A6832FA04F57FF42EAFBDE8F88F000009
:1004E0000004014000001110001002400000014013
:1004F00000080140000C01400010014000140140C0
:1005000000180140001C01400AB101617047090454
:10051000FBE70000014880687047000008000020E9
:100520000248816802781144816070470800002009
:10053000074810B5016841F010010160032000F088
:10054000AFF8002000F006F800F024F8002010BDFD
:100550000020024070B50D4D04464FF47A712878A2
:10056000B1FBF0F00A490968B1FBF0F000F0A0FB24
:1005700048B9102C07D200222146501E00F070F816
:1005800000206C6070BD012070BD000008000020DC
:10059000180000200C4808B5816941F00101816113
:1005A000816901F001010091C16941F08051C1618F
:1005B000C069064900F080500090486820F0E06073
:1005C00040F00070486008BD00100240000001408B
:1005D0002DE9F04116460F46040004D094F841007E
:1005E000002518B107E00120BDE8F08184F84050F3
:1005F000204600F025F804F108012068FFF7F8FD17
:100600003946A2682068FFF727FED4E90102314687
:10061000236BFFF7CFFDA168206850F8212042F03E
:10062000010240F8212005486269012122B10160E0
:1006300084F841100020D7E70560F9E71400002096
:10064000FFF72CBE002809DB00F01F0201219140BA
:100650004009800000F1E020C0F800117047000060
:10066000F0B40E4B1B68C3F30223C3F10704042C40
:1006700000D904241D1D072D01D2002300E0DB1E3C
:10068000012606FA04F56D1E0D409D409E40761E23
:10069000164045EA0601F0BC01F0A2B80CED00E0FE
:1006A000064A00F0070110684FF6FF03184040EAC1
:1006B0000120034908431060704700000CED00E082
:1006C0000000FA052DE9F0470D46040067D0DFF879
:1006D0001881D8F8000000F00700A8420CD2D8F822
:1006E000001021F007012943C8F80010D8F80000D5
:1006F00000F00700A84252D120683C4E810712D575
:10070000400703D5706840F4E0607060207800070F
:1007100003D5706840F4605070607068A16820F084
:10072000F000084370602078C00727D06068012877
:1007300010D03168022810D0890700292FDA71689B
:1007400021F0030101437160FFF7E4FE074641F227
:1007500088390CE031688903EFE78901EDE7FFF79D
:10076000D9FEC11B494502D90320BDE8F087706856
:10077000616800F00C00B0EB810FF0D1D8F80010E8
:10078000404601F00701A9420BD9016821F0070199
:1007900029430160006800F00700A84201D0012051
:1007A000E3E72078400705D57068E16820F4E06051
:1007B000084370602078000706D57068216920F42E
:1007C000605040EAC100706000F038F87168084A73
:1007D000C1F30311515CC84006490860064800682F
:1007E000FFF7B8FE0020C0E70020024000100240E2
:1007F000A0180008180000200C000020044805493B
:1008000000684968044AC1F30221515CC84070473E
:100810001800002000100240B018000804480549E4
:1008200000684968044AC1F3C221515CC84070475E
:100830001800002000100240B018000812A085B077
:100840000FC88DE80F0014A0144B0068049059687D
:10085000134801F00C02042A10D0082A0ED1C1F36B
:100860008342C9031DF802000AD5596804AAC1F3DE
:100870004041515C0A4A5043B0FBF1F005B070476B
:1008800008494843FAE7000002030405060708097F
:100890000A0B0C0D0E0F1010010200000010024098
:1008A00000127A0000093D002DE9F84F04006FD0D6
:1008B0002078BE4DC00747D06868C0F3810001288A
:1008C00007D06868C0F38100022809D16868C003B6
:1008D00006D52868800337D560680028E7D033E064
:1008E0006068B0F5803F0BD010B1B0F5A02F11D0EB
:1008F000286820F480302860286820F4802002E0F6
:10090000286840F480302860606888B1FFF702FEF4
:10091000064609E0286840F480202860F0E7FFF7E9
:10092000F9FD801B642873D828688003F7D50BE095
:10093000FFF7F0FD064604E0FFF7ECFD801B64289E
:10094000F1D828688003F7D42078DFF86482800724
:100950004FF0010A4FF0000939D5686810F00C0F0C
:1009600007D06868C0F38100022809D16868C00315
:1009700006D42868800714D52069012808D110E022
:100980002069B0B1C8F800A0FFF7C4FD064605E035
:1009900007E1FFF7BFFD801B0228C4D82868800745
:1009A000F7D52868616920F0F80040EAC1002860A6
:1009B0000DE0C8F80090FFF7ADFD064604E0FFF734
:1009C000A9FD801B022823D828688007F7D4207847
:1009D00000072CD57748A169D9B1C0F800A0FFF76E
:1009E00099FD064604E0FFF795FD801B02280FD80D
:1009F000686A8007F7D570484FF4FA510068B0FB79
:100A0000F1F0009000BF0098411E0091FAD20EE074
:100A10007CE0C0F80090FFF77DFD064604E0FFF79C
:100A200079FD801B022871D8686A8007F7D4207886
:100A300040075BD5E8690027C00008D4E86940F0AA
:100A40008050E861E869012700F0805000905B4821
:100A50000168C90511D40168834641F480710160C1
:100A6000FFF758FD064604E0FFF754FD801B64289D
:100A70004CD8DBF80000C005F6D5E06801280AD0A4
:100A800008B1052813D0286A20F001002862286ADE
:100A900020F0040002E0286A40F001002862E068CB
:100AA00041F2883B88B1FFF735FD064609E0286A28
:100AB00040F004002862EEE7FFF72CFD811B59454A
:100AC0005BD8286A8007F7D50BE0FFF723FD0646C1
:100AD00004E0FFF71FFD811B59454ED8286A8007A7
:100AE000F7D41FB1E86920F08050E861E069A8B34D
:100AF0006968C1F38101022946D00228484606D020
:100B0000C8F86000FFF706FD044639E035E04746C7
:100B1000C8F86000FFF7FEFC064604E0FFF7FAFCA9
:100B2000801B022829D828688001F7D4206AB0F5F4
:100B3000803F05D16868A16820F4003008436860F0
:100B4000D4E908010843696821F474110843686016
:100B5000C7F860A0FFF7DEFC044605E023E0FFF7DE
:100B6000D9FC001B022808D828688001F7D51AE0B4
:100B7000FFF7D0FC001B022802D90320BDE8F88F44
:100B800028688001F4D40EE00128F7D06868226A52
:100B900000F48031914204D1616A00F470108842FF
:100BA00001D00120EAE70020E8E700000010024041
:100BB00000004242800442421800002000700040C1
:100BC00070B5040005D00025A56294F8510010B15D
:100BD00006E0012070BD84F85050204600F02EF849
:100BE000022084F851002068016821F04001016072
:100BF000D4E901010843D4E90312114308436169B0
:100C00000843218B01F400710843E1690843216A1C
:100C10000843A16A084321680860A069042101EA29
:100C20001040216848602068C16921F40061C161F9
:100C30006565012084F85100002070BD30B585B095
:100C4000002400940194029403940068154988429A
:100C500025D11548C16941F48041C161C16901F4E0
:100C600080410491816941F00801816180690F4DE3
:100C700000F0080004904FF4204000900220019002
:100C80000320039069462846FFF746FB4FF4804057
:100C9000CDE90004694628460294FFF73DFB05B004
:100CA00030BD00000038004000100240000C014040
:100CB00010B5401EB0F1807F01D3012010BD4FF070
:100CC000E02460610F21601700F08AFD0020A06120
:100CD00007202061002010BD70B590F83C20012A4B
:100CE00019D0012500F83C5F0222427050F83C2CDC
:100CF0005368946823F070060B684968334324F006
:100D000080042143536050F83C2C916045700021D1
:100D10000170084670BD022070BD10B5040003D0FC
:100D200094F83D0010B107E0012010BD002084F8C8
:100D30003C00204600F00CF8022084F83D00211D04
:100D4000206800F0AFFB012084F83D00002010BDBA
:100D500008B500680649884208D10648C16941F0D3
:100D60000401C161C06900F00400009008BD0000EA
:100D7000000800400010024070B5044690F83C00A6
:100D8000012817D0012584F83C50022084F83D004A
:100D90002068826822F0770222F47F42826008682D
:100DA000502830D00DDC20284DD005DC98B3102819
:100DB0003BD148E0022070BD302844D0402834D1D7
:100DC00039E0602828D0702806D0B0F5805F2CD09C
:100DD000B0F5005F29D10AE0CB68D1E90121206894
:100DE00000F0A6FB2068816841F0770109E0CB683C
:100DF000D1E90121206800F09BFB2068816841F463
:100E00008041816011E0CA684968206800F064FC94
:100E10005021206807E016E0CA684968206800F0A1
:100E20006CFC6021206800F08DFB84F83D500020B0
:100E300084F83C0070BDCA684968206800F04CFC2A
:100E400040212068EFE7226801461046EBE70000EA
:100E500000B585B0002100910191029103910068D5
:100E60000B49884211D10B48816941F00801816129
:100E70008069694600F0080004904020009002203C
:100E8000019003900448FFF747FA05B000BD000049
:100E90000008004000100240000C014070B50446FC
:100EA00090F83C000D4601280DD0012684F83C60E6
:100EB000022084F83D0042B1042A18D0082A2AD022
:100EC0000C2A4DD139E0022070BD206800F042FBB1
:100ED0002068816941F0080181612068816921F001
:100EE00004018161206881692A69114311E0206849
:100EF00000F060FB2068816941F400618161206835
:100F0000816921F480618161206881692A6941EAEF
:100F10000221816124E0206800F082FB2068C16921
:100F200041F00801C1612068C16921F00401C1617B
:100F30002068C1692A69114311E0206800F0A4FB10
:100F40002068C16941F40061C1612068C16921F470
:100F50008061C1612068C1692A6941EA0221C161D9
:100F600084F83D60002084F83C0070BD10B504009A
:100F700003D094F83D0010B107E0012010BD00201F
:100F800084F83C00204600F00CF8022084F83D0074
:100F9000211D206800F086FA012084F83D00002021
:100FA00010BD704770B5040004D094F839000025D6
:100FB00010B106E0012070BD84F83850204600F0E2
:100FC00023F8242084F839002068C16821F40051F6
:100FD000C160204600F0A4FB2068016921F4904123
:100FE00001612068416921F02A0141612068C168DE
:100FF00041F40051C160E563202084F8390084F891
:101000003A00002070BD0000F0B585B000240094C7
:1010100001940294039401684348DFF808C1022256
:101020000323424E07150125614525D1816941F40D
:1010300080418161816901F480410491816941F0BD
:10104000040181618069694600F004000490100287
:10105000CDE9000203933046FFF75EF90097694639
:101060003046CDE90145FFF757F90022114625200A
:10107000FFF7F6FA252028E0DFF8B4C0614528D153
:10108000C16941F40031C161C16901F400310491C9
:10109000816941F0040181618069694600F00400C2
:1010A00004900420CDE9000203933046FFF734F9A1
:1010B00008208DE8310069463046FFF72DF90022FF
:1010C00011462620FFF7CCFA2620FFF7BBFA05B021
:1010D000F0BD184EB142FAD1C16941F48021C1611D
:1010E000C16901F480210491816941F008018161A5
:1010F0008069114E00F00800CDE90330CDE900729F
:1011000069463046FFF708F9F0148DE8310069466A
:101110003046FFF701F9002211462720FFF7A0FA19
:101120002720D2E7003801400010024000080140AB
:101130000044004000480040000C0140FEE7000071
:1011400000B587B01C216846FFF715F814484FF02A
:10115000204102220160134941600021C0E90212CE
:101160000822C0E904218161C16153020162C0E922
:101170000913C16201634163816303200090012070
:10118000CDE901021020CDE903101120CDE90501C0
:10119000002269460248FFF71BFA07B000BD0000B5
:1011A00074010020040100A02DE9F04F85B0002556
:1011B00061480095019502950395816941F04001D0
:1011C0008161816901F040010491816941F0100160
:1011D0008161816901F010010491816941F004018C
:1011E0008161816901F004010491816941F0080184
:1011F0008161816901F008010491816941F0200158
:1012000081618069012200F0200004904EF21C01EF
:101210004A48FFF779F948F2C01701223946484891
:10122000FFF772F941F23B08012241464548FFF7BA
:101230006BF900224FF480514048FFF765F94FF4F5
:101240000179012249464048FFF75EF94FF4FC5A04
:10125000012251463D48FFF757F94FF4006B002239
:1012600059463748FFF750F900224FF4807135484E
:10127000FFF74AF901244FF21C00CDE900040326D0
:10128000CDE9024669462D48FFF746F82020CDE912
:101290000005694602942948FFF73EF84F20CDE942
:1012A0000005694602942948FFF736F83020CDE959
:1012B0000005694602942248FFF72EF8CDE9007434
:1012C000CDE9024669461E48FFF726F8CDE90084BD
:1012D000CDE9024669461B48FFF71EF84FF47450EB
:1012E000CDE90005694602941748FFF715F8CDE9E6
:1012F0000094CDE9024669461348FFF70DF8CDE9A1
:1013000000A4CDE9024669461048FFF705F801AA96
:101310000225CDF800B082E8700069460848FEF763
:10132000FBFF20028DE8710069460648FEF7F4FFD6
:1013300005B0BDE8F08F0000001002400018014029
:1013400000080140000C0140001401400010014061
:101350000C480B494FF4007201604FF482714160F8
:1013600000218160C1600161C0E905123022C0E93D
:101370000721416281620A21C162FFF721BC00009E
:10138000003800401C00002010B58EB000240794E7
:10139000089409940A940B941C2168460C94FEF757
:1013A000EAFE16481449C0E900148460C460046170
:1013B0008461FFF7B2FC4FF48050079007A90F48F3
:1013C000FFF7DAFC0D48FFF7D1FD0B940BA90B4892
:1013D0000C94FFF781FC7020CDE9000404200490F8
:1013E0000022694602940548FFF758FD0348FFF7BD
:1013F0002FFD0EB010BD000000080040740000205A
:10140000FEE7704770477047FFF78AB830B58FB076
:1014100028216846FEF7AFFE14210AA8FEF7ABFEAE
:1014200001210804CDE90010002402940225049152
:10143000CDE907504FF4E01009906846FFF734FA01
:101440000F20CDE90A056802CDE90C4002210AA867
:101450000E94FFF737F90FB030BD00000D4801685A
:1014600041F00101016041680B4A1140416001688F
:101470000A4A11400160016821F48021016041683D
:1014800021F4FE0141604FF41F0181600449C00353
:1014900008607047001002400000FFF8FFFFF6FEF2
:1014A00008ED00E0F0B502681C4D1D4E1D4FDFF841
:1014B00078C01E4B4FF0804EA84209D0984207D00A
:1014C000704505D0B04203D0B84201D0604503D189
:1014D00022F070044A682243A84209D0984207D0FB
:1014E000704505D0B04203D0B84201D0604503D169
:1014F00022F44074CA6822434C6922F080022243DD
:1015000002608A68C2620A688262A84201D0984278
:1015100001D10969016301214161F0BD002C014045
:101520000004004000080040000C0040003401406E
:1015300010B5846842EA032224F47F440A4322431C
:10154000826010BD826822F070020A4342F00701F7
:1015500081607047F0B5026A22F001020262026AFD
:1015600043688469114E24F073050C68104F2C43B6
:1015700022F002058A682A43B04201D0B84205D160
:1015800022F00805CA682A4322F00402B04201D0C2
:10159000B84205D14D6923F440731D438B692B4339
:1015A00043608461496841630262F0BD002C0140E0
:1015B00000340140F0B5026A22F010020262026AB1
:1015C000436884690D6824F4E64444EA05248D6880
:1015D00022F0200242EA05120F4D104EA84201D01F
:1015E000B04206D1CF6822F0800242EA071222F010
:1015F0004002A84201D0B04207D14D6923F44063B4
:1016000043EA85038D6943EA850343608461496841
:1016100081630262F0BD0000002C014000340140F3
:10162000F0B5026A22F480720262026A4368C469F9
:1016300022F4007224F073050C68124E2C438D685E
:1016400042EA05220E4DA84201D0B04206D1CF6831
:1016500022F4006242EA072222F48062A84201D00A
:10166000B04207D14D6923F4405343EA05138D6915
:1016700043EA05134360C4614968C1630262F0BD77
:10168000002C01400034014030B5026A22F480523F
:101690000262036A4268C4690D6824F4E64444EABD
:1016A00005248D6823F4005343EA0533084DA8420E
:1016B00002D0084DA84204D14D6922F4804242EA8A
:1016C00085124260C46149680164036230BD000054
:1016D000002C01400034014010B5046A036A23F075
:1016E00001030362836923F0F00343EA021324F049
:1016F0000A020A438361026210BD10B5036A23F037
:10170000100303628469036A24F4704444EA0232D9
:1017100023F0A00343EA01118261016210BD0000C1
:101720002DE9F041044600680169E26821F4405166
:1017300011430161A1682069014360690143206888
:10174000C26841F20C639A430A43C260206841694F
:10175000A26921F44071114341611E49206864254A
:101760003226884202D1FFF759F801E0FFF746F828
:1017700000EBC00101EB001160686FF018078000FA
:10178000B1FBF0F2B2FBF5F2B1FBF0F37A4303EBFD
:101790008202B1FBF0F306EB0212B2FBF5F2B3FBEF
:1017A000F5F302F0F00202EB0312B1FBF0F3B1FB30
:1017B000F0F0B0FBF5F0784303EB800006EB00108F
:1017C000B0FBF5F0216800F00F0010448860BDE820
:1017D000F081000000380140704770477047FEE715
:1017E0000907090E002804DB00F1E02080F800144E
:1017F000704700F00F0000F1E02080F8141D7047E2
:1018000002E008C8121F08C1002AFAD170477047C9
:10181000002001E001C1121F002AFBD17047000027
:10182000FEF786FEFFF7F2FDFFF7BEFCFFF788FC30
:10183000FFF78EFDFFF7A8FD164815494FF4E13577
:1018400000240160C0E901540C26C460C0E90446CC
:101850008461C461FFF7A6FB0E480F494030016068
:10186000C0E90154C460C0E904468461C461FFF763
:1018700099FB0848094980300160C0E90154C460FF
:10188000C0E904468461C461FFF78CFBFEE70000F9
:1018900000380140B40000200044004000480040EF
:1018A0000000000000000000010203040607080910
:1018B0000000000001020304D81800080000002006
:1018C0001C00000000180008F41800081C0000208C
:1018D0009C05000010180008000000000000000037
:1018E00001000000100000000000000000000000E7
:0418F0000024F400DC
:0400000508000131BD
:00000001FF
