:020000040800F2
:10000000E86C002049010008E34F00087140000837
:10001000494E00084D0B0008FD6900080000000073
:100020000000000000000000000000006151000816
:10003000FD0D0008000000009D500008ED54000870
:100040006301000863010008630100086301000800
:1000500063010008630100086301000863010008F0
:1000600063010008630100085F0E0008C10D00086D
:1000700063010008630100086301000863010008D0
:100080006301000863010008D1090008630100084A
:1000900063010008630100086301000863010008B0
:1000A00063010008630100086301000863010008A0
:1000B0006301000863010008630100086301000890
:1000C0006301000863010008630100086301000880
:1000D0006301000879640008096600085D6700088C
:1000E0006301000863010008630100086301000860
:1000F0006301000863010008630100086301000850
:10010000630100086301000863010008630100083F
:1001100075630008630100086301000863010008BB
:10012000630100086301000863010008630100081F
:10013000DFF810D000F000FC004800472D860008D2
:10014000AFF30080E86C002006488047064800476F
:10015000FEE7FEE7FEE7FEE7FEE7FEE7FEE7FEE777
:10016000FEE7FEE78155000831010008202A04DB84
:10017000203A21FA02F00021704721FA02F3D04020
:10018000C2F120029140084319467047A0F1610175
:10019000192900D82038704740EA01039B0703D093
:1001A00009E008C9121F08C0042AFAD203E011F8B6
:1001B000013B00F8013B521EF9D27047D2B201E078
:1001C00000F8012B491EFBD270470022F6E710B55C
:1001D00013460A4604461946FFF7F0FF204610BDB5
:1001E00030B505462A460B4612F8010B13F8014BB1
:1001F00008B1A042F8D01CB1002802D06D1CF1E774
:10020000284630BD10B5044604E00B7800F8013BE9
:1002100003B1491C521EF8D2204610BD421C10F8F2
:10022000011B0029FBD1801A704710B5002200E0A5
:10023000521C835C8C5CA34201D1002BF8D1D8B254
:10024000E1B2401A10BD034611F8012B00F8012B52
:10025000002AF9D11846704770B50F4D00B92868CB
:10026000002412E00A4602E09E4203D0521C13789A
:10027000002BF9D1DAB2224305D02BB124B10021F1
:1002800000F8011B04E00446401C0678002EE9D16A
:100290002860204670BD0000340100202DE9F05F89
:1002A00093460F4680460446002606F067FED0F8C7
:1002B0000090824614F8015B2DB100F025FA006829
:1002C000405DC007F6D12B2D02D02D2D1AD0641E13
:1002D0000021CAF800105A463946204600F018FAA4
:1002E000014627B13868A04201D1C7F80080DAF88A
:1002F0000000022809D0CAF80090700505D54842D0
:10030000BDE8F09F46F48066E2E70846F8E770B57E
:10031000064606F033FE046805460A2200213046F0
:1003200000F045FA2C6070BD2DE9FE4F804681EA51
:100330000300C00F0C46009021F0004123F000455F
:10034000B8EB0200A94105D24046214690461C4622
:100350000B46024623F00040104347D0270DC7F359
:100360000A00C3F30A510290401A019040286BDA48
:10037000C3F3130040F4801B0098924620B1002381
:10038000D2EB030A63EB0B0B01985946C0F1400214
:10039000504600F098F906460D4650465946019AD7
:1003A00000F0A0F910EB08006141002487EA115227
:1003B00084EAE7731A4340D0009A62B3019A012A93
:1003C0004FEA075215DC001B61EB02014FF00042BF
:1003D00002EA0752CDE90042001C41F58011324685
:1003E0002B4600F02BFA03B0BDE8F08F40462146C3
:1003F000F9E7001B61EB0201001C41F580130018B6
:100400005B412018A2F5001747EB030140EAD570C5
:10041000B6196D4111E06D084FEA360645EAC07520
:100420004FEA0752001B61EB0201001C41F58011ED
:1004300049084FEA30000019514132462B4603B0BB
:10044000BDE8F04F00F0EBB9009801224000002316
:10045000D0EB020263EBE073009821464FEAE074B0
:10046000B8EB000061EB0401E9E783F000435BE7D0
:1004700081F0004158E72DE9FE4F81EA030404F0C2
:10048000004421F0004100944FF0000B23F00043A2
:1004900050EA01045ED052EA03045BD0C3F30A546D
:1004A000C1F30A552C44A4F2F3340194A0FB025486
:1004B000C1F3130141F48011C3F3130343F4801318
:1004C00001FB024400FB034E840A970A44EA81546C
:1004D00047EA8357A4FB076802958D0A05FB078549
:1004E0004FEA932C04FB0C542705029D4FEA065853
:1004F00047EA1637B5EB08056EEB070C870E920E30
:1005000047EA811742EA8312A7FB0201B6EB0B010F
:1005100064EB00042B0D43EA0C335E1844EB1C50D3
:10052000DA465146E7FB0201C5F313044FEA0B33E9
:1005300043EA14534FEA0432019C43EA0603A4F150
:100540000C040294009CCDE900B400F077F903B0EC
:10055000BDE8F08F00200146F9E72DE9F04D81EA72
:10056000030404F0004B21F0004514464FF0000A4C
:1005700023F0004150EA050220D054EA01021DD0C8
:10058000C5F30A570246C5F31303C1F31300C1F3C1
:100590000A5640F4801543F48013A7EB0608101B9D
:1005A000D64608F2FD3873EB050002D308F10108C6
:1005B00001E092185B41B8F1000F03DA0020014618
:1005C000BDE8F08D00204FF48011064684460EE011
:1005D000171B73EB050705D3121B63EB05030643DB
:1005E0004CEA010C49084FEA300092185B4150EA8E
:1005F0000107EDD152EA030012D082EA040083EA37
:100600000501084305D0101BAB4106D2012200238F
:1006100006E000224FF0004302E06FF001025310A9
:100620001AEB06004CEB085110EB0A0041EB0B01F2
:10063000BDE8F04D00F0F3B830B50B4601460020A0
:100640002022012409E021FA02F59D4205D303FA94
:1006500002F5491B04FA02F52844151EA2F1010215
:10066000F1DC30BD2DE9F05F0546002092469B4647
:1006700088460646814640241BE0284641464746B8
:100680002246FFF773FD53465A46C01A914110D3D4
:1006900011461846224600F016F82D1A67EB01089D
:1006A0004F4622460120002100F00DF817EB00090B
:1006B0004E41201EA4F10104DFDC484631462A46A3
:1006C0004346BDE8F09F202A04DB203A00FA02F1FD
:1006D000002070479140C2F1200320FA03F3194330
:1006E00090407047202A06DBCB17203A41FA02F0EF
:1006F00043EAE07306E041FA02F3D040C2F120027F
:10070000914008431946704700487047A49B000871
:100710002DE9F05F82460078002715468B460AF1E6
:100720000104B946302801D09DB113E014F8010B43
:100730000127782803D0582801D045B10AE00DB12F
:10074000102D07D10027102514F8010B02E0082511
:1007500000E00A250026B0460EE005FB080005FB78
:1007600006F1012701EB10461FFA80F8B6F5803F2D
:1007700000D3B94614F8010B294600F0EFF8002821
:10078000EBDABBF1000F05D00FB1641E00E0544658
:10079000CBF80040B9F1000F06D006F0EFFB0221C4
:1007A0000160C81EBDE8F09F48EA0640FAE72DE95F
:1007B000F04791460F4680460446002614F8015B38
:1007C0002DB1FFF7A1FF0068405DC007F6D12B2DCA
:1007D00002D02D2D18D0641E4A4639462046FFF718
:1007E00097FF27B13968A14201D1C7F80080710590
:1007F0004FF002040BD54042002803DD06F0BEFB9B
:100800000460A007BDE8F08746F48066E4E70028AE
:10081000F8DA06F0B3FB04606FF00040F2E710B5C1
:10082000141E73F1000408DA401C41F10001921813
:100830005B411A4301D120F0010010BD2DE9F04DBC
:1008400092469B4611B1B1FA81F202E0B0FA80F211
:1008500020329046FFF737FF04460F4640EA0A0071
:1008600041EA0B0153465A46084313D0114653EA56
:10087000010019D0C8F140025046FFF777FC054649
:100880000E46504659464246FFF71DFF084305D025
:10089000012004E020463946BDE8F08D00200543E4
:1008A00046EAE0762C4337430A986305E40AA0EB56
:1008B00008000022FD0A44EA47540A3002D500200D
:1008C0000146E9E7010510196941DDE9084500190C
:1008D0006941BDE8F04DA2E7C1F30A52C1F313012B
:1008E00040F2FF3341F480119A4202DA00200146BF
:1008F000704740F233439A42A2F2334202DC524242
:10090000FFF734BCFFF7DFBE30B5041E71F1000401
:1009100004DB4FF00044404264EB0101141E73F10C
:10092000000405DB1C464FF00043524263EB040316
:10093000994208BF904230BD064C074D06E0E06882
:1009400040F0010394E8070098471034AC42F6D316
:10095000FFF7F2FBA89B0008C89B00083A2800D2CA
:10096000303820F02002412A01D3A2F1370088421A
:1009700001D34FF0FF30704770B58C1810F8015B51
:1009800015F0070301D110F8013B2A1106D110F828
:10099000012B03E010F8016B01F8016B5B1EF9D12C
:1009A0002B0705D40023521E0DD401F8013BFAE7B2
:1009B00010F8013BCB1A921C03E013F8015B01F81D
:1009C000015B521EF9D5A142D8D3002070BD0000B2
:1009D00010B5024801F016F810BD00003C010020DF
:1009E00070B5044600252068806800F0010018B347
:1009F0002068806820F001002168886001F0F2FF23
:100A0000054613E001F0EEFF401B02280ED92068D6
:100A1000806800F0010048B1A06A40F01000A062B8
:100A2000E06A40F00100E062012070BD206880684B
:100A300000F001000028E5D10020F6E770B505467A
:100A40006C6AA06A00F05000E0B9A06A40F400703F
:100A5000A0622068806800F46020B0F5602F0DD19E
:100A6000207B58B9A06A20F48070A062A06A00F4CC
:100A7000805018B9A06A40F00100A062204600F042
:100A8000BBFF03E0206A016B2846884770BD70B544
:100A900005466C6AA06A40F04000A062E06A40F03F
:100AA0000400E062204600F0A9FF70BD70B5044666
:100AB000656A284600F0A1FF70BD000038B5044605
:100AC0000025002000902068806800F0010078BBBD
:100AD0002068806840F0010021688860194800683B
:100AE0001949B0FBF1F0009002E00098401E009020
:100AF00000980028F9D101F075FF054619E001F0D2
:100B000071FF401B022814D92068806800F00100A2
:100B100078B9A06A40F01000A062E06A40F00100DD
:100B2000E06200BF002084F8240000BF012038BD2F
:100B300005E02068806800F001000028DFD0002078
:100B4000F5E700001000002040420F0000BFFEE764
:100B500010B53048007820B1012834D0022855D192
:100B600041E02D480088002827DD2C4800682C49EA
:100B7000097830F81140204604F036FA2848007809
:100B8000401C2749087025480068097830F8114052
:100B9000244800EB241000782349088004F00F005B
:100BA0002049085C2149088001201A4908701A4828
:100BB0000088401E1849088004E000F039F86320DE
:100BC0001449087023E018480088002805DD1648FD
:100BD0000088401E1449088004E000F029F8022033
:100BE0000C49087013E011480088002805DD0F4803
:100BF0000088401E0D49088007E009480078401C25
:100C00000749087000200349087000E000BF00BFDA
:100C100010BD00001800002024000020200000204B
:100C20001C000020DC9200081400002016000020A8
:100C300010B50021014803F081F810BD1402002016
:100C40001CB54448007820B1012831D002287ED15B
:100C50006AE0002040490880404908704048008808
:100C6000002824D1012202213E4801F0B5FE3E4871
:100C700000893D49C979CDE900103B488379427923
:100C800001793AA007F078FD374800893649C979DB
:100C9000CDE90010344883794279017933A007F017
:100CA00045FDFA202E49088001202A4908704FE0AE
:100CB0002A480078E8B136A13748FFF791FA48B9D9
:100CC00036A13548FFF78CFA20B935A13248FFF735
:100CD00087FA40B103202249088002201D4908708C
:100CE00000203449087000201B4908801B49087007
:100CF00019E01B480088B0B900201749088017493F
:100D00000870144908702B480078401C2949087065
:100D100008460078032806DB00202749087025498B
:100D200008700C49087013E0012024490870002065
:100D3000204908700749087007490880074908706A
:100D400000220221074801F047FE01E0FFE700BF53
:100D500000BF1CBDAF000020A6000020A3000020A3
:100D6000B4000020000C0140E409002041542B4352
:100D7000495053544152543D22544350222C222571
:100D8000642E25642E25642E2564222C25640A00F9
:100D9000434F4E4E45435400605700204F4B0000D8
:100DA000414C524541445920434F4E4E45435445D2
:100DB00044000000B1000020A0000020A10000209D
:100DC00010B5024801F0A0F810BD00006C01002031
:100DD00030B590F840500124AC40C56B6C6004689D
:100DE00063604468102C04D10468A2600468E16068
:100DF00003E00468A1600468E26030BD7047000051
:100E000010B50648007840B100F0C4FB05F0F8FDCD
:100E10000020024908700249088010BD2700002008
:100E20002A000020704710B500221921104604F056
:100E300099F900220B21012004F094F901220221EA
:100E4000084604F08FF900221146032004F08AF9C5
:100E500004F098F94FF4FA7001F0B6FA10BD10B52D
:100E6000102001F0F9FB10BD70470000F8B50446F2
:100E7000002600200090601E2049085C0D2803D049
:100E8000601E085C0A2803D10021601E1B4A115411
:100E9000A01E1A49085C0D2803D0A01E085C0A2871
:100EA00003D10021A01E154A115414491448FFF71C
:100EB000CAF96946124807F057FB06463078C8B1B0
:100EC00000250FE00F4800EB05113046FFF7ADF9A4
:100ED00000B106E00B4800EB0510C1680098884798
:100EE00002E06D1C0D2DEDD300BF0D2D02D106A02B
:100EF00004F0AEFA09A004F0ABFAF8BD60370020A8
:100F0000604F00202C9A00080A0D436F6D6D616ED2
:100F100064206572726F720A0D0000000A0D526F34
:100F20006164427261696E3E0000000010B50446C3
:100F3000022C1BDB032C16D10D4800781B2812D184
:100F40000C48007828B100200A4908700AA004F073
:100F50007FFA0E48007848B100200C4908700CA0B8
:100F600004F076FA02E02046FFF780FF10BD000093
:100F700060370020910000206D646920646973610E
:100F8000626C65642E2E0A0D0000000090000020A7
:100F90006D72732064697361626C65642E2E0A0D34
:100FA000000000000021074AD1610749096941F0AA
:100FB0000401054A11611146096941F040011161BE
:100FC00070470000C8640020002002400021074A4A
:100FD000D1610749096941F00201054A11611146D1
:100FE0004861096941F0400111617047C8640020FF
:100FF000002002400022054BDA61054A126942F0E6
:101000000102034B1A61018070470000C864002090
:101010000020024000201E49C96801F0100139B1CA
:101020001C49C96941F002011A4AD16140F010001F
:101030001749C96801F0040139B11649C96941F07D
:101040000101144AD16140F004001149C96901F05D
:10105000010169B10F49C96941F004010D4AD1612B
:1010600000BF0B49C96921F00101094AD16100BFE4
:1010700000BF40F20111884206D10549C96921F03B
:101080000101034AD16101E00149C86000BF704716
:1010900000200240C864002070B5044601F0A2FCA4
:1010A000054609E0601C38B124B101F09BFC401BEF
:1010B000A04201D9032070BD1248C06800F00100B1
:1010C0000028EFD10F48C06800F0200020B100BF19
:1010D00020200C49C86000BF0A48C06800F010001A
:1010E00048B90848C06900F0010020B90548C06847
:1010F00000F0040018B1FFF78DFF0120DBE70020AE
:10110000D9E700000020024070B50446B3F5804FD7
:1011100013D1D1E9000540EA05108D6840EA0520A9
:101120008D6928438D8940EA054054F82250064EC7
:101130003540284344F8220003E06FF0704044F843
:101140002200002070BD00000000F0CF70B5024604
:10115000086852F8200020F001000E6842F82600CE
:101160008868082801D1402300E00023486818431C
:101170008E683043CE6830430E6930434E69304349
:10118000CE6930430E6A30434E6A30438E6A304334
:10119000CE6A30430E6B40EA060488690443486B0C
:1011A0000443074D45F4806545F4E025086852F88E
:1011B0002000A84320430E6842F82600002070BD9E
:1011C0007FFB080010B50346D1E9000440EA041093
:1011D0008C6840EA04208C8940EA0444088A401E56
:1011E00044EA0054087D801E44EA00608C69204374
:1011F000541C53F8244004F040442043541C43F84A
:101200002400002010BD000010B586B00020019021
:101210007E487F4908600846006800687D4908608C
:1012200008460068401C002872D14FF44A717A4881
:10123000FEF7CBFF00207849086078A176480A3095
:10124000FFF701F878A174481E30FEF7FCFFC020BC
:1012500071490871A82170484171002181711521DF
:10126000C17149F658006C490881002081F83800A6
:101270000A21694880F83910DC2180F83A1057219A
:1012800080F83B10F72180F83C10882180F83D1051
:101290004FF4E13060494863002081F83E0081F856
:1012A0003F0008215C4880F84010DC2180F84110A4
:1012B0005C2180F84210882180F84310BC2180F81E
:1012C00044100020544981F84500886472B601F04A
:1012D00049F900BF34205749C86000BF00204D497C
:1012E00008601CE0002002904A4800684749084412
:1012F00004900120059001A902A801F079F840B1FD
:1013000001F0CEF862B64CA007F010FA06B010BD9E
:1013100033E04048006800F500603E4908603D4801
:101320000068B0F5804FDDD33B48494908601BE0B9
:1013300047480068046822460023354801680220B7
:1013400001F0B8F830B101F0ABF862B641A007F097
:10135000EDF9DBE72E480068001D2D4908603C4888
:101360000068001D3A490860294800683F498842E2
:10137000DED301F095F862B646E04FF44A70254995
:10138000086016E023480068204940583849086042
:1013900008460068401C30B91E480068A0F54A7035
:1013A0001C4908600BE01B48006800F54A701949A9
:1013B00008601848006843F6D8418842E2D300BF6D
:1013C000154823490860134800681049084410492B
:1013D00008600FE00E48006800681D490968086051
:1013E0000B480068001D0A49086019480068001D84
:1013F00017490860074800680449084400F54A7026
:10140000034909688842E5D800BF7FE700C00308A8
:101410003400002038000020E40900204D435445EA
:1014200043482D322E344700303332353038323095
:101430003437000000200240466C6173682045721A
:10144000617365204572726F7221210A00000000ED
:1014500040000020466C6173682050726F677261B3
:101460006D204572726F7221210A000028C30308A3
:101470003C00002030B587B000200290344800685E
:101480003449084400F54A70019072B601F06AF8D8
:1014900000BF34203049C86000BF304901988842FD
:1014A00028D300202E4908601BE0002003902C4820
:1014B00000682849084405900120069002A903A865
:1014C00000F096FF38B100F0EBFF62B625A007F000
:1014D0002DF907B030BD2248006800F500602049B2
:1014E00008601F480068B0F5804FDED3002018491F
:1014F000086005E01648006800F54A701449086065
:1015000013480068134908440190114C12E0256803
:101510002A4600230220019900F0CCFF30B100F0F0
:10152000BFFF62B615A007F001F9D2E70198001DD0
:101530000190241D064800680649084400F54A70D9
:1015400001998842E3D800F0ABFF62B600BFC0E764
:10155000E409002000C003080020024060F30308F3
:1015600038000020466C6173682045726173652005
:101570004572726F7221210A00000000466C61738F
:10158000682050726F6772616D204572726F7221B0
:10159000210A000070B5334805880088401E324992
:1015A0000C5C082C01D07F2C20D100202F49087022
:1015B000012D13D92B480088801E2A49088000205D
:1015C0002949284A12888854082003F0D9FE20208F
:1015D00003F0D6FE082003F0D3FE41E000202149AD
:1015E000088021491F4A1288885439E01D48008824
:1015F000FF2801DC0D2C17D101201C4908700D209B
:1016000003F0BEFE0A2003F0BBFE0120184908705B
:10161000002114480088401E134A115411480088C4
:10162000401E104908801BE01B2C13D101200F49DC
:1016300008700D2003F0A4FE0A2003F0A1FE012093
:101640000B490870002008490870064908800949BC
:10165000087005E0002005490870204603F090FE60
:1016600070BD00002A000020C403002027000020D5
:10167000320000202600002070B53448007810B1F8
:1016800001285FD109E032A007F076F80220344942
:10169000088001202D49087055E032480078002864
:1016A00042D000203049314A1288885430A12E4857
:1016B000FEF7D2FD0546012428E0601CC4B22CA12F
:1016C0000020FEF7C9FD0546042C1FD12846FEF771
:1016D000A5FD022819D300240DE0285D2D2808D08F
:1016E000285D302802DD285D392802DB00202855DE
:1016F00006E0601CC4B22846FEF790FDA042ECD87C
:1017000000BF29461B48FEF79EFD01E0002DD4D105
:1017100000BF0A20184908800020124908701349A8
:1017200008800A4908700CE00D48008848B90A2072
:101730001149088000200B4908700C4908800349B2
:10174000087000E000BF00BF70BD0000AE000020C8
:1017500041542B43574A41505F4355523F0A0000C2
:10176000B4000020A300002060570020A600002045
:101770002C000000605D0020B8000020F8B5044691
:1017800000260020009000BF94F82400012801D119
:101790000220F8BD012084F8240000BF2046FFF796
:1017A0001FF90646002E6CD1A06A20F4885040F044
:1017B0000200A062022001F0F3FA35490968B1FB8A
:1017C000F0F04000009002E00098401E0090009869
:1017D0000028F9D12046FFF771F92068806840F0B1
:1017E00008002168886001F0FDF8054616E001F068
:1017F000F9F8401B0A2811D92068806800F0080019
:1018000060B1A06A20F0020040F01000A06200BFAA
:10181000002084F8240000BF0120BAE72068806817
:1018200000F008000028E2D12068806840F0040041
:101830002168886001F0D6F8054616E001F0D2F87C
:10184000401B0A2811D92068806800F0040060B1AC
:10185000A06A20F0020040F01000A06200BF00204B
:1018600084F8240000BF012093E72068806800F01E
:1018700004000028E2D1A06A20F0020040F001003C
:10188000A06200BF002084F8240000BF304680E73B
:10189000100000207047000038B5024600230020E9
:1018A000009000BF92F82400012801D1022038BD29
:1018B000012082F8240000BF4868072812D210686F
:1018C000406B0C79641E04EB84051F24AC40A043DC
:1018D0000D796D1E05EB85050C68AC40204314683E
:1018E000606327E048680D2812D21068006B0C79FD
:1018F000E41F04EB84051F24AC40A0430D79ED1FC9
:1019000005EB85050C68AC4020431468206311E0AA
:101910001068C06A0C790D3C04EB84051F24AC40B0
:10192000A0430D790D3D05EB85050C68AC402043C7
:101930001468E06208680A2812D31068C0680C783E
:101940000A3C04EB44050724AC40A0430D780A3D53
:1019500005EB45058C68AC4020431468E0600FE05F
:10196000106800690C7804EB44050724AC40A043E0
:101970000D7805EB45058C68AC4020431468206168
:101980000868102802D00868112827D1174C106861
:10199000A0421ED11068806800F40000F0B9106801
:1019A000806840F400001468A0600868102815D111
:1019B0000F4800680F4CB0FBF4F000EB80004000D3
:1019C000009002E00098401E009000980028F9D195
:1019D00004E0906A40F020009062012300BF0020E4
:1019E00082F8240000BF184661E70000002401408F
:1019F0001000002040420F007047704770470146BA
:101A0000886A704710B504462068406800F02000DE
:101A100020282FD12068006800F00200022829D178
:101A2000A06A00F0100018B9A06A40F40070A0622B
:101A30002068806800F46020B0F5602F13D1207B0F
:101A400088B92068406820F0200021684860A06ABA
:101A500020F48070A062A06A00F4805018B9A06AD7
:101A600040F00100A0622046FFF7C6FF6FF01200B1
:101A7000216808602068406800F0800080283BD121
:101A80002068006800F00400042835D1A06A00F046
:101A9000100018B9A06A40F40050A0622068806865
:101AA00000F4E040B0F5E04F0DD02068406800F44D
:101AB0008060D0B92068806800F46020B0F5602FA5
:101AC00013D1207B88B92068406820F0800021680D
:101AD0004860A06A20F48050A062A06A00F4807080
:101AE00018B9A06A40F00100A0622046FFF7D2FEBC
:101AF0006FF00C00216808602068406800F040002A
:101B000040280FD12068006800F0010050B1A06AA1
:101B100040F48030A062204600F0B6F86FF001007B
:101B20002168086010BD00002DE9F041044600273F
:101B300000250026A84614B90120BDE8F081A06860
:101B400010B1207D00B100BFA06A30B90020E06272
:101B500084F82400204600F099F82046FEF740FF64
:101B60000746A06A00F01000002873D1002F7ED134
:101B7000A06A20F4885040F00200A0623F4AD4E9F5
:101B80000001904208D1E069B0F5402F02D14FF436
:101B9000002002E0E06900E0E0690143207B41EAC7
:101BA00040000643A068B0F5807F02D0A0680128FD
:101BB00002D14FF4807000E000200543207D012811
:101BC00011D1207B38B9A069401E4FF4006141EA71
:101BD0004030054307E0A06A40F02000A062E06AC0
:101BE00040F00100E0622068406820F4694028432A
:101BF0002168486020688068214908403043216896
:101C00008860A068B0F5807F02D0A068012802D16A
:101C10004FF4807000E00020B0F5807F03D1208A6F
:101C2000401E4FEA00582068C06A20F4700040EA65
:101C300008002168C8622068806812490840B042E4
:101C400009D10020E062A06A20F0020040F001000B
:101C5000A06211E00BE0A06A20F0020040F010004A
:101C6000A062E06A40F00100E062012704E0A06A9F
:101C700040F01000A062012738465EE7003C0140BA
:101C8000FDF7E1FFFE0E1FFF7047000038B5044668
:101C90001B492068884231D100BF1A48806940F44E
:101CA0000070184988610846806900F4007000904F
:101CB00000BF00BF1448154908600020486000219B
:101CC000124881608021C16049000161C900416101
:101CD000202181610902C16100F0E2FA08B1FFF739
:101CE000C3F800BF09482062446200BF00221146C9
:101CF000122001F002F8122000F0EFFF38BD0000C2
:101D00000024014000100240080002406C01002045
:101D10002DE9F04104460D46164600275749206834
:101D2000884203D056492068884205D15348001D97
:101D3000006800F4702000E0002000287ED100BF81
:101D400094F82400012802D10220BDE8F08101208E
:101D500084F8240000BF2046FEF7B0FE0746002F9F
:101D60006DD1A06A40F60161884340F48070A062A2
:101D700043492068884209D14048001D006800F4AA
:101D8000702008B9012002E0002000E0012078B1B5
:101D9000A06A20F48010A0622068406800F480608F
:101DA00000B3A06A20F4005040F48050A06219E013
:101DB000A06A40F48010A06230492068884203D0B5
:101DC0002F492068884205D12C48001D006800F486
:101DD000806000E0002028B1A06A20F4005040F4A8
:101DE0008050A062A06A00F4805020B1E06A20F028
:101DF0000600E06201E00020E06200BF002084F8FD
:101E0000240000BF1F48216A88621F48216AC862F7
:101E10001E48216A08636FF002002168086020688C
:101E2000806840F4807021688860226802F14C016B
:101E300033462A46206A00F079FA01E01AE014E0FD
:101E40002068806800F46020B0F5602F06D120681B
:101E5000806840F4A000216888600CE020688068F9
:101E600040F480102168886005E000BF002084F8FD
:101E7000240000E00127384667E700000024014005
:101E8000002801403D0A0008AD0A00088F0A00083A
:101E900070B503460C46002002255D71002104E068
:101EA00054F821501E683560491C9142F8D31D68D2
:101EB000286801255D7170BD10B504460CB901207C
:101EC00010BD607920B900202071204600F004F890
:101ED000012060710020F3E708B5094A01689142CA
:101EE0000DD100BF0749496941F04001054A5161E0
:101EF0001146496901F04001009100BF00BF08BDD3
:101F0000003002400010024070B50446E06B0568E6
:101F10002068066894F84010042088402840002873
:101F200075D006F004000028FAD02068006800F0A0
:101F3000200028B92068006820F0040021680860AB
:101F4000D5492068884254D9D349783920688842D5
:101F500001D1042049E0D04964392068884201D188
:101F6000402042E0CC4950392068884201D1001518
:101F70003BE0C9493C392068884202D14FF4804097
:101F800033E0C54928392068884202D14FF48020C7
:101F90002BE0C14914392068884202D14FF48000F7
:101FA00023E0BD492068884201D1C0041DE0BB493F
:101FB0002068884201D1042017E0B8491431206814
:101FC000884201D1402010E0B4492831206888427D
:101FD00001D1001509E0B1493C312068884202D1A5
:101FE0004FF4804001E04FF48020AC49091F0860A5
:101FF00054E0A94978392068884201D104204AE098
:10200000A54964392068884202D1402043E04CE071
:10201000A14950392068884201D100153BE09E4912
:102020003C392068884202D14FF4804033E09A491D
:1020300028392068884202D14FF480202BE096494D
:1020400014392068884202D14FF4800023E092497D
:102050002068884201D1C0041DE090492068884270
:1020600001D1042017E08D4914312068884201D144
:10207000402010E0894928312068884201D10015AC
:1020800009E086493C312068884202D14FF4804003
:1020900001E04FF48020804980394860E06A0028E0
:1020A00002D02046E16A8847F4E094F8401002200C
:1020B00088402840002871D006F002000028FAD09D
:1020C0002068006800F0200040B92068006820F017
:1020D0000A0021680860012084F821006E49206808
:1020E000884254D96C4978392068884201D102204D
:1020F00049E0694964392068884201D1202042E0E2
:10210000654950392068884201D140153BE0624959
:102110003C392068884202D14FF4005033E05E49D8
:1021200028392068884202D14FF400302BE05A4908
:1021300014392068884202D14FF4001023E0564938
:102140002068884201D180041DE0544920688842FB
:1021500001D1022017E0514914312068884201D191
:10216000202010E04D4928312068884201D14015D7
:1021700009E04A493C312068884202D14FF40050BE
:1021800001E04FF400304549091F086054E042491E
:1021900078392068884202D102204AE057E03E495F
:1021A00064392068884201D1202042E03A49503900
:1021B0002068884201D140153BE037493C3920680E
:1021C000884202D14FF4005033E033492839206867
:1021D000884202D14FF400302BE02F491439206897
:1021E000884202D14FF4001023E02B492068884236
:1021F00001D180041DE029492068884201D10220D4
:1022000017E0264914312068884201D1202010E0CF
:10221000224928312068884201D1401509E01F4930
:102220003C312068884202D14FF4005001E04FF465
:10223000003019498039486000BF002084F8200030
:1022400000BFA06A30B32046A16A884722E094F814
:102250004010082088402840E0B106F00800C8B1CE
:102260002068006820F00E002168086094F8401093
:1022700001208840E16B48600120A06384F82100C0
:1022800000BF002084F8200000BF206B10B1204662
:10229000216B884770BD00008000024008040240A6
:1022A0000146002209B9012070471E4B0868984278
:1022B0000BD21D4B0868C01A1423B0FBF3F080004A
:1022C000086419480838C8630AE0164B0868C01A41
:1022D0001423B0FBF3F08000086412480838C86388
:1022E000022081F821000868026843F6F0708243FA
:1022F000D1E901031843CB6818430B6918434B69B4
:1023000018438B691843CB6918430243086802607D
:1023100000208863012081F82100002081F820003E
:1023200000BFC1E708040240080002402DE9F04167
:1023300004460D4616461F464FF0000800BF94F8AD
:102340002000012802D10220BDE8F081012084F89C
:10235000200000BF94F8210001282CD1022084F82D
:1023600021000020A0632068006820F0010021689F
:1023700008603B46324629462046FEF729FDE06AC2
:1023800030B12068006840F00E00216808600BE062
:102390002068006820F00400216808602068006858
:1023A00040F00A00216808602068006840F00100E1
:1023B0002168086006E000BF002084F8200000BF0C
:1023C0004FF002084046BFE770B5044600F00AFB34
:1023D00006462546681C10B104480078054400BF35
:1023E00000F000FB801BA842FAD370BD2C01002036
:1023F0002DE9F04104460E460127002500BF26487E
:10240000007E012802D10220BDE8F081012022498E
:10241000087600BF2068022813D14CF25030FEF736
:102420003BFE90BB0120FEF7BDFD4CF25030FEF7A5
:1024300033FE07461948006920F004001749086177
:1024400023E04CF25030FEF727FEF0B94FF0FF309A
:102450003060A56812E02846FEF7B8FD4CF2503017
:10246000FEF71AFE07460D48006920F002000B49EE
:1024700008610FB1356007E005F50065D4E9021089
:1024800001EBC020A842E6D800BF00BF00200249EF
:10249000087600BF3846B7E7C86400200020024035
:1024A0000348006940F0800001490861002070473E
:1024B000002002402DE9FE4F05468B461746984600
:1024C000012600240020029000BF2448007E01283D
:1024D00002D10220BDE8FE8F01202049087600BF0E
:1024E0004CF25030FEF7D8FD064686BB012D02D1D6
:1024F0000120029006E0022D02D10220029001E0AC
:102500000420029000241EE02201B946C24648463B
:102510005146FDF72BFE80B20190022000FB04B073
:1025200000900199FEF766FD4CF25030FEF7B4FDC5
:1025300006460B48006920F001000949086106B110
:1025400004E0601CC4B202988442DDDB00BF00BF1F
:1025500000200249087600BF3046BBE7C86400206F
:102560000020024000200849096901F0800151B1B2
:102570000649054A5160064951601146096901F052
:10258000800101B10120704700200240230167450E
:10259000AB89EFCD00B585B000200190029003908B
:1025A00004901C48006808B105B000BD012019491D
:1025B000086000BF1848406940F4807016494861BF
:1025C0000846406900F48070009000BF00BF4FF4DF
:1025D000F0600190022002900320049001A90F48AE
:1025E00000F048F84CF2B300019002200290032062
:1025F000049001A90A4800F03DF8802001900220D3
:1026000002900320049001A9064800F033F800BFAF
:10261000CAE7000008000020001002400018014036
:1026200000140140000C014010280DD10749098811
:1026300051B93221054A118005490968491C044AEB
:1026400011600121034A117070470000C40000208E
:10265000C8000020C100002010B5044604480068EE
:10266000204020B1024804602046FFF7DDFF10BD86
:10267000140401402DE9F847024600239C467BE103
:102680004FF0010808FA03F4D1F8008008EA0400CA
:10269000A0427DD1DFF8F4A2D1F80480A8EB0A09AA
:1026A000D0453AD014DCB8F1030F50D009DCB8F1B2
:1026B000000F31D0B8F1010F1CD0B8F1020F49D191
:1026C00020E0B8F1110F18D0B8F1120F42D11EE07E
:1026D000B9F5881F25D006DCB9F5803F20D0B9F5C3
:1026E000801F37D11AE0B9F5001F18D0B9F5041FC3
:1026F00030D117E0D1F80CC02DE0D1F80C8008F1F2
:10270000040C28E0D1F80C8008F1080C23E0D1F883
:102710000C8008F10C0C1EE000BF00BF00BF00BF22
:1027200000BF00BFD1F80880B8F1000F02D14FF010
:10273000040C0BE0D1F80880B8F1010F03D14FF081
:10274000080C146102E04FF0080C546103E04FF0F4
:10275000000C00E000BF00BFFF2801D8904601E058
:1027600002F104084646FF2802D84FEA830803E036
:10277000A3F108084FEA88084746D6F800804FF0D2
:102780000F0909FA07F928EA09080CFA07F900E025
:102790007AE048EA0908C6F80080D1F8048008F019
:1027A0008058B8F1805F6FD100BFDFF8E481D8F8BE
:1027B000188048F00108DFF8D891C9F81880C84699
:1027C000D8F8188008F00108CDF8008000BF00BFDD
:1027D0004FEAB9384FEA930958F829504FEA8378FD
:1027E0004FEA18794FF00F0808FA09F825EA0805AA
:1027F000DFF8A081424502D14FF0000824E0DFF865
:102800009881424502D14FF001081DE0DFF88C812C
:10281000424502D14FF0020816E0DFF884814245BC
:1028200002D14FF003080FE0DFF87881424502D172
:102830004FF0040808E0DFF87081424502D14FF004
:10284000050801E04FF006084FEA83794FEA19794D
:1028500008FA09F848EA0505DFF850814FEA9309BC
:1028600048F82950D1F8048008F48038B8F5803F42
:102870000BD1DFF83C81D8F8008048EA0008DFF887
:102880003091C9F800800AE075E0DFF82481D8F8BB
:10289000008028EA0008DFF81891C9F80080D1F814
:1028A000048008F40038B8F5003F0ED1DFF800814D
:1028B00008F10408D8F8008048EA0008DFF8F09032
:1028C00009F10409C9F800800DE0DFF8E48008F19F
:1028D0000408D8F8008028EA0008DFF8D49009F14D
:1028E0000409C9F80080D1F8048008F48018B8F50C
:1028F000801F0ED1DFF8B88008F10808D8F80080F2
:1029000048EA0008DFF8A89009F10809C9F8008032
:102910000DE0DFF89C8008F10808D8F8008028EA6C
:102920000008DFF88C9009F10809C9F80080D1F897
:10293000048008F40018B8F5001F0ED1DFF870808D
:1029400008F10C08D8F8008048EA0008DFF8609029
:1029500009F10C09C9F800800DE0DFF8548008F196
:102960000C08D8F8008028EA0008DFF8449009F144
:102970000C09C9F800805B1CD1F8008028FA03F824
:10298000B8F1000F7FF47CAEBDE8F88700001110AD
:102990000010024000080140000C014000100140FE
:1029A0000014014000180140001C014008000140D3
:1029B00000040140024693680B400BB1012000E087
:1029C0000020704710B5C26821EA020302EA010440
:1029D00043EA0443036110BD0AB1016101E00B0445
:1029E000036170470148006870470000240100201F
:1029F00070B504460CB9012070BD4CF6CC4021687E
:102A0000086045F2555021680860D4E9001048601C
:102A10002168A0688860FFF7E5FF05460BE0FFF737
:102A2000E1FF401B272806D92068C06800F003009A
:102A300008B10320E0E72068C06800F00300002828
:102A4000EDD14AF6AA20216808600020D4E70146AB
:102A50004AF6AA200A681060002070470348006800
:102A6000034909780844014908607047240100209F
:102A70002C01002010B50848006840F010000649FD
:102A80000860032000F078F9002000F007F800F05B
:102A90002BF8002010BD00000020024070B5044655
:102AA0000E4800784FF47A71B1FBF0F00C490968D8
:102AB000B1FBF0F5284600F0B1FE08B1012070BD71
:102AC000102C07D200222146501E00F016F90548AE
:102AD000046001E00120F2E70020F0E72C01002073
:102AE000100000202801002008B500BF11488069AF
:102AF00040F001000F4988610846806900F001003C
:102B0000009000BF00BF00BF0846C06940F0805081
:102B1000C8610846C06900F08050009000BF00BF47
:102B200000BF0549486820F0E06040F00070486050
:102B300000BF08BD00100240000001402DE9F04137
:102B400004460F46164614B90120BDE8F08194F8FA
:102B5000410028B9002084F84000204600F060F8C9
:102B600004F108012068FEF7F1FA3946A2682068EE
:102B7000FEF728FB3146236BD4E90102FEF7C4FAC5
:102B8000A168206850F8210040F00100A268216887
:102B900041F82200606918B900202049086002E06D
:102BA00001201E490860012084F84100A06810B986
:102BB0004FF0C0450DE0A068022802D14FF0C84593
:102BC00007E0A068042802D14FF0D04501E04FF0A3
:102BD000D84500BF982111480068012802D105F1AD
:102BE000AA0001E005F15500018000BF00BF00BF51
:102BF000BFF34F8F00BF00BF00BF00BF0748006892
:102C0000012802D105F1260001E005F1130000883A
:102C10006064204600F009F897E7000030010020CA
:102C200010B50446FFF7B6FC10BD10B501460024F0
:102C300091F84130022B01D1022010BD012B01D0AF
:102C4000042B46D100BF91F84000012801D1022099
:102C5000F3E7012081F8400000BF022081F8410025
:102C6000886810B94FF0C0420DE08868022802D190
:102C70004FF0C84207E08868042802D14FF0D042E4
:102C800001E04FF0D842486C02280BD100BFF02081
:102C9000108000BF00BF00BFBFF34F8F00BF00BF59
:102CA00000BF0FE0486C01280BD100BFFF2010804F
:102CB00000BF00BF00BFBFF34F8F00BF00BF00BF0A
:102CC00000E0012481F8413000BF002081F840007D
:102CD00001E00120B1E72046AFE7014608460028A1
:102CE00009DB00F01F0301229A4043099B0003F116
:102CF000E023C3F8002100BF70472DE9F05F804654
:102D00000D461646002704F01DF9074639462A46A7
:102D1000334601F00700C0F1070ABAF1040F02D9E7
:102D20004FF0040A01E0C0F1070AD14600F1040A9D
:102D3000BAF1070F02D24FF0000A01E0A0F1030A36
:102D4000D4464FF0010A0AFA09FAAAF1010A0AEA7E
:102D5000020A0AFA0CFA4FF0010B0BFA0CFBABF16A
:102D6000010B0BEA030B4AEA0B042146404604F030
:102D7000F1F8BDE8F09F000000BF00F00702064B2D
:102D800019684FF6FF031940044B0B4343EA022135
:102D9000014B196000BF70470CED00E00000FA0520
:102DA0002DE9F04385B0064642A30FCB01AC0FC41A
:102DB00044A0006800904FF0000800250027002480
:102DC000A146042E36D004DC012E3BD0022E6BD15E
:102DD0005FE0082E32D0102E66D13B484468006870
:102DE00000F0807000B301A8C4F38341475C04F491
:102DF000803070B134484068C0F340401DF8008016
:102E000004F4803040B13148B0FBF8F000FB07F526
:102E100002E02F4807FB00F52B48406800F48000D3
:102E2000B0F5800F01D1A94603E068000321B0FB93
:102E3000F1F93AE000F0D2F9814636E000F0CEF93F
:102E4000814632E02048046A04F44070B0F5807F87
:102E500005D104F0020010B14FF4004918E004F469
:102E60004070B0F5007F07D11748406A00F00200BB
:102E700010B149F640490BE004F44070B0F5407FD2
:102E800006D11148006800F4003008B14FF224491F
:102E90000BE000F093F90C494968C1F38131491CFA
:102EA0004900B0FBF1F900E000BF00BF484605B0A3
:102EB000BDE8F08302030405060708090A0B0C0DA0
:102EC0000E0F1010010200000010024000127A00E4
:102ED00000093D00F8B5044600260025207800F0E2
:102EE000010000286BD000274348C06900F08050E3
:102EF00070B900BF4048C06940F080503E49C86189
:102F00000846C06900F08050009000BF00BF012754
:102F10003A48006800F48070B0B93848006840F45E
:102F2000807036490860FFF75DFD064606E0FFF752
:102F300059FD801B642801D90320F8BD2F48006883
:102F400000F480700028F2D02B48006A00F440752D
:102F50002DB3A08800F44070A84220D02648006A13
:102F600020F44075012026490860002008602248AE
:102F7000056205F0010090B1FFF734FD064608E058
:102F8000FFF730FD801B41F28831884201D90320D0
:102F9000D3E71948006A00F002000028F0D0164874
:102FA000006A20F440706168084313490862012FE9
:102FB00004D10846C06920F08050C86100BF207865
:102FC00000F00200022807D10B48406820F440407E
:102FD000A168084308494860207800F010001028D4
:102FE00007D10548406820F4800061690843024920
:102FF00048600020A1E7000000100240007000407F
:103000004004424270B504460D460CB9012070BD23
:103010005A48006800F00700A8420ED257480068DE
:1030200020F007002843554908600846006800F072
:103030000700A84201D00120E9E7207800F0020053
:1030400002281DD1207800F00400042805D14C4846
:10305000406840F4E0604A494860207800F0080089
:10306000082805D14648406840F46050444948600B
:103070004348406820F0F000A16808434049486098
:10308000207800F0010078B36068012806D13C4840
:10309000006800F4003090B90120B8E760680228A9
:1030A00006D13748006800F0007040B90120AEE753
:1030B0003348006800F0020008B90120A7E7304853
:1030C000406820F00300616808432D494860FFF71D
:1030D00089FC064609E0FFF785FC801B41F2883138
:1030E000884202D9032092E707E02548406800F0B3
:1030F0000C006168B0EB810FEDD12048006800F052
:103100000700A8420ED91D48006820F00700284398
:103110001A4908600846006800F00700A84201D07C
:10312000012074E7207800F00400042807D1144837
:10313000406820F4E060E168084311494860207865
:1031400000F00800082808D10D48406820F46050BD
:10315000216940EAC1000A49486000F03FF8084987
:103160004968C1F30311074A515CC8400649086029
:1031700006480068FFF792FC002048E70020024064
:1031800000100240C4920008100000202801002016
:1031900001480068704700001000002000B5FFF7EC
:1031A000F7FF04494968C1F30221034A515CC84052
:1031B00000BD000000100240D492000800B5FFF7E7
:1031C000E7FF04494968C1F3C221034A515CC84082
:1031D00000BD000000100240D4920008F0B585B098
:1031E0000FF26C0C9CE8E01001A8A0E8E0101CA510
:1031F0002D68009500210022002300240020194D95
:10320000696801F00C05F5B1042D02D0082D19D123
:1032100001E0154819E001ADC1F38346AC5D01F44E
:10322000803555B10F4D6D68C5F340451DF805203B
:103230000D4D6543B5FBF2F302E00C4D04FB05F3C5
:10324000184602E000BF084800BF00BF05B0F0BD4F
:1032500002030405060708090A0B0C0D0E0F1010D7
:10326000010200000010024000127A0000093D0037
:10327000F8B504460CB90120F8BD207800F0010033
:10328000002878D0F848406800F00C0004280CD0E2
:10329000F548406800F00C00082811D1F248406859
:1032A00000F48030B0F5803F0AD1EF48006800F4A8
:1032B000003000285FD0606800285CD10120DBE787
:1032C00000BF6068B0F5803F06D1E748006840F471
:1032D0008030E549086028E0606858B9E248006835
:1032E00020F48030E04908600846006820F480201F
:1032F00008601AE06068B0F5A02F0BD1DA480068CA
:1033000040F48020D84908600846006840F48030C6
:1033100008600AE0D448006820F48030D249086090
:103320000846006820F48020086000BF606888B10B
:10333000FFF758FB054606E0FFF754FB401B6428E7
:1033400001D9032098E7C848006800F4003000283D
:10335000F2D010E0FFF746FB054606E0FFF742FB20
:10336000401B642801D9032086E7BF48006800F4A9
:1033700000300028F2D1207800F00200022857D156
:10338000B948406800F00C0050B1B748406800F000
:103390000C00082818D1B448406800F4803098B96F
:1033A000B148006800F0020020B12069012801D076
:1033B000012061E7AC48006820F0F800616940EA4C
:1033C000C100A949086033E02069E8B10120A7499C
:1033D0000860FFF707FB054606E0FFF703FB401B0D
:1033E000022801D9032047E79F48006800F0020047
:1033F0000028F2D09C48006820F0F800616940EA9B
:10340000C1009949086013E0002098490860FFF75F
:10341000E9FA054606E0FFF7E5FA401B022801D964
:10342000032029E79048006800F002000028F2D14C
:10343000207800F0080008282DD1A069B8B101203B
:103440008B490860FFF7CEFA054606E0FFF7CAFA97
:10345000401B022801D903200EE78348406A00F090
:1034600002000028F2D0012001F01AFE13E0002033
:103470007F490860FFF7B6FA054606E0FFF7B2FAA3
:10348000401B022801D90320F6E67748406A00F085
:1034900002000028F2D1207800F00400042873D143
:1034A00000277148C06900F0805070B900BF6E48B5
:1034B000C06940F080506C49C8610846C06900F09E
:1034C0008050009000BF00BF01276A48006800F4E8
:1034D0008070B0B96748006840F480706549086042
:1034E000FFF780FA054606E0FFF77CFA401B6428E8
:1034F00001D90320C0E65F48006800F4807000280E
:10350000F2D000BFE068012806D15748006A40F0B9
:1035100001005549086227E0E06858B95248006A3E
:1035200020F00100504908620846006A20F00400BB
:10353000086219E0E06805280BD14B48006A40F0AA
:103540000400494908620846006A40F00100086228
:103550000AE04548006A20F0010043490862084635
:10356000006A20F00400086200BFE068A0B1FFF725
:1035700039FA054609E0FFF735FA401B41F2883178
:10358000884202D9032077E622E03748006A00F03B
:1035900002000028EFD012E0FFF724FA054608E009
:1035A000FFF720FA401B41F28831884201D90320FD
:1035B00062E62D48006A00F002000028F0D1012FD9
:1035C00005D12948C06920F080502749C86100BF53
:1035D000E069C8B32448406800F00C00082860D0B7
:1035E000E069022848D1002020490866FFF7FAF96F
:1035F000054606E0FFF7F6F9401B022801D9032033
:103600003AE61948006800F000700028F2D1206AFC
:10361000B0F5803F07D11448406820F40030A1681D
:10362000084311494860D4E9080108430E49496834
:1036300021F4741108430C49486001200B490866C5
:10364000FFF7D0F9054607E03DE0FFF7CBF9401B57
:10365000022801D903200FE60348006800F000703B
:103660000028F2D02FE0000000100240000042428B
:103670008004424200700040002014490866FFF7B1
:10368000B1F9054606E0FFF7ADF9401B022801D964
:103690000320F1E50E48006800F000700028F2D128
:1036A00011E0E069012800D1E6E50948466806F422
:1036B0008031206A814204D106F47011606A81422F
:1036C00001D00120D8E50020D6E5000000004242EC
:1036D0000010024010B504460CB9012010BD606A0C
:1036E00038B96068B0F5827F00D105E00021E16162
:1036F00002E00021216161610021A16294F8510082
:1037000028B9002084F85000204600F043F8022039
:1037100084F851002068006820F0400021680860AB
:10372000A08800F48270218901F404410843A18932
:1037300001F400610843217C01F002010843217D6E
:1037400001F001010843218B01F400710843217F3E
:1037500001F0380108432021095D01F08001084390
:10376000218D01F400510843216808600421A069FB
:1037700001EA1040216848602068C06920F40060B8
:103780002168C86100206065012084F85100002094
:10379000A4E7000010B586B0044600200290039014
:1037A000049005901A49206888422FD100BF19481B
:1037B000C06940F480401749C8610846C06900F4F8
:1037C0008040019000BF00BF00BF0846806940F004
:1037D000080088610846806900F00800019000BF79
:1037E00000BF4FF420400290022003900320059078
:1037F00002A90948FEF73EFF4FF4804002900020E6
:103800000390049002A90448FEF734FF06B010BDEF
:103810000038004000100240000C014070B5044622
:103820002546681EB0F1807F01D301200FE0681E9D
:103830004FF0E02148610F214FF0FF3003F08AFB89
:1038400000204FF0E021886107200861002070BD52
:1038500030B502460B4600BF92F83C00012801D16A
:10386000022030BD012082F83C0000BF022082F817
:103870003D00106844681068816824F0700418687E
:10388000044310684460144D1068A84213D0134DCF
:103890001068A8420FD01068B0F1804F0BD0104DC7
:1038A0001068A84207D00F4D1068A84203D00E4DF3
:1038B0001068A84205D121F08001586801431068C2
:1038C0008160012082F83D0000BF002082F83C00AA
:1038D00000BF00BFC5E70000002C014000340140DC
:1038E0000004004000080040000C004010B50446F1
:1038F0000CB9012010BD94F83D0028B9002084F8CF
:103900003C00204600F026F8022084F83D00211DEE
:10391000206801F0DDFE012084F8460000BF84F835
:103920003E0001213F200155402001554120015515
:1039300000BF00BF012084F842004320015544200D
:1039400001554520015500BF012084F83D000020AD
:10395000D0E7000008B5094A016891420DD100BFC7
:103960000749C96941F00401054AD1611146C96995
:1039700001F00401009100BF00BF08BD0008004035
:10398000001002402DE9F04104460D4600BF94F8B6
:103990003C00012802D10220BDE8F081012084F81A
:1039A0003C0000BF022084F83D002068866826F0B5
:1039B000770626F47F46206886602868502833D032
:1039C0000CDC202850D004DC00284BD0102851D12A
:1039D00049E0302849D040284CD139E060282DD02A
:1039E000702807D0B0F5805F03D0B0F5005F41D1FB
:1039F0000DE040E0D5E902136A68206801F0C7FED7
:103A00002068866846F077062068866033E0D5E94E
:103A100002136A68206801F0BAFE2068806840F4EA
:103A200080402168886026E0EA686968206801F0C3
:103A30009FFF5021206801F0B5FE1CE0EA6869682C
:103A4000206801F0A8FF6021206801F0ABFE12E0C1
:103A5000EA686968206801F08BFF4021206801F066
:103A6000A1FE08E000BF00BF00BF2968206801F088
:103A700099FE00E000BF00BF012084F83D0000BFB8
:103A8000002084F83C0000BF00BF85E710B586B079
:103A90000446002002900390049005900E4920688F
:103AA000884216D100BF0D48806940F008000B49DC
:103AB00088610846806900F00800019000BF00BFDF
:103AC0004020029002200390059002A90448FEF7CE
:103AD000D1FD06B010BD00000008004000100240FB
:103AE000000C014070B504460D46164600BF94F820
:103AF0003C00012801D1022070BD012084F83C0067
:103B000000BF36B1042E1BD0082E31D00C2E5ED152
:103B100045E02946206801F04FFE2068806940F0AA
:103B20000800216888612068806920F0040021680D
:103B3000886120688069296908432168886147E0B5
:103B40002946206801F070FE2068806940F400601A
:103B5000216888612068806920F48060216888611C
:103B600020688069296940EA0120216888612FE086
:103B70002946206801F096FE2068C06940F00800E0
:103B80002168C8612068C06920F004002168C8610C
:103B90002068C069296908432168C86118E029467E
:103BA000206801F0BBFE2068C06940F40060216815
:103BB000C8612068C06920F480602168C8612068FD
:103BC000C069296940EA01202168C86100E000BF9E
:103BD00000BF00BF002084F83C0000BF00BF8BE79F
:103BE00010B504460CB9012010BD94F83D0028B969
:103BF000002084F83C00204600F025F8022084F8DC
:103C00003D00211D206801F063FD012084F846007D
:103C100000BF84F83E0001213F200155402001559E
:103C20004120015500BF00BF012084F8420043201D
:103C30000155442001554520015500BF012084F85D
:103C40003D000020D0E7704770B504460D4615B919
:103C500094F83E000BE0042D02D13F20005D06E009
:103C6000082D02D14020005D01E04120005D0128C7
:103C700001D0012070BD1DB9022084F83E000EE085
:103C8000042D03D102213F20015508E0082D03D166
:103C900002214020015502E002214120015501226C
:103CA0002946206801F062FD1F492068884203D040
:103CB0001E492068884201D1012000E0002028B17F
:103CC0002068406C40F40040216848641649206830
:103CD000884213D01549206888420FD02068B0F17F
:103CE000804F0BD012492068884207D011492068C4
:103CF000884203D01049206888420CD1206880682F
:103D000000F00706062E0CD02068006840F0010085
:103D10002168086005E02068006840F00100216823
:103D200008600020A6E70000002C0140003401409C
:103D30000004004000080040000C004030B504467C
:103D40000D4600222946206801F010FD2349206815
:103D5000884203D022492068884201D1012000E036
:103D6000002090B100BF2068006A41F211110840A4
:103D700050B92068006A8910084028B92068406C52
:103D800020F400402168486400BF00BF2068006A3A
:103D900041F21111084050B92068006A89100840AA
:103DA00028B92068006820F001002168086000BF81
:103DB0001DB9012084F83E000EE0042D03D101213D
:103DC0003F20015508E0082D03D101214020015575
:103DD00002E0012141200155002030BD002C0140AE
:103DE0000034014010B504460CB9012010BDA06993
:103DF00000B100E000BF94F83D0028B9002084F82D
:103E00003C00204600F028F8242084F83D0020687B
:103E1000C06820F400502168C860204602F0AEFA65
:103E20002068006920F4904021680861206840699A
:103E300020F02A00216848612068C06840F40050E2
:103E40002168C86000202064202084F83D0084F8A8
:103E50003E000020CAE7000010B586B004460020EE
:103E6000029003900490059079492068884238D1E7
:103E700000BF7848C06940F400207649C861084610
:103E8000C06900F40020019000BF00BF00BF0846D9
:103E9000806940F0100088610846806900F01000D9
:103EA000019000BF00BF081502900220039003207C
:103EB000059002A96848FEF7DDFB4FF40060029010
:103EC000002003900120049002A96348FEF7D2FB72
:103ED000002211463420FEF710FF3420FEF7FDFECD
:103EE000B4E05E492068884238D100BF59488069F3
:103EF00040F48040574988610846806900F480405A
:103F0000019000BF00BF00BF0846806940F0040078
:103F100088610846806900F00400019000BF00BF7E
:103F200048150290022003900320059002A94C48F6
:103F3000FEF7A0FB4FF48060029000200390012068
:103F4000049002A94648FEF795FB00221146252061
:103F5000FEF7D3FE2520FEF7C0FE77E0414920683A
:103F6000884237D100BF3B48C06940F4003039492E
:103F7000C8610846C06900F40030019000BF00BF6E
:103F800000BF0846806940F00400886108468069E7
:103F900000F00400019000BF00BF04200290022046
:103FA00003900320059002A92D48FEF763FB08202B
:103FB0000290002003900120049002A92848FEF7F7
:103FC00059FB002211462620FEF797FE2620FEF719
:103FD00084FE3BE024492068884237D100BF1D4859
:103FE000C06940F480201B49C8610846C06900F4DC
:103FF0008020019000BF00BF00BF0846806940F0EC
:10400000080088610846806900F00800019000BF40
:1040100000BF08150290022003900320059002A91A
:104020001248FEF727FB4FF4006002900020039037
:104030000120049002A90D48FEF71CFB0022114646
:104040002720FEF75AFE2720FEF747FE06B010BDD8
:10405000004C0040001002400010014000380140B8
:10406000000801400044004000480040000C0140AE
:1040700000BFFEE70EB5F8480078082871D007DCCD
:1040800008286FD2DFE800F0152C4370A5BAF5F3CD
:104090000C2868D006DC09287DD00A287CD00B28A3
:1040A00060D190E1142878D0152877D03228F7D144
:1040B00042E001229103E948FEF78EFC00224FF412
:1040C0000041E648FEF788FC0520E549088001200C
:1040D000E14908700020E3490880E349087083E261
:1040E0000020E0490880E0490870DD48008868B990
:1040F0000122D103D948FEF76FFC0520D84908807A
:104100000220D54908700020D84908706CE20020D0
:10411000D4490880D4490870D148008858B9D4A03F
:1041200004F02AFBD2A004F001FB0220CC49088055
:104130003220C949087057E20020CA490880CA499C
:104140000870C748008858B9CBA004F015FBCAA076
:1041500004F0ECFA0220C24908800320BE4908702E
:1041600042E2CCE03FE261E1BF480078B8B1C4A1CF
:10417000C448FCF735F840B10120B9490880042053
:10418000B54908700020B94908700020B549088079
:10419000B54908701CE0C7E0F8E0B0E1E9E1B048DB
:1041A0000088A8B90020AF490880AF4908700220F4
:1041B000A9490870AD480078401CAC490870084611
:1041C0000078032804DB0020A3490870A749087081
:1041D0000AE20020A3490880A3490870A04800888B
:1041E00058B9A9A004F0C8FAA7A004F09FFA0220C9
:1041F0009B490880052098490870F5E19A480078A5
:10420000D8B19FA19F48FBF7EBFF80B101209449F3
:104210000880A24890F8450018B914208E4908700B
:1042200002E006208C4908700020904908700020A8
:104230008C4908808C49087018E089480088A8B922
:104240000020884908808849087004208249087045
:1042500086480078401C8549087008460078032885
:1042600004DB00207C49087080490870BCE115E03F
:10427000FFE700207B4908807B4908707848008868
:1042800058B987A004F078FA85A004F04FFA02200C
:1042900073490880072070490870A5E172480078CA
:1042A00098B177A17748FBF79BFF40B101206C499B
:1042B00008800A206849087000206C4908700020B6
:1042C000684908806849087018E065480088A8B9FE
:1042D0000020644908806449087006205E4908701F
:1042E00062480078401C614908700846007803283D
:1042F00004DB0020584908705C49087074E1002014
:1043000058490880584908705548008858B969A02C
:1043100004F032FA67A004F009FA3220504908800C
:1043200009204D4908705FE14F480078A0B15B4912
:104330000A315448FBF754FF40B101204849088036
:104340000A20454908700020484908700020454966
:1043500008804549087018E041480088A8B9002045
:10436000404908804049087008203B4908703F4890
:104370000078401C3D49087008460078032804DB9B
:10438000002035490870394908702DE10020354971
:104390000880354908703248008898B93F4A1E3273
:1043A000A2F1140146A004F0E7F93C4A1E32A2F142
:1043B000140143A004F0BAF98220294908800B2097
:1043C0002549087010E12848007898B142A12D488D
:1043D000FBF706FF40B10220214908800C201E494E
:1043E000087000202149087000201E4908801E49DD
:1043F00008701AE01A480088B8B9002019490880E6
:10440000194908700A20164908801349087017488E
:104410000078401C1549087008460078032804DB22
:1044200000200D49087011490870DDE001202D4978
:10443000087000202C490870074908700A200849B4
:10444000088000224FF480410448FEF7C5FA00209E
:10445000064908704AE00000AF0000200018014043
:10446000B4000020A6000020A3000020B10000201E
:10447000415445300A00000041542B474D520A0078
:104480004F4B00006057002041542B43574D4F4481
:10449000455F4355523D310A00000000E409002009
:1044A00041542B4357444843505F4355523D312CB0
:1044B000310A000041542B43574C41500A00000080
:1044C00041542B43574A41505F4355523D22257377
:1044D000222C222573220A005749464920474F546F
:1044E00020495000A0000020A10000203FA004F0BF
:1044F0001DF90020454908804549087074E00020F6
:1045000042490880424908704248008880BB4248BE
:1045100090F8441090F843003F4A92F84220CDE9C9
:10452000002002913C4890F8413090F8402090F8EB
:104530003F103AA004F020F9374890F8440036497B
:1045400091F84310344A92F84220CDE900210290BC
:10455000314890F8413090F8402090F83F102FA05B
:1045600004F0E4F802202B4908801520384908702F
:104570003AE027480078C8B1AFF2FC013548FBF7B4
:104580002FFE68B1012023490880234981F84500A6
:104590003149087006202E49087000202F49087004
:1045A00000201A4908801A4908701BE01948008841
:1045B000C0B9002015490880154908701420244905
:1045C000087001201349088024480078401C2349C2
:1045D000087008460078032804DB00201C49087096
:1045E0001E49087000E000BF00BF0EBD7769666914
:1045F0002073746174696F6E206D6F646520696EDD
:104600006974206F6B7E7E21210A0000A6000020C5
:10461000A3000020B4000020E409002041542B43F3
:1046200049505354414D41435F4445463D22253056
:1046300032583A253032583A253032583A253032FD
:10464000583A253032583A25303258220A000000B4
:10465000AF00002060570020C0000020B100002003
:10466000002003490870C8704870887070470000C7
:104670005300002010B501213448FEF79BF934495E
:10468000344A1278885402213048FEF793F93049B1
:10469000C91C304A1278885404212C48FEF78AF944
:1046A0002B49891D2B4A1278885408212748FEF788
:1046B00081F927490931274A12788854254800781A
:1046C000401C2449087008460078032801DB0020BC
:1046D0000870002437E004EB44001D49085C48BB27
:1046E00004EB44000844407820BB04EB4400084439
:1046F0008078F8B91848005D40B90120164908557E
:10470000164908550020164908551AE01548005D5D
:10471000B8B91348005D322805DA1148005D401C25
:104720000F4908550DE001200E49085500200C499D
:10473000085506E00020084908550A490855084967
:104740000855601CC4B2042CC5DB10BD001001402C
:104750000C0D00205F0000205700002053000020B7
:10476000600000205B0000200EB50020009001904A
:1047700002901F481F49086081151E488160012171
:104780000173002101754FF46021C16100201949B6
:104790004860022117480161FDF7C6F908B1FCF72E
:1047A00063FB1020009001200190032002906946D5
:1047B0001048FDF771F808B1FCF756FB1120009086
:1047C0000220019069460B48FDF766F808B1FCF736
:1047D0004BFB0848FCF7D2FF00BF0648FDF70FF976
:1047E0000128FAD1022204490248FDF791FA0EBDD0
:1047F000002401403C010020B403002010B505480E
:10480000054908600846FDF757FB08B1FCF72CFB8B
:1048100010BD0000003002400000002008B500BFBD
:104820000A48406940F0010008494861084640696B
:1048300000F00100009000BF00BF002211460B20D5
:10484000FEF75BFA0B20FEF748FA08BD00100240A5
:1048500000B587B01C216846FBF7B7FC4FF020403D
:1048600018490860184848600020886002211548EF
:10487000C16008210161002141618161C161016262
:1048800041624FF4805181620021C1620163416342
:1048900081630320009001200190082002900020F5
:1048A0000390102004901120059000200690002213
:1048B00069460448FEF742F908B1FCF7D5FA07B09B
:1048C00000BD00006C030020040100A000B585B00D
:1048D0000020019002900390049000BF7848806906
:1048E00040F04000764988610846806900F0400049
:1048F000009000BF00BF00BF0846806940F0100074
:1049000088610846806900F01000009000BF00BF79
:1049100000BF0846806940F004008861084680694D
:1049200000F00400009000BF00BF00BF084680698F
:1049300040F0080088610846806900F00800009097
:1049400000BF00BF00BF0846806940F020008861BA
:104950000846806900F02000009000BF00BF0122DF
:104960004EF214015748FEF737F8012248F2C01101
:104970005548FEF731F8012241F290315348FEF7D5
:104980002BF8012241F23B015148FEF725F80022A5
:104990004FF480514B48FEF71FF801224FF413717A
:1049A0004C48FEF719F800224FF400614648FEF724
:1049B00013F84FF21400019001200290039003209D
:1049C000049001A93F48FDF755FE202001900020EA
:1049D00002900120039001A93A48FDF74BFE4F20B9
:1049E0000190002002900120039001A93748FDF7B3
:1049F00041FE10200190384802900020039001A948
:104A00003148FDF737FE4FF48150019000200290AD
:104A10000120039001A92C48FDF72CFE48F2C0109C
:104A200001900120029003900320049001A92648E0
:104A3000FDF720FE41F2903001900120029003909A
:104A40000320049001A92148FDF714FE41F23B0028
:104A500001900120029003900320049001A91C48BA
:104A6000FDF708FE4FF474500190002002900120E1
:104A7000039001A91748FDF7FDFD4FF41370019055
:104A80000120029003900320049001A91148FDF732
:104A9000F1FD4FF40060019001200290022003908C
:104AA0000320049001A90848FDF7E4FD0022114607
:104AB0000A20FEF722F90A20FEF70FF905B000BD23
:104AC00000100240001801400008014000100140A1
:104AD000000C0140001401400000111010B50948FD
:104AE000094908600120486040F6FF71064881606E
:104AF000FDF77EFF08B1FCF7B7F90348FDF7A7FF04
:104B000010BD000000300040B001002010B50E487C
:104B10000E4908604FF48270486000210B488160A4
:104B2000C160016141614FF4007181613021C16157
:104B300000210162416281620A21C162FEF7CAFD61
:104B400008B1FCF791F910BD00380040BC0100200D
:104B500000B58DB0002009900A900B900C90079042
:104B600008901C216846FBF730FB2048204908606C
:104B70000020486000211E4881604FF6FF71C1602F
:104B8000002101618161FEF7B1FE08B1FCF76CF90B
:104B90004FF48050099009A91548FEF7F3FE08B1BB
:104BA000FCF762F91248FFF71BF808B1FCF75CF953
:104BB00000200790089007A90D48FEF749FE08B1AC
:104BC000FCF752F970200090002001900290042020
:104BD0000490002269460648FEF784FF08B1FCF7FE
:104BE00043F90348FEF752FF0DB000BD0008004036
:104BF0001402002010B50F480F4908604FF4E1304F
:104C0000486000210C488160C16001610C21416154
:104C100000218161C161FFF7E5F808B1FCF724F9D3
:104C200004480C30006840F0200002490C31086054
:104C300010BD0000004C00405C02002010B50F4881
:104C40000F4908604FF4E130486000210C48816052
:104C5000C16001610C21416100218161C161FFF7E7
:104C6000C1F808B1FCF700F904480C30006840F0C6
:104C7000200002490C31086010BD000000380140DE
:104C8000A002002010B50F480F4908604FF4E13032
:104C9000486000210C488160C16001610C214161C4
:104CA00000218161C161FFF79DF808B1FCF7DCF8D4
:104CB00004480C30006840F0200002490C310860C4
:104CC00010BD000000440040E402002010B50F4871
:104CD0000F4908604FF4E130486000210C488160C2
:104CE000C16001610C21416100218161C161FFF757
:104CF00079F808B1FCF7B8F804480C30006840F0C7
:104D0000200002490C31086010BD0000004800403E
:104D10002803002010B543480068434909688842C9
:104D200032D0414800683F49086000203F49087080
:104D3000BA2048703E48806C000E88703C48806CF9
:104D4000000CC8703A48B0F84800000A08713848AA
:104D500090F848004871012088710020C871042033
:104D6000087230480068000E48722E480068000C37
:104D700088722C480088000AC8722A480078087394
:104D80000D202C4908804CE02B4800782B490978ED
:104D9000884246D0002025490870BA20487024482F
:104DA000806C000E88702248806C000CC87020480F
:104DB000B0F84800000A08711D4890F84800487192
:104DC000102088711E481C49097830F81100001223
:104DD0001649C8711A481849097810F81100134982
:104DE00008721748144B1B7830F813201548124BE3
:104DF0001B7800EB43210D480930FBF7CDF9104833
:104E00000D49097830F8110009300A4908800A482C
:104E10000078401C142190FBF1F201FB12000649BE
:104E2000087010BDBC000020C8000020C45F002036
:104E3000E4090020BA0000206B0000206A00002076
:104E400038370020380F002000BFFEE72DE9F04181
:104E50000125290201F2034001F07EFE00285ED008
:104E600013283CD0172802D01C2874D128E029022E
:104E700001F2024001F070FE00F0010028B12902A9
:104E800001F20240012101F0CDFE284603F0ECFAC8
:104E9000061E14DDB6F5006F01DD4FF400663246E4
:104EA0002F49284603F01AFD0446002C01DCBDE81A
:104EB000F08100202A490855204600F091F84BE087
:104EC000002028490870284602F004FE0446012804
:104ED00000D0ECE7294624A003F028FC3CE027485A
:104EE0000088D8B91E202549088025480078C0EBE5
:104EF000C001244800EB4100071D4FF4FB72394606
:104F0000284602F0EBFC0446012C03D11EA003F05E
:104F10000DFC03E014B922A003F008FC1CE0002003
:104F200010490870012251032148FDF755FD012366
:104F30004FF4FB721946284603F024FEA84205D11F
:104F400029461CA003F0F2FB04E004E029461EA061
:104F500003F0ECFB00E000BF00BF00BFA7E70000CC
:104F6000603F00208E00002025643A536F636B651C
:104F70007420436C6F7365640A0000009600002083
:104F800098000020640B0020536F636B65742063EE
:104F90006F6E6E656374204F4B2E2E0A000000006A
:104FA000536F636B657420427573792E2E0A00006F
:104FB00000180140536F636B6574202564204F70A7
:104FC000656E640A00000000536F636B6574204FC8
:104FD00070656E204572726F722025640A000000B1
:104FE000704770477047000070B588B005460026CE
:104FF0001C2101A8FBF7E9F8244800682449B0FB0C
:10500000F1F0401E86B2084690FBF5F084B22148CC
:10501000214908600846466010218160601E1E49D3
:10502000C86000211C48016141618161FEF75EFC9E
:1050300008B1FBF719FF1848FEF7D2FD08B1FBF7DE
:1050400013FF70200190204604EBD0714910491ED7
:1050500002910220039000020490002005904FF47A
:105060008070069000200790002201A90A48FEF7F0
:1050700039FD08B1FBF7F8FE00210748FEF7E4FD13
:1050800008B1FBF7F1FE08B070BD00001000002071
:1050900040420F000008004014020020704700004A
:1050A00008B508490968C9084FF47A72B1FBF2F1F2
:1050B0004143009100BF00BF00994A1E00920029A1
:1050C000F9D108BD1000002010B50448007820B1C7
:1050D000002002490870FCF7CDF910BDC000002087
:1050E00010B51848007860B317480078401C1421A8
:1050F00090FBF1F201FB1200C4B214480078A04208
:105100001AD01349104A127801EB422011490A883B
:105110001149FBF741F80F48008810490A4A1278F4
:1051200021F8120008480078401C142190FBF1F28D
:1051300001FB12000449087000200649088001495B
:10514000087010BD680000206A0000206B0000207D
:10515000380F00206E000020180D00203837002086
:105160007047000010B5054B5B5C054C235422B121
:1051700023461B5C03F07F03235410BD049B0008EF
:105180009A00002010B5012280216B48FDF724FC15
:10519000012211026848FDF71FFC012251026648F6
:1051A000FDF71AFC012211026448FDF715FC644862
:1051B00064490978405C00F0010028B10122D10364
:1051C0005E48FDF709FC05E000224FF400415B4812
:1051D000FDF702FC5A485B490978405C00F0020088
:1051E00028B1012208215848FDF7F6FB04E000220F
:1051F00008215548FDF7F0FB514852490978405CB9
:1052000000F0040028B1012240214F48FDF7E4FBE3
:1052100004E0002240214C48FDF7DEFB48484949A4
:105220000978405C00F0080028B1012211034248CF
:10523000FDF7D2FB05E000224FF480513E48FDF718
:10524000CBFB3F483F490978405C00F0100028B193
:10525000012204213C48FDF7BFFB04E000220421A9
:105260003948FDF7B9FB364836490978405C00F00B
:10527000200028B1012208213448FDF7ADFB04E0ED
:10528000002208213148FDF7A7FB2D482D49097858
:10529000405C00F0400028B1012210212B48FDF7AE
:1052A0009BFB04E0002210212848FDF795FB2448D1
:1052B00024490978405C00F0800028B101222021B7
:1052C0002248FDF789FB04E0002220211F48FDF75A
:1052D00083FB1C48007830B101280AD002280FD087
:1052E00003281BD113E0002280211348FDF774FB33
:1052F00015E000224FF480710F48FDF76DFB0EE0C2
:1053000000224FF400710C48FDF766FB07E0002215
:105310004FF480710948FDF75FFB00E000BF00BF5C
:1053200008480078401C07490870084600780328A0
:1053300001DD0020087010BD001001400008014090
:105340009A0000209900002000140140000C014048
:10535000002000210BE0C1EBC103074A12F8132023
:105360001AB1064A1170012003E04A1CD1B21E296D
:10537000F1DB00BF70470000640B002098000020A4
:1053800070B5054613480088401C84B22046E117DA
:1053900004EBD1514912A4EB41218CB202E001206F
:1053A000FDF712F80C4800888442F8D00B480949F0
:1053B00009884554074804800948007840B1002016
:1053C000074908700748006840F0800005490860F8
:1053D00070BD00002E0000202C000020C40400201E
:1053E000280000200C44004070B505461348008892
:1053F000401C84B22046E11704EBD1514912A4EBC2
:1054000041218CB202E00120FCF7DEFF0C4800884D
:105410008442F8D00B48094909884554074804805C
:105420000948007840B10020074908700748006823
:1054300040F080000549086070BD0000AA0000200F
:10544000A800002060590020A40000200C48004063
:1054500070B504462046FAF7E1FE85B22A46214699
:10546000002003F0E1FA70BD10B5002405E0054905
:10547000085DFFF7B9FF601C84B2034800888442CE
:10548000F5DB10BDC45F0020BA00002070B5002518
:105490000AE00120FCF798FF012211491148FCF7AE
:1054A000F7FC0446681CC5B2202DF2DB200E0E4925
:1054B0008870200CC870200A08714C7100250AE021
:1054C0000120FCF781FF012205490648FCF7E0FCBA
:1054D0000446681CC5B2202DF2DB03494C7070BD38
:1054E000B4030020000000207600002010B5FDF776
:1054F000B5FA00F071F810BD00B595B028210BA8E1
:10550000FAF763FE142106A8FAF75FFE1821684631
:10551000FAF75BFE09200B904FF480300C900020CE
:105520000D9001200F90119002201290C103139151
:105530004FF4E01114910BA8FDF79AFE08B1FBF7A8
:1055400093FC0F20069002200790002008904FF453
:105550008060099000200A90022106A8FDF752FD04
:1055600008B1FBF781FC022000908003029068469E
:10557000FDF7B0FC08B1FBF777FC15B000BD0000EB
:105580001148006840F001000F4908600846406873
:105590000E4908400C494860084600680C4908401C
:1055A000094908600846006820F480200860084621
:1055B000406820F4FE0048604FF41F008860C80374
:1055C0000449086070470000001002400000FFF826
:1055D000FFFFF6FE08ED00E010B530480078401CF3
:1055E0002E490870FFF7CEFD2D48008820B12C48C9
:1055F0000088401E2A4908802A48008850B129485E
:105600000088401E274908800846008810B90120FC
:10561000254908702548008850B124480088401E5C
:10562000224908800846008810B9012020490870E6
:105630002048008850B11F480088401E1D4908803E
:105640000846008810B901201B49087013480078EB
:105650000A2821DB00201149087018480078401CF6
:10566000164908701648006820B115480068401EA9
:10567000134908601348007820B112480078401E92
:1056800010490870FEF7F6FFFBF762FA0E48007843
:1056900010B90E48FDF7DBF910BD00004E000020E8
:1056A000C4000020740000206800002030000020AA
:1056B00027000020AC000020A30000204F000020A5
:1056C00064000020C200002092000020B0010020F1
:1056D00010B50268204B98420ED0204B98420BD058
:1056E000B0F1804F08D01E4B984205D01D4B984218
:1056F00002D01D4B984203D122F070024B681A432E
:10570000154B98420ED0154B98420BD0B0F1804FFC
:1057100008D0134B984205D0124B984202D0124B3E
:10572000984203D122F44072CB681A4322F08003DE
:105730004C6943EA040202608B68C3620B688362AF
:10574000054B984202D0054B984201D10B69036387
:105750000123436110BD0000002C014000340140D2
:105760000004004000080040000C004030B501F08B
:105770001F05012404FA05F3046A9C430462046AC9
:1057800001F01F0502FA05F52C43046230BD30B567
:105790000C46816821F47F4142EA032525432943D1
:1057A000816030BD0A46816821F0700142F0070334
:1057B000194381607047000030B5056A25F0010586
:1057C0000562026A4368846924F0700424F00304CB
:1057D0000D682C4322F002028D682A43104DA84226
:1057E00000D103E00F4DA84206D100BF22F008020D
:1057F000CD682A4322F00402094DA84202D0094D87
:10580000A84207D123F4807323F400734D692B431E
:105810008D692B43436084614D684563026230BDEE
:10582000002C01400034014030B5056A25F0100518
:105830000562026A4368846924F4E04424F44074F5
:105840000D6844EA052422F020028D6842EA051220
:10585000124DA84200D103E0114DA84207D100BF6C
:1058600022F08002CD6842EA051222F040020B4D80
:10587000A84202D00A4DA84209D123F4806323F440
:1058800000634D6943EA85038D6943EA85034360FC
:1058900084614D688563026230BD0000002C0140C8
:1058A0000034014030B5056A25F480750562026A4E
:1058B0004368C46924F0700424F003040D682C4389
:1058C00022F400728D6842EA0522124DA84200D1EE
:1058D00003E0114DA84207D100BF22F40062CD6859
:1058E00042EA052222F480620A4DA84202D00A4D03
:1058F000A84209D123F4805323F400534D6943EAAD
:1059000005138D6943EA05134360C4614D68C5639F
:10591000026230BD002C01400034014030B5056A00
:1059200025F480550562036A4468C26922F4E042A6
:1059300022F440720D6842EA052223F400538D6878
:1059400043EA0533084DA84202D0084DA84204D1CD
:1059500024F480444D6944EA85144460C2614D6872
:105960000564036230BD0000002C0140003401409A
:1059700030B50B461446026A056A25F0010505623A
:10598000816921F0F00141EA041122F00A021A4370
:105990008161026230BD30B50B461446056A25F0C0
:1059A000100505628169026A21F4704141EA0431FF
:1059B00022F0A00242EA03128161026230BD0000BF
:1059C0007CB50024210201F2034001F0C5F8002853
:1059D0007ED013287DD0172802D01C287AD191E0E0
:1059E00000224FF400516448FCF7F6FF634800784A
:1059F000002810D1214662A002F098FE67A06AA19B
:105A000000230222CDE900106AA17A4801F074FA5D
:105A10007848FFF71DFD012058490870210201F266
:105A2000024001F099F800F0010028B1210201F2D2
:105A30000240012101F0F6F8204602F015FD061E95
:105A400013DDB6F5006F01DD4FF4006632466A499A
:105A5000204602F043FF0546002D00DC7CBD0020FF
:105A6000654948552846FBF761FA6448007870B1EB
:105A70006348007858B1002061490870614862A10C
:105A800002685C4801F038FA5A48FFF7E1FC6248C6
:105A9000007888B36148007861490978884230D03D
:105AA000002060495D4A127801EB42215E4A5B4B5F
:105AB0001B7832F8132088545A485849097800EB6B
:105AC000412359485549097830F8112057A102E07F
:105AD00032E026E04BE0474801F00EFA4548FFF778
