:020000040800F2
:10000000282B002049010008F34200086D36000843
:10001000F1420008A90A0008395900080000000050
:100020000000000000000000000000006D47000814
:100030001D1000080000000035450008754C000840
:100040006301000863010008630100086301000800
:1000500063010008630100086301000863010008F0
:10006000630100086301000863010008210E000815
:1000700063010008630100086301000863010008D0
:1000800063010008630100087109000863010008AA
:1000900063010008630100086301000863010008B0
:1000A00063010008630100086301000863010008A0
:1000B0006301000863010008630100086301000890
:1000C0006301000863010008630100086301000880
:1000D00063010008855600085D5700080D580008A8
:1000E0006301000863010008630100086301000860
:1000F0006301000863010008630100086301000850
:10010000630100086301000863010008630100083F
:10011000630100086301000863010008630100082F
:10012000630100086301000863010008630100081F
:10013000DFF810D000F07EFB00480047B5720008E1
:10014000AFF30080282B0020064880470648004770
:10015000FEE7FEE7FEE7FEE7FEE7FEE7FEE7FEE777
:10016000FEE7FEE7ED4C000831010008202A04DB21
:10017000203A21FA02F00021704721FA02F3D04020
:10018000C2F120029140084319467047A0F1610175
:10019000192900D82038704740EA01039B0703D093
:1001A00009E008C9121F08C0042AFAD203E011F8B6
:1001B000013B00F8013B521EF9D27047D2B201E078
:1001C00000F8012B491EFBD270470022F6E710B55C
:1001D00013460A4604461946FFF7F0FF204610BDB5
:1001E00030B505462A460B4612F8010B13F8014BB1
:1001F00008B1A042F8D01CB1002802D06D1CF1E774
:10020000284630BD10B5044604E00B7800F8013BE9
:1002100003B1491C521EF8D2204610BDCAB2401E7E
:1002200010F8011F8A4202D00029F9D1002070473E
:10023000421C10F8011B0029FBD1801A704710B531
:10024000002200E0521C835C8C5CA34201D1002B95
:10025000F8D1D8B2E1B2401A10BD034611F8012B13
:1002600000F8012B002AF9D11846704770B50F4DE0
:1002700000B92868002412E00A4602E09E4203D03A
:10028000521C1378002BF9D1DAB2224305D02BB1DE
:1002900024B1002100F8011B04E00446401C06784C
:1002A000002EE9D12860204670BD00009C0100208E
:1002B00070B5064605F040FE046805460A22002196
:1002C000304600F0F2F92C6070BD2DE9FE4F8046FB
:1002D00081EA0300C00F0C46009021F0004123F09A
:1002E0000045B8EB0200A94105D2404621469046A0
:1002F0001C460B46024623F00040104347D0270D12
:10030000C7F30A00C3F30A510290401A0190402833
:100310006BDAC3F3130040F4801B0098924620B1BF
:100320000023D2EB030A63EB0B0B01985946C0F193
:100330004002504600F098F906460D465046594690
:10034000019A00F0A0F910EB08006141002487EA4F
:10035000115284EAE7731A4340D0009A62B3019ABB
:10036000012A4FEA075215DC001B61EB02014FF036
:10037000004202EA0752CDE90042001C41F580111B
:1003800032462B4600F0D8F903B0BDE8F08F404666
:100390002146F9E7001B61EB0201001C41F58013C7
:1003A00000185B412018A2F5001747EB030140EA53
:1003B000D570B6196D4111E06D084FEA360645EA71
:1003C000C0754FEA0752001B61EB0201001C41F5AA
:1003D000801149084FEA30000019514132462B463E
:1003E00003B0BDE8F04F00F098B90098012240003A
:1003F0000023D0EB020263EBE073009821464FEA42
:10040000E074B8EB000061EB0401E9E783F000431E
:100410005BE781F0004158E72DE9FE4F81EA0304D4
:1004200004F0004421F0004100944FF0000B23F051
:10043000004350EA01045ED052EA03045BD0C3F3E8
:100440000A54C1F30A552C44A4F2F3340194A0FBDE
:100450000254C1F3130141F48011C3F3130343F4B5
:10046000801301FB024400FB034E840A970A44EA0E
:10047000815447EA8357A4FB076802958D0A05FB60
:1004800007854FEA932C04FB0C542705029D4FEA85
:10049000065847EA1637B5EB08056EEB070C870ED2
:1004A000920E47EA811742EA8312A7FB0201B6EBDC
:1004B0000B0164EB00042B0D43EA0C335E1844EB94
:1004C0001C50DA465146E7FB0201C5F313044FEA1C
:1004D0000B3343EA14534FEA0432019C43EA060308
:1004E000A4F10C040294009CCDE900B400F024F9BE
:1004F00003B0BDE8F08F00200146F9E72DE9F04D8B
:1005000081EA030404F0004B21F0004514464FF04B
:10051000000A23F0004150EA050220D054EA01020B
:100520001DD0C5F30A570246C5F31303C1F31300E8
:10053000C1F30A5640F4801543F48013A7EB060874
:10054000101BD64608F2FD3873EB050002D308F104
:10055000010801E092185B41B8F1000F03DA0020B6
:100560000146BDE8F08D00204FF480110646844618
:100570000EE0171B73EB050705D3121B63EB050396
:1005800006434CEA010C49084FEA300092185B41DF
:1005900050EA0107EDD152EA030012D082EA0400CA
:1005A00083EA0501084305D0101BAB4106D20122A6
:1005B000002306E000224FF0004302E06FF001024A
:1005C00053101AEB06004CEB085110EB0A0041EBFC
:1005D0000B01BDE8F04D00F0A0B830B50B46014668
:1005E00000202022012409E021FA02F59D4205D3D2
:1005F00003FA02F5491B04FA02F52844151EA2F17C
:100600000102F1DC30BD2DE9F05F05460020924685
:100610009B4688460646814640241BE028464146C4
:1006200047462246FFF7A2FD53465A46C01A91415B
:1006300010D311461846224600F016F82D1A67EB23
:1006400001084F4622460120002100F00DF817EB6B
:1006500000094E41201EA4F10104DFDC484631466A
:100660002A464346BDE8F09F202A04DB203A00FAE0
:1006700002F1002070479140C2F1200320FA03F3F9
:10068000194390407047202A06DBCB17203A41FAE5
:1006900002F043EAE07306E041FA02F3D040C2F10F
:1006A000200291400843194670472DE9F0479146D2
:1006B0000F4680460446002614F8015B2DB100F079
:1006C000CBF80068405DC007F6D12B2D02D02D2D50
:1006D00018D0641E4A463946204600F0C1F827B1BA
:1006E0003968A14201D1C7F8008071054FF00204BA
:1006F0000BD54042002803DD05F01EFC0460A00776
:10070000BDE8F08746F48066E4E70028F8DA05F0F3
:1007100013FC04606FF00040F2E710B5141E73F193
:10072000000408DA401C41F1000192185B411A43B1
:1007300001D120F0010010BD2DE9F04D92469B46FD
:1007400011B1B1FA81F202E0B0FA80F220329046A3
:10075000FFF78AFF04460F4640EA0A0041EA0B0110
:1007600053465A46084313D0114653EA010019D0A4
:10077000C8F140025046FFF7F9FC05460E465046C8
:1007800059464246FFF770FF084305D0012004E0B8
:1007900020463946BDE8F08D0020054346EAE07664
:1007A0002C4337430A986305E40AA0EB08000022B3
:1007B000FD0A44EA47540A3002D500200146E9E721
:1007C000010510196941DDE9084500196941BDE8D5
:1007D000F04DA2E7C1F30A52C1F3130140F2FF3317
:1007E00041F480119A4202DA00200146704740F23B
:1007F00033439A42A2F2334202DC5242FFF7B6BCC4
:10080000FFF732BF30B5041E71F1000404DB4FF076
:100810000044404264EB0101141E73F1000405DB47
:100820001C464FF00043524263EB0403994208BF59
:10083000904230BD064C074D06E0E06840F00103F1
:1008400094E8070098471034AC42F6D3FFF774FCE5
:10085000588F0008788F000800487047548F0008B0
:100860002DE9F05F82460078002715468B460AF195
:100870000104B946302801D09DB113E014F8010BF2
:100880000127782803D0582801D045B10AE00DB1DE
:10089000102D07D10027102514F8010B02E00825C0
:1008A00000E00A250026B0460EE005FB080005FB27
:1008B00006F1012701EB10461FFA80F8B6F5803FDC
:1008C00000D3B94614F8010B294600F018F80028A7
:1008D000EBDABBF1000F05D00FB1641E00E0544607
:1008E000CBF80040B9F1000F06D005F025FB02213E
:1008F0000160C81EBDE8F09F48EA0640FAE73A28C2
:1009000000D2303820F02002412A01D3A2F1370072
:10091000884201D34FF0FF30704770B58C1810F843
:10092000015B15F0070301D110F8013B2A1106D134
:1009300010F8012B03E010F8016B01F8016B5B1E4E
:10094000F9D12B0705D40023521E0DD401F8013B29
:10095000FAE710F8013BCB1A921C03E013F8015B95
:1009600001F8015B521EF9D5A142D8D3002070BD19
:10097000014801F08AB80000A401002070B50446C7
:1009800000688168C943C9071BD1816821F0010152
:10099000816001F01FFE05460EE001F01BFE401BCA
:1009A000022809D9A06A40F01000A062E06A40F075
:1009B0000100E062012070BD20688068C043C0076C
:1009C000EBD0002070BD10B50146406A826A12F07B
:1009D000500F05D0006A026BBDE810400846104772
:1009E000816A41F40071816201688968C1F3424102
:1009F00007290CD1017B51B9816A21F48071816290
:100A0000816AC90403D4816A41F00101816201F065
:100A100037F810BD10B5406A816A41F0400181622B
:100A2000C16A41F00401C16201F02CF810BD10B59B
:100A3000406A01F026F810BDF8B50026044600967D
:100A400000688168C943C90727D0816841F0010166
:100A50008160134813490068B0FBF1F000E0401ECC
:100A600000900028FBD101F0B5FD054610E001F033
:100A7000B1FD401B02280BD9A06A40F01000A06213
:100A8000E06A40F00100E06284F824600120F8BDD3
:100A900020688068C043C007E9D10020F8BD00008D
:100AA0002000002040420F00FEE7000010B51F4C60
:100AB000207840B1012828D0022803D1A08870B343
:100AC000401EA08010BDE088D8B16178A06830F8E1
:100AD000110003F0DDFC6078401CC0B26070A168BA
:100AE00031F81000124901EB101200F00F001278DB
:100AF0006280085CA08001202070E088401EE080B9
:100B000010BD00F017F8632007E0608810B1401EA8
:100B1000608010BD00F00EF80220207010BDFFE7CD
:100B20006078401C60700020F7E70000240000207F
:100B30008A8C00080021014802F08EBC2C020020A3
:100B4000002203E010F8013B1A4492B2491E89B218
:100B5000F8D2D0B2C0F1FF00704700007CB52F4D35
:100B600001262A4669792E48928A002469B1012912
:100B700031D002292ED16E706C716C812C7202B052
:100B80000022BDE8704001F020BD002A22D10122E0
:100B9000022101F01AFD6C812C72224CB4F866100F
:100BA00094F86500CDE9000194F8643094F863206E
:100BB00014F8621F1CA006F0D7FCA188E078CDE9EC
:100BC0000001A3786278217817A006F0ADFCFA2026
:100BD000A8826E717CBD287A88B11CA11D48FFF7E0
:100BE000FFFA20B91CA11B48FFF7FAFA20B1032035
:100BF000A88202206871EC716C812C727CBD002A85
:100C0000FCD16C812C726C71E879401CC0B2E87127
:100C10000328F3D32C706C717CBD0000D800002039
:100C2000000C0140100A002041542B4349505354FA
:100C30004152543D22544350222C2225642E2564D7
:100C40002E25642E2564222C25640A00434F4E4E27
:100C500045435400281D00204F4B0000F8B50F46B7
:100C60000446002606221E490920009604F02EFFA5
:100C70001B4D28786978EA780843A978114308431E
:100C800029790843697908430CD12E7008206870CF
:100C9000DC20A870EE702E716E71062229460920A4
:100CA00004F06EFF20460E4C0E49403CA070E763F6
:100CB000E878421829798B186A79484013445040E3
:100CC0001844A063042269460F2004F059FF04224F
:100CD0006946012004F054FF07F02CF82670F8BD97
:100CE00080010020785634122DE9F041464C2078DE
:100CF000062822D0A07840F2034101EB002004F046
:100D0000C5FE222805D0002344220221A07807F046
:100D100047FC012506F048FC3B4994F90030C91D09
:100D2000002601270A1FC0B24FF00308052B2FD25F
:100D3000DFE803F0060D1C304A000520BDE8F08115
:100D40000E704E708E70CE7007F00EF95AE00228C9
:100D50001BD1E06B027C0A70427C4A70827C8A70F4
:100D6000C07CC87007F0E4F902202BE005280AD106
:100D700005F044FD08B1606A3CE006F0DBFFE06A84
:100D80008047267004E006283AD005F069FD054644
:100D90002846D3E7A0690425431CF9D0E369B3EBE7
:100DA000500FF5D908781070487850708878907096
:100DB000C878D070A06B401CA06307F0B9F906F0AA
:100DC000B9FF04202070E3E704250528DBD1667015
:100DD00010780B7898420BD150784B78984207D115
:100DE00090788B78984203D1D078C978884202D025
:100DF000A06A0325804706F09DFF84F80080C7E7BE
:100E000006F098FF2770C3E74001002010B5034C9F
:100E1000A07805F071FD0620207010BD4001002073
:100E2000014801F02FB800008C03002030B590F885
:100E300040500124AC40C56B6C600468636043683B
:100E4000102B036803D099600068C26030BD9A60BF
:100E50000068C16030BD00002DE9FC411C49032041
:100E600000F084F81B4A02F11B01481F00F088F8CB
:100E7000184D0126A5F10C04002802DD667016A0AD
:100E80000CE00027401C20D0124A02F11B01101F69
:100E900000F076F8002810DD667014A006F044FB20
:100EA000E978A878CDE900010A496B782A781B31E6
:100EB00013A006F039FBBDE8FC81401C05D067702B
:100EC00017A0BDE8FC4106F02FBB677018A0F8E73B
:100ED0001E0D0020A40000203E2031737420444EDB
:100EE0005320526573706F6E640A00003E20326EAC
:100EF0006420444E5320526573706F6E640A000084
:100F0000446F6D61696E206E616D65203D202573B3
:100F10002C2025642E25642E25642E25640A0000CD
:100F20003E20444E53204661696C65640A0000000F
:100F30003E204D41585F444F4D41494E5F4E414D1B
:100F40004520697320746F6F20736D616C6C2E2067
:100F500053686F756C6420626520726564656669AC
:100F60006E65642069742E0A00000000034A107048
:100F700041F2221051605080704700009001002023
:100F80002DE9F04380460020234D89B091466870DA
:100F90000C4603460246A8600221287807F000FBB1
:100FA0004FF480773B46214600206A6806F03EF801
:100FB000352682B24346009629E0287806F0D6F816
:100FC000040017D0BC4200D93C4607A8009006ABED
:100FD00022462878696806F071FD4A4601A86968CA
:100FE00006F0C0FB0446287805F086FC204609B0D0
:100FF000BDE8F08305F06CFC002804DA287805F0E1
:101000007BFC0020F3E7D8D143462246009628789F
:10101000696807F0D7F9D0E7900100207047000019
:101020002DE9F0411A4DE87800282BD000F09AFB0A
:101030002878184E002790B1A87858B1A88848B1F0
:10104000002404E0305D03F099FC641CA4B2A8887D
:101050008442F7D310A006F067FAAF7010E0A888BA
:1010600013280BD1B07A4D2808D1F07A432805D146
:10107000307B472802D1707B572805D004F05EFCF6
:10108000EF70AF80BDE8F08104F01AFCF8E70000D3
:1010900030000020F00300200A4D63546563683E71
:1010A0000000000070B55E488178C078B9B15D4934
:1010B000097800296ED004284BD200221221104654
:1010C00003F056FB00221221012003F051FB002205
:1010D0001221022003F04CFB002212219BE0062883
:1010E00037D2DFE800F060036D16283700220521B3
:1010F000104603F03DFB00221821012003F038FBCD
:1011000000220A2182E0022003F032FB0122182192
:1011100081E000220E21104603F02AFB0022182154
:10112000012003F025FB00221721022003F020FB01
:10113000012219216FE03C4D002428190022807AF9
:101140003038C1B2204603F013FB641CE4B2042C17
:10115000F3D370BD00221221032003F009FB002409
:10116000324D0BE0285D2D280ED080B13038C1B251
:101170000022204603F0FCFA641CE4B22B48FFF77F
:1011800057F8A042EED870BD00221021F1E70022EE
:101190001221EEE70628F6D2DFE800F0050412037C
:1011A0001F2CB6E7A2E700220121104603F0E0FA67
:1011B00000221121012003F0DBFA00220121A2E725
:1011C00000220521104603F0D3FA00221421012049
:1011D00003F0CEFA00220F2195E7002205211046E8
:1011E00003F0C6FA00220E21012003F0C1FA00220A
:1011F00019210BE000221921104603F0B9FA002250
:101200000521012003F0B4FA00220521022003F099
:10121000AFFA01221146BDE87040032003F0A8BADE
:10122000F40000204C000020100A00201E1D0020A9
:1012300010B500220521104603F09AFA00221A2167
:10124000012003F095FA01221146022003F090FAE2
:1012500000220621032003F08BFA03F097FABDE881
:1012600010404FF4FA7000F0A7BF70470649002005
:10127000C8610648016941F004010161016941F05A
:101280004001016170470000D003002000200240AF
:10129000064A0021D16106490A6942F002020A6148
:1012A0004861086940F0400008617047D0030020A1
:1012B00000200240044B0022DA61044A136943F023
:1012C0000103136101807047D00300200020024019
:1012D00014490020CA68D306134A04D5D06940F0E7
:1012E0000200D0611020CB685B0705D5D36943F0BD
:1012F0000103D36140F00400CB69DB0707D0D36959
:1013000043F00403D361CA6922F00102CA61A0F567
:101310008072013A01D0C8607047C86920F00100AE
:10132000C861704700200240D003002070B5044619
:1013300001F050F90546114E09E0601C07D024B1B8
:1013400001F048F9401BA04201D9032070BDF068AC
:10135000C007F2D1F068800601D52020F060F06867
:10136000C00605D4F069C00702D1F068400703D574
:10137000FFF7AEFF012070BD002070BD00200240CD
:1013800030B5B3F5804F05D06FF0704140F82210B2
:10139000002030BD8C690B688D6823434C688989B7
:1013A000240144EA0524234343EA014150F8223052
:1013B000014C23401943E9E70000F0CF10B50A685B
:1013C00050F8223023F0010340F822308B68082BBC
:1013D00023D000224C681C43CB6813430A691C438A
:1013E00014434A698B691443CA6914430A6A144353
:1013F0004A6A14438A6A1443CA6A14430A6B144340
:101400004A6B234309681A43054C50F82130A34323
:10141000134340F82130002010BD4022DAE70000DD
:101420007FFF0F0030B5D1E9003443EA04138C6824
:101430008D89240244EA054423430C8A094D00EBBC
:10144000820005EB045423430C7D6D0105EB04641D
:10145000896923430B43416801F040410B434360DA
:10146000002030BD0000F0FF2DE9F04786B05F4E50
:1014700000255D4F049537603068006870607068C3
:10148000DFF864815A4C08F17408401C04D07420C1
:10149000706041F68C7188E074215548FEF795FE26
:1014A00054A1201D2560FEF7D8FE514854A11030EC
:1014B000FEF7D3FE4E4854A12430FEF7CEFE4C4832
:1014C00054A13830FEF7C9FE494855A14C30FEF70B
:1014D000C4FE41F2883024F8600FDD20A0708F2018
:1014E000E070282020711A20607142F22830E080DC
:1014F000257265728020A072E5720A202073DC20BC
:1015000060735720A073F720E073882020746574FF
:1015100072B6603C00F002FF44493420C860756038
:101520004FF001094FF4005A12E00095706804A9C9
:101530003844CDE90209684600F050FE20B100F0C1
:10154000A1FE62B63AA015E0706800F50060706018
:1015500070685045E9D34546F46016E0F0680268CB
:1015600031680023022000F097FE40B100F08AFEAF
:1015700062B635A005F0D8FF06B0BDE8F087306848
:10158000001D3060F068001DF0603068A842E5D3AF
:1015900000F078FE62B621E07068C059B060B068B3
:1015A000401C70680AD07430706070688842F3D351
:1015B000F46070683844306042460AE07438706005
:1015C000F6E730680168F06802C03168091D3160D3
:1015D000F0603068716811448842F2D3204994F871
:1015E00068000870C8E7000000C003083C00002045
:1015F000100A0020303030303030303032360000C9
:10160000697074696D6500003033323530383230BE
:10161000343700004D434757303030323600000039
:10162000736F6C6172313030300000000020024076
:10163000466C617368204572617365204572726FF4
:101640007221210A00000000466C6173682050720C
:101650006F6772616D204572726F7221210A0000FE
:10166000F70000202DE9F04786B02D4D00270597A3
:101670002C4E28683044009072B600F04FFE2A4984
:101680003420C8602949DFF89C800098A8F17408CC
:1016900088421FD3264C67604FF001094FF4005A6F
:1016A00013E00197616801EB0800CDE9030905A982
:1016B00001A800F093FD20B100F0E4FD62B61DA08A
:1016C0001BE0606800F50060606060685045E8D32A
:1016D0002F6002E02868743028602968104C01EB04
:1016E0000800009012E022680023022000F0D4FDE0
:1016F00040B100F0C7FD62B614A005F015FF06B0BA
:10170000BDE8F0870098001D241D0090286800990E
:1017100030448842E7D800F0B5FD62B6EFE700003C
:10172000100A002074C003080020024030DE0308C5
:101730003C000020466C617368204572617365202F
:101740004572726F7221210A00000000466C6173BD
:10175000682050726F6772616D204572726F7221DE
:10176000210A00002DE9F041224D234C0026A988D2
:10177000601810F8010C08280DD07F280BD0012725
:10178000FF291BD80D2819D01B2826D0EE70BDE8E4
:10179000F04103F0A5B8EE7001290BD9891E88B27B
:1017A000A8802654082003F09BF8202003F098F826
:1017B0000820ECE7AE802670BDE8F081EF700D20C8
:1017C00003F08EF80A2003F08BF8AF70A888211878
:1017D000401E01F8016CA880EEE7EF700D2003F0C9
:1017E0007FF80A2003F07CF8AF702670AE802E7070
:1017F000E2E7000030000020F00300202DE9F04176
:10180000264F387970B1012813D1387A4FF00A0881
:10181000002680B322487989465422A1FEF726FD8E
:10182000012411E020A005F09FFE0220B8820120D3
:101830003871BDE8F081641CE4B21AA10020FEF703
:1018400015FD0546042C07D00028F4D1A7F8188010
:101850003E727E813E71ECE7FEF7EAFC0228F5D38A
:1018600000240BE0285D2D2806D0302801D9392826
:1018700002D32E5507E00CE0641CE4B22846FEF7C4
:10188000D7FCA042EED8064829460A38FEF7E5FC08
:10189000DCE7B88A0028D9D0CBE70000D8000020C8
:1018A000281D00202C00000041542B43574A415072
:1018B0005F4355523F0A0000F8B5002604460096E3
:1018C00090F82400012808D0012084F82400204644
:1018D000FFF754F8070002D04BE00220F8BDA06AE1
:1018E00020F4885040F00200A062022000F0AEFF19
:1018F00022490968B1FBF0F0400000E0401E009072
:101900000028FBD12046FFF797F82068816841F056
:101910000801816000F05EFE054604E000F05AFE1A
:10192000401B0A2811D8206880680007F6D4206878
:10193000816841F00401816000F04CFE05460EE034
:1019400000F048FE401B0A2809D9A06A20F00200D6
:1019500040F01000A06284F824600120F8BD2068E7
:1019600080684007ECD4A06A20F0020040F001003B
:10197000A06284F824603846F8BD000020000020F2
:1019800070470000F8B50023009390F824201C460F
:10199000012A12D0012280F824204A681F26072A33
:1019A0000DD205686F6B521E02EB82029640B74360
:1019B0000E68964037436F6319E00220F8BD056852
:1019C0000D2A0AD22F6BD21F02EB82029640B74338
:1019D0000E68964037432F6309E0EF6A0D3A02EB39
:1019E00082029640B7430E6896403743EF620A681A
:1019F000072605680A2A0AD3EF680A3A02EB420270
:101A00009640B7438E6896403743EF6008E02F69F1
:101A100002EB42029640B7438E68964037432F61EF
:101A20000A68102A01D0112A20D1124D0268AA4258
:101A300017D195682D0219D4956845F40005956075
:101A40000968102912D10C490C4A0968B1FBF2F15E
:101A500001EB8101490000E0491E00910029FBD102
:101A600004E0816A41F020018162012380F8244072
:101A70001846F8BD002401402000002040420F001D
:101A8000704770477047806A704710B50446006819
:101A90004168890626D50168890723D5A16AC90648
:101AA00003D4A16A41F40071A1628168C1F342418B
:101AB000072910D1217B71B9416821F020014160D3
:101AC000A06A20F48070A062A06AC00403D4A06A57
:101AD00040F00100A0622046FFF7D2FF21686FF0BE
:101AE000120008602068416809062ED50168490780
:101AF0002BD5A16AC90603D4A16A41F40051A162A1
:101B00008168C1F30231072909D04168490515D41C
:101B10008168C1F34241072910D1217B71B9416825
:101B200021F080014160A06A20F48050A062A06A88
:101B3000C00503D4A06A40F00100A0622046FFF770
:101B40001FFF21686FF00C0008602068416849069B
:101B50000DD50068C0070AD0A06A40F48030A062AA
:101B6000204600F095F821686FF00100086010BD74
:101B70002DE9F04104004FF000057FD0A06A002657
:101B800028B9E66284F82460204600F083F82046F5
:101B9000FEF7F4FEA16AC90600D420B1A06A40F0A5
:101BA0001000A0626AE0A16A21F4885141F00201AC
:101BB000A162334923688B42E16904D1B1F5402F1A
:101BC00001D14FF40021277B4FF4807C41EA47028A
:101BD00061680A43A168614508D0012906D0002147
:101BE00094F814E0BEF1010F02D00AE06146F7E775
:101BF000C7B1A76A47F02007A762E76A47F0010765
:101C0000E7625F6827F469470F435F6021688B686C
:101C10001C4F3B4013438B60A16861450BD00129E9
:101C200009D00CE0DFF860E0A7690EEB47370F43FF
:101C300047F40061E5E7218A0D05A5F580152168C7
:101C4000CB6A23F470032B43CB62216889680F4B66
:101C50001940914208D1E662A16A21F0020141F0E7
:101C60000101A162BDE8F081A06A20F0020040F00D
:101C70001000A062E06A40F00100E0620120F1E79C
:101C8000003C0140FDF7E1FF00E0FFFFFE0E1FFFFB
:101C90007047000038B505460068174988422AD1C8
:101CA0001648816941F4007181618069154C00F426
:101CB000007000901248206000206060A0608020CA
:101CC000E06040002061C00060612020A06100024F
:101CD000E061204600F0FAF908B1FFF7C6FA2C627D
:101CE000002211461220656200F07EFDBDE83840FA
:101CF000122000F06CBD38BD0024014000100240ED
:101D0000080002408C0300202DE9F0478946044674
:101D10003B4900683B4F0E1D9046884201D0B842B7
:101D200007D1306810F4702F03D001252846BDE894
:101D3000F08794F8240001280CD0012084F82400B6
:101D40002046FEF779FE05004FF0000104D084F82C
:101D50002410EBE70220EAE7A06A40F60162904314
:101D600040F48070A0622068B84218D1326812F442
:101D7000702F14D0A06A40F48010A0623068400533
:101D800005D5A06A20F4005040F48050A062A06AFB
:101D9000C0040AD5E06A20F00600E06206E0A26A0C
:101DA00022F48012A2624068E9E7E16284F824101C
:101DB000216A15488862216A1448C862216A144859
:101DC000086321686FF0020008602068816841F4B0
:101DD00080718160216843464A464C31206A00F098
:101DE000B3F920688168C1F342410729816803D0B3
:101DF00041F48011816099E741F4A001FAE7000005
:101E00000024014000280140C70900082F0A0008EB
:101E1000150A000830B502234371002304E0056869
:101E200051F823402C605B1C9342F8D30168096889
:101E300001224271084630BD10B5040002D060791D
:101E400010B106E0012010BD00202071204600F0F6
:101E500005F801206071002010BD000008B5006881
:101E60000649884208D10648416941F04001416174
:101E7000406900F04000009008BD000000300240C2
:101E8000001002402DE9F05FC16B0B6801680A6821
:101E9000046C4FF0040808FA04F8844D844E854F12
:101EA000DFF814C2DFF81492DFF814A2DFF814B2DE
:101EB000DFF814E218EA030F65D05FEA427862D5D2
:101EC0000A68920603D40A6822F004020A60DFF866
:101ED000F0814FF48062016808F1140813011402C4
:101EE000414524D9A9420DD0B1420FD0B9421AD0F0
:101EF000614515D0494515D0514501D1120312E075
:101F0000594501D104220EE0714501D140220AE079
:101F10006D4D1435A94206D06B4A2832914201D149
:101F20001A4600E022466749091F0A6029E0A942D3
:101F300013D0B14215D0B94220D061451BD04945DC
:101F40001BD0514502D14FF4800217E0414502D128
:101F50004FF0806212E0594501D104220EE0714534
:101F600001D140220AE0584D1435A94206D0564A04
:101F70002832914201D11A4600E022464B490839E5
:101F80004A60C16A71E04FF0020808FA04F818EAE2
:101F9000030F70D05FEA82786DD50A68920606D486
:101FA0000A6822F00A020A60012180F82110DFF895
:101FB00010814FF40072016808F114081301140233
:101FC000414524D9A9420DD0B1420FD0B9421AD00F
:101FD000614515D0494515D0514501D1120312E094
:101FE000594501D102220EE0714501D120220AE0BB
:101FF000354D1435A94206D0334A2832914201D1D9
:102000001A4600E022462F49091F0A6029E0A9422A
:1020100013D0B14215D0B94220D061451BD04945FB
:102020001BD0514502D14FF4001217E0414502D1B7
:102030004FF0007212E0594501D102220EE07145C5
:1020400001D120220AE0204D1435A94206D01E4AB3
:102050002832914201D11A4600E02246134908393C
:102060004A60002180F82010816A00291CD0BDE858
:10207000F05F0847FFE70825A5401D4214D012076E
:1020800012D50A6822F00E020A6090F84020C36B55
:10209000012101FA02F25A60816380F821100021C7
:1020A00080F82010016BE0E7BDE8F09F08000240D7
:1020B0001C00024030000240440002405800024030
:1020C0006C000240080402401C04024030B560B1BC
:1020D0001A4B01681422994209D2194B0B44B3FBE5
:1020E000F2F292000264174A0AE0012030BD134B5D
:1020F0005B420B44B3FBF2F2920002640F4A083ACF
:10210000C263022280F821200A6843F6F0739A43E2
:10211000F0E901342343D0E902452C432343046909
:102120002343446923438469234313430B60002101
:102130004163012242770177084630BD080402401E
:10214000F8FFFDBF0000024070B5044690F8200083
:10215000002501280CD0012084F8200094F821608B
:102160000020012E06D084F820000225284670BDEC
:10217000022070BD022684F82160A06320680668F2
:1021800026F0010606602046FEF750FEE06A0028B1
:102190002068016802D041F00E0106E021F0040140
:1021A00001602068016841F00A010160206801684F
:1021B00041F001010160D9E770B5044600F00AFA68
:1021C0000546601C02D004480078044400F002FA7E
:1021D000401BA042FAD370BD100000202DE9F0474B
:1021E000054626480F460126017E01290FD0012110
:1021F000814601762868DFF888804CF25034022846
:1022000008D0A2462046FFF791F8A8B131E002209D
:10221000BDE8F0872046FFF789F808BB0120FFF7EB
:1022200025F82046FFF782F8D8F81010064621F06E
:102230000401C8F810101CE04FF0FF303860AC68A3
:1022400011E02046FFF724F85046FFF76FF8D8F862
:102250001010060021F00201C8F8101001D03C60F7
:1022600007E004F50064D5E9020100EBC120A042BB
:10227000E7D8002189F818103046C9E7D0030020BC
:10228000002002400348016941F080010161002003
:1022900070470000002002402DE9F05F05461D4810
:1022A00088460024017E16461F46012909D00121D7
:1022B000814601764CF2503A5046FFF737F818B194
:1022C00023E00220BDE8F09F012D02D0022D00D0B6
:1022D0000425D346DFF840A015E0220130463946F8
:1022E000FDF744FF81B208EB4400FEF7E3FF5846D8
:1022F000FFF71CF8DAF8102022F00102CAF81020CB
:1023000018B9641CE4B2AC42E7D3002289F8182063
:10231000D8E70000D003002000200240064900203A
:102320000A69120607D5054A4A60054A4A600969E2
:10233000090600D5012070470020024023016745AF
:10234000AB89EFCD30B585B00020009001900290B0
:10235000039016480168002926D101210160144824
:10236000416941F4807141614069022400F4807048
:1023700004904FF4F060CDE900040325694603950D
:102380000C4800F01DF84CF2B300CDE9000469469A
:102390000395094800F014F88020CDE9000469464F
:1023A0000395064800F00CF805B030BD0800002089
:1023B000001002400018014000140140000C0140D0
:1023C0002DE9F84FDFF8C091002409F1040A0AF161
:1023D000040B23464FF00F080BF1040ECCE001274D
:1023E000A7403A40BA4272D1DFF8A0C14D68A5EBD0
:1023F0000C0665452BD00DDC032D34D005DC35B340
:10240000012D19D0022D2FD11BE0112D16D0122D28
:102410002AD119E0B6F5881F19D006DCB6F5803F41
:1024200015D0B6F5801F1FD111E0B6F5001F0ED0F4
:10243000B6F5041F18D10AE0CB6815E0CB681B1D68
:1024400012E0CB6808330FE0CB680C330CE08B68EC
:102450002BB1012B4FF0080303D0476104E00423A4
:1024600002E0076100E00023FF2A01D8064601E0F0
:1024700000F104064FEA840501D9A5F1200537686B
:1024800008FA05FC27EA0C0703FA05F547EA0507F1
:1024900037604D68ED006ED53D4DAE6946F00106E2
:1024A000AE61AD6924F0030605F001050095394DD4
:1024B0007719BE68A5072D0F08FA05FC26EA0C0659
:1024C000DFF8D4C0604503D14FF0000C25E052E0A6
:1024D000DFF8C8C0604502D14FF0010C1DE0DFF805
:1024E000C0C0604502D14FF0020C16E0DFF8B4C066
:1024F000604502D14FF0030C0FE0DFF8ACC060453F
:1025000002D14FF0040C08E0DFF8A0C0604502D112
:102510004FF0050C01E04FF0060C0CFA05FC4CEAFC
:10252000060CC7F808C04D68D9F80060ED034D46A9
:1025300001D5164300E096432E604D68DAF800603E
:10254000AD03554601D5164300E096432E604D6815
:10255000DBF80060ED025D4601D5164300E09643CE
:102560002E604D68DEF80060AD02754601D5164359
:1025700000E096432E60641C0A6832FA04F57FF48A
:102580002EAFBDE8F88F00000004014000001110DC
:10259000001002400000014000080140000C014012
:1025A000001001400014014000180140001C0140CF
:1025B0008068084000D001207047C26821EA020309
:1025C0000A4043EA0241016170470AB10161704764
:1025D0000904FBE7014880687047000010000020F4
:1025E0000248816802781144816070471000002021
:1025F000074810B5016841F010010160032000F0A8
:1026000013F9002000F006F800F024F8002010BDB7
:102610000020024070B50D4D04464FF47A712878C1
:10262000B1FBF0F00A490968B1FBF0F000F0FEFCE4
:1026300048B9102C07D200222146501E00F0D4F8D1
:1026400000206C6070BD012070BD000010000020F3
:10265000200000200C4808B5816941F0010181612A
:10266000816901F001010091C16941F08051C161AE
:10267000C069064900F080500090486820F0E06092
:1026800040F00070486008BD0010024000000140AA
:102690002DE9F04116460F46040004D094F841009D
:1026A000002518B107E00120BDE8F08184F8405012
:1026B000204600F04DF804F108012068FEF77EFE88
:1026C0003946A2682068FEF7ADFED4E90102314622
:1026D000236BFEF755FEA168206850F8212042F0D8
:1026E000010240F82120194A61690120F1B110600E
:1026F00084F84100A068D8B102281CD004281DD05D
:102700004FF0D8401168982301291AD000F15501E3
:102710000B80BFF34F8F1168012915D0133000884B
:1027200060642046BDE8F04100F014B81560DFE7B2
:102730004FF0C040E6E74FF0C840E3E74FF0D0402D
:10274000E0E700F1AA01E3E72630E8E71C000020FB
:10275000FFF7F8BD10B590F841200023022A24D0DD
:10276000012A03D0042A01D0012010BD90F84010A6
:1027700001291AD0012180F84010022180F841106F
:102780008168A1B1022915D0042916D04FF0D84193
:10279000446C022C14D0012C14D0012380F8412069
:1027A000002180F84010184610BD022010BD4FF0E7
:1027B000C041EDE74FF0C841EAE74FF0D041E7E70D
:1027C000F02400E0FF240C80BFF34F8FE6E70028E1
:1027D00009DB00F01F02012191404009800000F157
:1027E000E020C0F800117047F0B40E4B1B68C3F333
:1027F0000223C3F10704042C00D904241D1D072D56
:1028000001D2002300E0DB1E012606FA04F56D1E4E
:102810000D409D409E40761E164045EA0601F0BCE4
:1028200003F07ABB0CED00E0064A00F007011068E7
:102830004FF6FF03184040EA0120034908431060A7
:10284000704700000CED00E00000FA0510B50146ED
:102850002BA086B01DC88DE81D002DA02D4C006852
:102860000490002004292FD00BDC01292FD002294D
:1028700028D100F075F96168C1F38131491C490024
:102880001EE0082920D010291CD161682268D201DD
:1028900018D5C1F38342C9031DF8020009D5616848
:1028A00004AAC1F34041515C1B4AB2FBF1F1484319
:1028B00001E01A4948436168490203D440000321FA
:1028C000B0FBF1F006B010BD00F05AF9FAE7226A49
:1028D000C2F30121012903D1920701D5C803F1E711
:1028E000022905D1626A920702D549F64040E9E71C
:1028F0000329E7D121688903E4D54FF22440E1E7B9
:1029000002030405060708090A0B0C0D0E0F101030
:10291000010200000010024000127A0000093D0090
:102920002DE9F84304460078344FC00752D0F869C7
:102930000025C00008D4F86940F08050F861F869BB
:10294000012500F0805000902D480168C90511D480
:102950000168804641F480710160FFF73BFE064646
:1029600004E0FFF737FE801B642822D8D8F8000067
:10297000C005F6D5386A10F4407020D0A18801F463
:10298000407181421BD0386A1E49012220F44070F8
:102990000A6000220A603862C00710D0FFF71AFEF2
:1029A000064641F2883807E0FFF714FE811B4145D7
:1029B00002D90320BDE8F883386A8007F4D5386A65
:1029C000616820F44070084338621DB1F86920F056
:1029D0008050F8612078800705D57868A16820F4D8
:1029E0004040084378602078C00605D57868616962
:1029F00020F48000084378600020DBE700100240EC
:102A000000700040400442422DE9F0470D460400AA
:102A100067D0DFF81881D8F8000000F00700A8425E
:102A20000CD2D8F8001021F007012943C8F8001093
:102A3000D8F8000000F00700A84252D120683C4EB0
:102A4000810712D5400703D5706840F4E0607060DC
:102A50002078000703D5706840F46050706070689B
:102A6000A16820F0F000084370602078C00727D0EC
:102A70006068012810D03168022810D08907002929
:102A80002FDA716821F0030101437160FFF7A2FDA5
:102A9000074641F288390CE031688903EFE7890184
:102AA000EDE7FFF797FDC11B494502D90320BDE8BB
:102AB000F0877068616800F00C00B0EB810FF0D116
:102AC000D8F80010404601F00701A9420BD901686F
:102AD00021F0070129430160006800F00700A842C7
:102AE00001D00120E3E72078400705D57068E16850
:102AF00020F4E060084370602078000706D5706815
:102B0000216920F4605040EAC100706000F038F89C
:102B10007168084AC1F30311515CC8400649086056
:102B200006480068FFF776FD0020C0E7002002405D
:102B300000100240568C00082000002014000020E5
:102B40000448054900684968044AC1F30221515C00
:102B5000C84070472000002000100240668C00082A
:102B60000448054900684968044AC1F3C221515C20
:102B7000C84070472000002000100240668C00080A
:102B800012A085B00FC88DE80F0014A0144B006888
:102B900004905968134801F00C02042A10D0082A46
:102BA0000ED1C1F38342C9031DF802000AD559684A
:102BB00004AAC1F34041515C0A4A5043B0FBF1F012
:102BC00005B0704708494843FAE7000002030405CE
:102BD000060708090A0B0C0D0E0F10100102000069
:102BE0000010024000127A0000093D002DE9F84F64
:102BF00004006FD02078BE4DC00747D06868C0F38E
:102C00008100012807D06868C0F38100022809D13B
:102C10006868C00306D52868800337D56068002837
:102C2000E7D033E06068B0F5803F0BD010B1B0F56D
:102C3000A02F11D0286820F480302860286820F464
:102C4000802002E0286840F480302860606888B105
:102C5000FFF7C0FC064609E0286840F480202860A1
:102C6000F0E7FFF7B7FC801B642873D8286880035F
:102C7000F7D50BE0FFF7AEFC064604E0FFF7AAFC31
:102C8000801B6428F1D828688003F7D42078DFF807
:102C9000648280074FF0010A4FF0000939D5686857
:102CA00010F00C0F07D06868C0F38100022809D12A
:102CB0006868C00306D42868800714D520690128F5
:102CC00008D110E02069B0B1C8F800A0FFF782FC7D
:102CD000064605E007E1FFF77DFC801B0228C4D80B
:102CE00028688007F7D52868616920F0F80040EA75
:102CF000C10028600DE0C8F80090FFF76BFC0646A5
:102D000004E0FFF767FC801B022823D828688007AF
:102D1000F7D4207800072CD57748A169D9B1C0F83D
:102D200000A0FFF757FC064604E0FFF753FC801BAA
:102D300002280FD8686A8007F7D570484FF4FA5117
:102D40000068B0FBF1F0009000BF0098411E0091B8
:102D5000FAD20EE07CE0C0F80090FFF73BFC06469C
:102D600004E0FFF737FC801B022871D8686A8007EF
:102D7000F7D4207840075BD5E8690027C00008D465
:102D8000E86940F08050E861E869012700F0805070
:102D900000905B480168C90511D40168834641F47D
:102DA00080710160FFF716FC064604E0FFF712FC95
:102DB000801B64284CD8DBF80000C005F6D5E0681D
:102DC00001280AD008B1052813D0286A20F0010094
:102DD0002862286A20F0040002E0286A40F001001E
:102DE0002862E06841F2883B88B1FFF7F3FB0646B2
:102DF00009E0286A40F004002862EEE7FFF7EAFBEA
:102E0000811B59455BD8286A8007F7D50BE0FFF78F
:102E1000E1FB064604E0FFF7DDFB811B59454ED878
:102E2000286A8007F7D41FB1E86920F08050E86174
:102E3000E069A8B36968C1F38101022946D002287C
:102E4000484606D0C8F86000FFF7C4FB044639E0E6
:102E500035E04746C8F86000FFF7BCFB064604E0D3
:102E6000FFF7B8FB801B022829D828688001F7D417
:102E7000206AB0F5803F05D16868A16820F4003071
:102E800008436860D4E908010843696821F47411B3
:102E900008436860C7F860A0FFF79CFB044605E0A4
:102EA00023E0FFF797FB001B022808D82868800161
:102EB000F7D51AE0FFF78EFB001B022802D903208A
:102EC000BDE8F88F28688001F4D40EE00128F7D01F
:102ED0006868226A00F48031914204D1616A00F48A
:102EE0007010884201D00120EAE70020E8E70000E6
:102EF00000100240000042428004424220000020B4
:102F00000070004070B5040009D0606A002540B12F
:102F100025616561A56294F8510040B10CE0012083
:102F200070BD6068B0F5827FF4D0E561F2E784F8A7
:102F30005050204600F040F8022084F851002068EC
:102F4000016821F040010160A088218900F48270AD
:102F500001F404410843A18901F400610843217C84
:102F600001F002010843217D01F001010843218B9A
:102F700001F400710843217F01F03801084394F8FF
:102F8000201001F080010843218D01F40051084315
:102F900021680860A069042101EA104021684860A6
:102FA0002068C16921F40061C1616565012084F870
:102FB0005100002070BD000030B585B000240094A1
:102FC00001940294039400681549884225D115485C
:102FD000C16941F48041C161C16901F4804104913A
:102FE000816941F00801816180690F4D00F008009E
:102FF00004904FF4204000900220019003200390A1
:1030000069462846FFF7DCF94FF48040CDE900041B
:10301000694628460294FFF7D3F905B030BD000099
:103020000038004000100240000C014010B5401E66
:10303000B0F1807F01D3012010BD4FF0E02460612A
:103040000F21601702F068FF0020A06107202061B7
:10305000002010BD70B590F83C20012A2CD001252D
:1030600080F83C50022280F83D2002685368946842
:1030700023F070060B6833435360104B02689A428A
:103080000ED00F4B9A420BD0B2F1804F08D00D4BAF
:103090009A4205D00C4B9A4202D00C4B9A4204D172
:1030A000496824F080031943916080F83D50002165
:1030B00080F83C10084670BD022070BD002C014015
:1030C000003401400004004000080040000C0040B3
:1030D00010B5040003D094F83D0010B107E00120C2
:1030E00010BD002084F83C00204600F01FF80220AC
:1030F00084F83D00211D206801F074FE012084F851
:10310000460084F83E0084F83F0084F8400084F8CC
:10311000410084F8420084F8430084F8440084F8B5
:10312000450084F83D00002010BD000008B500688F
:103130000649884208D10648C16941F00401C161CD
:10314000C06900F00400009008BD000000080040C5
:103150000010024070B5044690F83C00012817D0DA
:10316000012584F83C50022084F83D0020688268E4
:1031700022F0770222F47F4282600868502830D023
:103180000DDC20284DD005DC98B310283BD148E059
:10319000022070BD302844D0402834D139E0602866
:1031A00028D0702806D0B0F5805F2CD0B0F5005F35
:1031B00029D10AE0CB68D1E90121206801F065FE40
:1031C0002068816841F0770109E0CB68D1E90121ED
:1031D000206801F05AFE2068816841F480418160D6
:1031E00011E0CA684968206801F024FF5021206876
:1031F00007E016E0CA684968206801F02CFF6021EA
:10320000206801F04CFE84F83D50002084F83C001A
:1032100070BDCA684968206801F00CFF4021206831
:10322000EFE7226801461046EBE7000000B585B0E5
:103230000021009101910291039100680B4988429D
:1032400011D10B48816941F00801816180696946AB
:1032500000F00800049040200090022001900390AC
:103260000448FFF7ADF805B000BD000000080040BD
:1032700000100240000C014070B5044690F83C007C
:103280000D4601280AD0012084F83C0042B1042AEE
:1032900018D0082A2AD00C2A4DD139E0022070BD5E
:1032A000206801F005FE2068816941F00801816114
:1032B0002068816921F004018161206881692A699F
:1032C000114311E0206801F023FE2068816941F478
:1032D000006181612068816921F4806181612068D9
:1032E00081692A6941EA0221816124E0206801F0B4
:1032F00045FE2068C16941F00801C1612068C169CB
:1033000021F00401C1612068C1692A69114311E0FB
:10331000206801F067FE2068C16941F40061C16165
:103320002068C16921F48061C1612068C1692A698E
:1033300041EA0221C161002084F83C0070BD10B553
:10334000040003D094F83D0010B107E0012010BD47
:10335000002084F83C00204600F01EF8022084F88B
:103360003D00211D206801F03DFD012084F846004C
:1033700084F83E0084F83F0084F8400084F841005F
:1033800084F8420084F8430084F8440084F845003F
:1033900084F83D00002010BD7047000010B50446C1
:1033A00049B104290AD008290BD094F8410001281A
:1033B0000AD0012010BD94F83E00F8E794F83F00D1
:1033C000F5E794F84000F2E7022081B3042932D0F7
:1033D000082933D084F841000122206801F048FD1B
:1033E000184A20681849904201D0884203D1436CA2
:1033F00043F400434364206890420DD088420BD0D0
:10340000B0F1804F08D01149884205D01049884258
:1034100002D01049884204D1816801F007010629D1
:1034200003D0016841F001010160002010BDFFE7F9
:1034300084F83E00D0E784F83F00CDE784F84000F0
:10344000CAE70000002C01400034014000040040A5
:1034500000080040000C004030B504460D460068EE
:10346000002201F005FD194941F211122068931064
:10347000884202D01649884209D1016A114206D118
:10348000016A194203D1416C21F400414164206872
:10349000016A114206D1016A194203D1016821F083
:1034A0000101016001203DB1042D08D0082D09D093
:1034B00084F84100002030BD84F83E00FAE784F82B
:1034C0003F00F7E784F84000F4E70000002C0140DB
:1034D0000034014070B5040004D094F83900002590
:1034E00010B106E0012070BD84F83850204600F08D
:1034F00023F8242084F839002068C16821F40051A1
:10350000C160204602F062F82068016921F4904110
:1035100001612068416921F02A0141612068C16888
:1035200041F40051C160E563202084F8390084F83B
:103530003A00002070BD0000F0B585B00024009472
:1035400001940294039401684348DFF808C1022201
:103550000323424E07150125614525D1816941F4B8
:1035600080418161816901F480410491816941F068
:10357000040181618069694600F004000490100232
:10358000CDE9000203933046FEF71AFF0097694623
:103590003046CDE90145FEF713FF002211462520F4
:1035A000FFF722F9252028E0DFF8B4C0614528D1D3
:1035B000C16941F40031C161C16901F40031049174
:1035C000816941F0040181618069694600F004006D
:1035D00004900420CDE9000203933046FEF7F0FE8C
:1035E00008208DE8310069463046FEF7E9FE0022EA
:1035F00011462620FFF7F8F82620FFF7E8F805B077
:10360000F0BD184EB142FAD1C16941F48021C161C7
:10361000C16901F480210491816941F0080181614F
:103620008069114E00F00800CDE90330CDE9007249
:1036300069463046FEF7C4FEF0148DE83100694655
:103640003046FEF7BDFE002211462720FFF7CCF8DA
:103650002720D2E700380140001002400008014056
:103660000044004000480040000C0140FEE700001C
:1036700070B5124C0125022662791148E9036AB13E
:10368000012A11D0022A0ED12570002060710A2073
:10369000A082BDE870400BA003F046BF0022FEF7F9
:1036A00094FFA682657170BDA28A002AFBD1012217
:1036B000FEF78BFF0520A082667170BDD800002048
:1036C0000018014077696669207265736574206F20
:1036D0006B7E7E21210A00002DE9F05F7A4C0226E4
:1036E000234694F805C09A8A00250127710377487C
:1036F0001B7A4FF00A094FF0060B4FF0050ABCF198
:103700000F0F15D2DFE80CF008161F2A3C485A6547
:1037100076899AA6B7C3D40001220546FEF755FF65
:1037200000224FF400412846FEF74FFFA682677142
:10373000BDE8F09F002AFBD10122D103FEF745FF2F
:10374000A4F814A01AE0002AF2D161A003F00CFF43
:103750005FA003F0E9FEA68203202DE053B15EA135
:103760005E48FCF73DFD10B1A782042098E065811A
:103770002572DDE7002ADBD1658125726671D7E706
:10378000002AD5D156A003F0EFFE55A003F0CCFEE1
:10379000A68284F805A0CBE74BB14FA14F48FCF7B8
:1037A0001FFD0028E3D0A78284F805B0DFE7002AD8
:1037B000BED16581257204206071B9E7002AB7D1B6
:1037C0004CA003F0D1FE4BA003F0AEFEA682072072
:1037D000F2E743B140A14148FCF702FD0028C6D002
:1037E000A78208205CE0002AA2D16581257284F8B6
:1037F00005B09DE7002A9BD1434A44A0A2F11401E1
:1038000015460E4603F0B0FE2A4631463FA003F0AF
:103810008BFE1E20A0820920CEE74BB12EA12F489F
:10382000FCF7DEFC0028A2D0A78284F805909EE772
:10383000002A9ED1658125720820BDE7002A98D113
:103840003AA003F091FE39A003F06EFEA4F81490A4
:103850000B20B1E743B120A12048FCF7C1FC0028B0
:1038600085D0A6820C201BE0002A88D165812572B4
:1038700084F805905CE7002A8DD13BA003F074FE2C
:1038800039A003F051FEA4F814900D2094E74BB139
:1038900011A11248FCF7A4FC002887D0A7820E20B3
:1038A000607164E7002A88D1658125720C2083E766
:1038B0002770657065710022FEF787FEBDE8F05F36
:1038C00037A003F031BE0000D800002000180140EE
:1038D000415445300A0000004F4B0000281D0020D5
:1038E00041542B43574D4F44455F4355523D320A97
:1038F0000000000041542B4357444843505F435558
:10390000523D302C310A00005C0A002041542B4308
:10391000575341505F4355523D222573222C222597
:1039200073222C312C332C342C300A0041542B437D
:10393000495041505F4355523D223139322E313684
:10394000382E33362E31222C223139322E31363870
:103950002E33362E31222C223235352E3235352E6D
:103960003235352E30220A0041542B435744484308
:1039700050535F4355523D312C3132302C22313976
:10398000322E3136382E33362E313030222C223141
:1039900039322E3136382E33362E323030220A006C
:1039A0007769666920536F6674204150206D6F649B
:1039B0006520696E6974206F6B7E7E21210A00008C
:1039C0002DE9F05F714D02262A4695F805C0D4799D
:1039D000918A137A641CE2B201276D480024DFF853
:1039E000B4914FF00A0A4FF0050B4FF4804EBCF132
:1039F0000D0F15D2DFE80CF00716212C404C616C3E
:103A00007A8694A7BA00012271460446FEF7DDFDCE
:103A100000224FF400412046FEF7D7FDAE826F71C1
:103A2000BDE8F09F0029FBD10122D103FEF7CDFDB7
:103A3000A5F814B06E71EC71F2E70029F0D156A030
:103A400003F092FD54A003F06FFDAE82032078E0F6
:103A500053B153A15348FCF7C3FB10B1AF8204200C
:103A60001FE06C812C72DBE70029D9D16C812C72AC
:103A70006E711EE06C71D3E70029D1D14AA003F02A
:103A800073FD49A003F050FDAE8285F805B0E8E76C
:103A90004BB143A14348FCF7A3FB0028E1D0AF8220
:103AA000062068711AE00029BAD16C812C720420BA
:103AB0005AE0EA71032ADDD2B2E70029B0D13FA073
:103AC00003F052FD3DA003F02FFDAE82072038E049
:103AD00033B133A118E0AF8285F805A0EC71C0E7DF
:103AE00000299DD16C812C7206203DE0002997D1E0
:103AF00037A003F039FD36A003F016FD3220A8826E
:103B000009201EE033B149462648FCF769FB00282E
:103B1000E1D1A6E7002983D16C812C72082023E033
:103B2000002989D11B4A4946143216462BA003F0BE
:103B30001BFD3246494629A003F0F6FC8220A882EC
:103B40000B2068718DE743B12AA11648FCF748FBAA
:103B5000002886D0AE820C20A3E700298BD16C818F
:103B60002C725046A5F814A06871A2E72F706C70F3
:103B70006C71A5F814A000227146FEF726FDEC71C9
:103B8000BDE8F05F1EA003F0CFBC0000D80000200D
:103B900000180140200A0020415445300A0000006E
:103BA0004F4B0000281D002041542B43574D4F44DC
:103BB000455F4355523D310A0000000041542B43FC
:103BC00057444843505F4355523D312C310A000061
:103BD00041542B43574C41500A00000041542B43A1
:103BE000574A41505F4355523D222573222C2225CE
:103BF00073220A005749464920474F542049500034
:103C0000776966692073746174696F6E206D6F6483
:103C10006520696E6974206F6B7E7E21210A000029
:103C20002DE9F0412B4E2C4D4FF00008307808B9AB
:103C3000F078A8B1A878294960B185F80280E878C1
:103C4000032803D881F86800FDF70CFD012000F07F
:103C500073FC34E091F86800E8700120A870F5E783
:103C600070781F4C0A2708B9607808B1687810B1DD
:103C7000B07898B910E0A878012808D1E878401CFD
:103C8000C0B20621B0FBF1F201FB1200E870012086
:103C900000F052FC607810E0A07880B1687870B9CC
:103CA000A878012805D1E87808B1401E00E0052079
:103CB000E870012000F040FCA07800B16F7086F839
:103CC000008086F8038086F8018086F80280BDE8CF
:103CD000F081000055000020F4000020100A0020B0
:103CE0005D0000202DE9F0412A4E01213046FEF70B
:103CF0005FFC2A4D284C297A605402213046FEF799
:103D000057FC297A2144C87004213046FEF750FC44
:103D1000297A2144887108213046FEF749FC297A26
:103D20006218491C5072C8B200222872032800D3BE
:103D30002A721A4E00200D36012506F108031F1FB6
:103D400000EB400114F801C0BCF1000F07D1214481
:103D500091F801C0BCF1000F01D1897811B1325442
:103D60003A5410E0315C11B1395C29B10CE00B49D7
:103D7000355409310D5406E0195C322902D2491C30
:103D8000195401E03D541A54401CC0B20428D7D342
:103D9000BDE8F08100100140840A00204C000020A2
:103DA0003EB50021194800910191174A0291026025
:103DB0009215826001250573017502244FF460227B
:103DC0000461C2614160FDF7D3FE1020CDE900051A
:103DD0000320029069460D48FDF7D4FD1120CDE97E
:103DE000000469460948FDF7CDFD0848FDF764FD6C
:103DF0000648FDF748FE0128FAD10222044903488B
:103E0000FDF782FF3EBD000000240140A401002018
:103E10007C03002000B587B01C216846FCF7D5F96B
:103E200014484FF0204102220160134941600021F3
:103E3000C0E902120822C0E904218161C161530274
:103E40000162C0E90913C162016341638163032018
:103E500000900120CDE901021020CDE903101120CE
:103E6000CDE90501002269460248FEF711FC07B0C2
:103E700000BD000034030020040100A02DE9F04F34
:103E800085B000255B4800950195029503958169F1
:103E900041F040018161816901F040010491816933
:103EA00041F010018161816901F010010491816983
:103EB00041F004018161816901F00401049181698B
:103EC00041F008018161816901F008010491816973
:103ED00041F0200181618069012200F020000490FE
:103EE0004EF214014448FEF770FB48F2C01701225D
:103EF00039464248FEF769FB41F690780122414677
:103F00003F48FEF762FB41F23B09012249463D482A
:103F1000FEF75BFB00224FF480513748FEF755FB5C
:103F20004FF4017A012251463748FEF74EFB4FF419
:103F3000006B002259463148FEF747FB01244FF23F
:103F40001400CDE900040326CDE9024669462A485B
:103F5000FEF736FA2020CDE900056946029426488E
:103F6000FEF72EFA4F20CDE9000569460294244859
:103F7000FEF726FA41F23000CDE9000569460294C9
:103F80001E48FEF71DFACDE90074CDE902466946E8
:103F90001A48FEF715FACDE90084CDE902466946D4
:103FA0001748FEF70DFACDE90094CDE902466946BF
:103FB0001448FEF705FA4FF47450CDE90005694640
:103FC00002941148FEF7FCF9CDE900A4CDE90246C0
:103FD00069460D48FEF7F4F90220CDF800B00396CB
:103FE000CDE9014069460548FEF7EAF905B0BDE8AC
:103FF000F08F00000010024000180140000801404E
:1040000000100140000C0140001401400C480B4915
:104010004FF4007201604FF48271416000218160B1
:10402000C1600161C0E905123022C0E90721416287
:1040300081620A21C162FEF765BF000000380040BE
:10404000D401002010B58EB0002407940894099480
:104050000A940B941C2168460C94FCF7B6F8174898
:104060001549C0E900144FF6FF71C0E9024104612F
:104070008461FFF72DF84FF48050079007A90F488F
:10408000FFF768F80D48FFF75AF90B940BA90B4896
:104090000C94FEF7DFFF7020CDE9000404200490AB
:1040A0000022694602940548FFF7E6F80348FFF747
:1040B000BDF80EB010BD0000000800402C0200202A
:1040C0002DE9F047DFF8549188B000210126A9F8C6
:1040D0001A1071025248FCF778F852495048FCF720
:1040E000BCF84F48FCF7A4F84F49504C4C4F0D78A2
:1040F000B4F90A10B4F90830B4F90C20CDE9023152
:1041000004950192B4F90610009180B2B4F904301C
:10411000B4F90020384446A101F0D8FE3846FCF737
:1041200087F8494980B238440B6848490A884849A9
:104130000D88B4F90210CDE902154649CDE90423F2
:10414000454A09781278CDE9002144490B78444961
:104150000A8844A101F0BAFE3846FCF769F84849DC
:104160004A4B494C0A7847491B7824780978CDE9AD
:1041700006124749CDE904340A784649464C474B74
:10418000097824781B78CDE902124549CDE900343D
:104190000B68444980B238440A6843A101F096FE96
:1041A0000125DFF8248100244FF6FF7AB8F80000DB
:1041B00028420ED01A48FCF73BF880B226B1002600
:1041C0003844224641A102E03844224641A101F090
:1041D0007DFE641CE4B20AEA45050A2CE6D3B8F871
:1041E000000040050AD50E48FCF722F880B238449A
:1041F0000EB139A100E039A101F068FE0848FCF7D2
:1042000017F880B223213954401CA9F81A0008B0CD
:1042100033A0BDE8F04703F087B90000D8000020C4
:1042200028250020140A00206F000020900A00209A
:104230002C25642C25642C25642C25642C25642CC9
:1042400025642C25642C0000940000208A000020A6
:104250008600002072000020710000207000002005
:104260008400002025642C25642C25642C25642CD6
:1042700025642C25642C25642C25642C000000006A
:104280007A000020790000207800002077000020CC
:1042900076000020750000207400002073000020CC
:1042A0008C0000209000002025642C25642C2564BF
:1042B0002C25642C25642C25642C25642C25642C49
:1042C00025642C2564000000820000202C45256414
:1042D00000000000452564002C455A00455A0000A6
:1042E00053656E64205061636B65742E2E0A000066
:1042F000FEE770470D4810B590F868200C484FF461
:104300000051032A01D0012207E00A4CE269002A89
:104310000BD1094A127822B10022BDE81040FEF705
:1043200054B9FEF74AF93220E06110BD100A0020AE
:10433000001801404C0000209800002000F00F0001
:10434000092801D830307047373070472DE9F047E1
:10435000DFF8E8800024414698F80520888A032584
:1043600002260127097A4FF00A09052A19D2DFE847
:1043700002F0031A32475F00002812D10122022105
:104380002F48FEF722F9A8F80A4088F808402DA027
:1043900003F0EAF82BA003F0C7F8A8F8145088F847
:1043A0000570BDE8F08769B12AA12B48FBF718FF1B
:1043B00018B1A8F8145088F80560A8F80A4088F8E1
:1043C0000840EEE70028ECD1A8F80A4088F8084039
:1043D00088F80540E5E70028E3D1A8F80A4088F806
:1043E00008401E4C1EA034F8601F03F0BDF8218861
:1043F0001BA003F099F8A8F8149088F80550D0E7AE
:1044000059B114A11448FBF7EBFE0028D5D0A8F849
:104410001460042088F80500CFE70028C1D1A8F86F
:104420000A4088F80840A8F8149088F80560B8E7B2
:1044300088F801700FA003F077F8C9E7D8000020D2
:10444000000C014041542B4349504D55583D310A11
:10445000000000004F4B0000281D0020100A002023
:1044600041542B4349505345525645523D312C251A
:10447000640A0000546370205365727665722049A7
:104480006E6974204F6B7E0A0000000070470000C8
:1044900030B587B004461C216846FBF796FE2148DC
:1044A000214A00250068B0FBF2F0401E81B2B2FB49
:1044B000F4F084B21E481D4AC0E900211021816039
:1044C000611EC0E9031545618561FEF701FE08B173
:1044D000FCF7CBFE1648FEF732FF08B1FCF7C5FE2D
:1044E000702000904FF0FF3000EB5400019002204C
:1044F00002900002CDE903054010CDE90505002238
:1045000069460B48FEF7B8FE08B1FCF7AEFE002185
:104510000748FEF743FF002801D0FCF7A6FE07B0CE
:1045200030BD00002000002040420F000008004085
:104530002C0200207047000010B503220223184906
:10454000092825D2DFE800F005070C1114171A20FE
:104550002800144806E013485C388860012011E008
:1045600010480C388860CA8012E00E481838F9E705
:104570000C4858380AE00B480C30F3E7094830384B
:1045800088600620C88003E0064850388860CB80E9
:1045900000204870087010BD02484838F6E7000057
:1045A00024000020CA8C00083C4810B510F8031FF6
:1045B000427842EA0121394A0E3A11808178C37863
:1045C00043EA012191800179437943EA0121D180B5
:1045D0008179C37943EA01219181017A437A43EADF
:1045E00001211181817AC37A43EA012151812C4949
:1045F000037BCB70437B0B83837B0B71C37B4B7142
:10460000037C8B71437C847C44EA03235380C27C0B
:10461000037D43EA02224A83427D837D43EA0222EC
:10462000CA83C27D037E120642EA0342437E42EA07
:104630000322837E13438B62C27E4A62027F437FE2
:10464000120642EA0342837F42EA0322C37F1343F6
:104650000B6290F82020CA7190F821200A7290F81D
:1046600022204A7290F823208A7290F82420CA727D
:1046700090F825200A7390F826204A7390F8272096
:104680008A7390F8282090F8290052EA0020C88206
:1046900002D14FF48060C88210BD00009E0A002045
:1046A0006C00002004480178002903D0002101702B
:1046B000FCF7D8BF70470000F400002070B50A4D29
:1046C0001121297001216970A87003212846FCF787
:1046D00037FAE8700024285D00F026F9641CA4B2C3
:1046E000042CF8D370BD00009E0C00202DE9F04191
:1046F0001B4C0026E07BB0B1208A032813D9194F48
:104700003918401E11F8015C81B23846FCF718FADE
:10471000A84208D13878112805D1A670B878222887
:1047200001D1FFF741FF607890B92220FFF7C6FF63
:1047300064206070A0784FF48051401CC2B20A48D7
:10474000A270032A01D9002200E00122FDF73DFFFB
:10475000E07B002801D02682E673BDE8F0810000EE
:104760006C0000209E0A00200018014070470000E5
:10477000044B002A595C044B195402D001F07F010C
:1047800019547047B48E0008D30000202DE9F0477B
:104790004E4D012280212846FDF717FF0122160207
:1047A00031462846FDF711FF4FF4007A01225146A9
:1047B0002846FDF70AFFDFF81891012231464846E6
:1047C000FDF703FF434F4FF400417C1E2078385C17
:1047D000C00701D0012200E000224846FDF7F5FEA7
:1047E00020784FF48061385C800701D5012200E019
:1047F00000222846FDF7E9FE20784FF40061385C7E
:10480000400701D5012200E000222846FDF7DDFE29
:1048100020784FF48051385C000701D5012200E078
:1048200000222846FDF7D1FE20782B4B385CC006CD
:1048300001D5012200E0002204211846FDF7C5FE43
:104840002078DFF89880385C800601D5012200E0EE
:10485000002208214046FDF7B8FE2078385C40066B
:1048600001D5012200E0002210214046FDF7ADFEF7
:104870002078385C000601D5012200E000222021CA
:104880004046FDF7A2FE227832B1012A07D0022A63
:1048900014D0032A08D114E00022802101E0002274
:1048A00031462846FDF791FE2078401CC0B22070AA
:1048B000032801D900202070BDE8F087002251466E
:1048C000EFE7002231464846ECE7000000100140C7
:1048D00000080140D300002000140140000C0140FA
:1048E00070B50E4D06462889401CC0F3080402E04E
:1048F0000120FDF761FCE8888442F9D00848298945
:1049000046542C816878002806D00020687005483D
:10491000016841F08001016070BD0000300000209E
:10492000F00400200C44004070B5104D0646287D70
:10493000401C00F07F0402E00120FDF73DFC688A86
:104940008442F9D00A48A98A4654AC8228780028C3
:104950000BD0002028700122D1020648FDF735FE59
:104960000548016841F08001016070BD6C000020C5
:104970009E0B0020000801400C38014070B50E4D20
:104980000646E889401CC0F3080402E00120FDF758
:1049900013FCA8898442F9D00848E9894654EC817F
:1049A000E878002806D00020E8700548016841F04A
:1049B0008001016070BD0000D8000020281F002089
:1049C0000C48004010B50446FFF77AFB0349204627
:1049D0000A88BDE81040024903F0B6B9F200002091
:1049E0002825002070B50024054D064E04E0285D02
:1049F000FFF7C4FF641CA4B2708B8442F7D370BD70
:104A000028250020D80000202DE9F0410546114E50
:104A100000202A4670813072B1790FA002F0A4FD07
:104A200000244FF4FA7706E00120FDF7C5FB641C73
:104A3000A4B2BC420CD8307A0028F5D000240C4E29
:104A400004E0305DFFF79AFF641CA4B2AC42F8D3D7
:104A5000BDE8F081D800002041542B434950534514
:104A60004E444255463D25642C25640A0000000052
:104A70002825002070B500240120FDF79DFB0122B0
:104A80000F491048FDF7C6F9641CE4B2202CF3D39B
:104A90000D4D010EA970010CE970010A29716871B0
:104AA00000240120FDF788FB012205490548FDF798
:104AB000B1F9641CE4B2202CF3D3687070BD00001F
:104AC0007C03002000000020A80000202DE9F04118
:104AD000504C207A00287CD04FA15248FBF780FB35
:104AE000514E0127002550B150A14E48FBF7BEFBA7
:104AF00010B1FBF7DDFBA071A77000220BE04CA109
:104B00004848FBF76DFB20B94BA14648FBF768FB13
:104B100028B1A570012202213046FDF756FDA0788C
:104B2000002872D049A13F48FBF75AFB00286CD0FF
:104B30006089092869D33DA13A48FBF797FB3BA15F
:104B40000020FBF793FB10B1FBF7B2FBA07141A172
:104B50000020FBF78BFB060004D0FBF7A9FB60826B
:104B600000E0761C30780028FBD1711C628A3A483C
:104B7000FBF712FB608A0A2847D92CA13648FBF7BD
:104B800075FB36A1FBF75BFB002840D127A1FBF7A3
:104B90006DFB0646324814218046FBF716FB314672
:104BA0004046FBF75AFB21A10020FBF75FFB2DA13C
:104BB000FBF745FB00282AD12BA1FBF757FB064644
:104BC0002748142114308046FBF7FFFA314640464F
:104BD00000E01CE0FBF741FB4FF400712348FBF7BA
:104BE000F4FA1F4E2148103E311DFBF736FB301DF5
:104BF000FBF71EFB1D4A80B223211154401C80B2DA
:104C00006083FFF701FF1A48077065812572BDE8D0
:104C1000F0810000D80000202C434F4E4E454354F5
:104C200000000000281D0020000C01402C000000A6
:104C30002C434C4F534544005354415F4449534324
:104C40004F4E4E4543544544000000002B4950440C
:104C5000000000003A0000002823002069640000E2
:104C6000200A002070770000230000002825002083
:104C7000F400002010B5FDF7B3FCBDE8104000F0D3
:104C800059B830B595B028216846FBF79EFA142133
:104C90000AA8FBF79AFA18210FA8FBF796FA092041
:104CA000012100904FF48030002404910691CDE959
:104CB00001040225CDE907504FF4E0100990684641
:104CC000FDF794FF0F20CDE90A056802CDE90C40FD
:104CD00002210AA80E94FDF797FEA80311900F95E4
:104CE0000FA8FDF71DFE15B030BD00000D4801688E
:104CF00041F00101016041680B4A114041600168C7
:104D00000A4A11400160016821F480210160416874
:104D100021F4FE0141604FF41F0181600449C0038A
:104D200008607047001002400000FFF8FFFFF6FE29
:104D300008ED00E010B5224CE078401CE070FFF771
:104D400025FDE0780A2839D30020E07020791D4A3B
:104D5000401C20711088012130B1401E0004000C5D
:104D6000108001D118480170184A108830B1401ED7
:104D70000004000C108001D115480170154A1088FC
:104D800030B1401E0004000C108001D112480170A7
:104D90001249087808B1401E0870E06908B1401E49
:104DA000E0610F49087808B1401E0870FFF7A2FAC9
:104DB000FEF798FFBDE81040FBF778BE10BD00007D
:104DC0004C000020880000207B0000203A000020DA
:104DD00033000020E8000020E00000206D000020EB
:104DE000F5000020F0B502681C4D1D4E1D4FDFF888
:104DF00078C01E4B4FF0804EA84209D0984207D091
:104E0000704505D0B04203D0B84201D0604503D10F
:104E100022F070044A682243A84209D0984207D081
:104E2000704505D0B04203D0B84201D0604503D1EF
:104E300022F44074CA6822434C6922F08002224363
:104E400002608A68C2620A688262A84201D09842FF
:104E500001D10969016301214161F0BD002C0140CC
:104E60000004004000080040000C004000340140F5
:104E700010B501F01F010123046A8B409C430462BA
:104E8000036A8A401343036210BD10B5846842EA86
:104E9000032224F47F440A432243826010BD8268C7
:104EA00022F070020A4342F007018160704700005F
:104EB000F0B5026A22F001020262026A4368846964
:104EC000114E24F073050C68104F2C4322F002059C
:104ED0008A682A43B04201D0B84205D122F00805C1
:104EE000CA682A4322F00402B04201D0B84205D178
:104EF0004D6923F440731D438B692B4343608461E8
:104F0000496841630262F0BD002C01400034014059
:104F1000F0B5026A22F010020262026A43688469F4
:104F20000D6824F4E64444EA05248D6822F020024A
:104F300042EA05120F4D104EA84201D0B04206D1F0
:104F4000CF6822F0800242EA071222F04002A84213
:104F500001D0B04207D14D6923F4406343EA850391
:104F60008D6943EA85034360846149688163026215
:104F7000F0BD0000002C014000340140F0B5026A91
:104F800022F480720262026A4368C46922F40072E9
:104F900024F073050C68124E2C438D6842EA0522FA
:104FA0000E4DA84201D0B04206D1CF6822F4006273
:104FB00042EA072222F48062A84201D0B04207D11F
:104FC0004D6923F4405343EA05138D6943EA051301
:104FD0004360C4614968C1630262F0BD002C0140B6
:104FE0000034014030B5026A22F480520262036A42
:104FF0004268C4690D6824F4E64444EA05248D68D7
:1050000023F4005343EA0533084DA84202D0084D6B
:10501000A84204D14D6922F4804242EA85124260DE
:10502000C46149680164036230BD0000002C014086
:105030000034014010B5046A036A23F001030362DF
:10504000836923F0F00343EA021324F00A020A43BF
:105050008361026210BD10B5036A23F0100303627E
:105060008469036A24F4704444EA023223F0A00302
:1050700043EA01118261016210BD00002DE9F8438D
:105080004FF0000840F2034000F000FD464E474F4D
:105090000025474C00286FD0132847D0172807D089
:1050A0001C2866D12846E570BDE8F84301F01EBF14
:1050B000002202213846FDF788FAE07818B9414607
:1050C0003CA002F031FA0120E07040F20246304686
:1050D00000F0DCFCC00703D03046012100F02EFDBB
:1050E000404602F043F802000CD04FF400608242C8
:1050F00000D902463649404602F060FC002838DDFF
:1051000033490D54002202213846FDF75EFA40462D
:10511000FFF758FC012202213846FDF756FA1E20FF
:10512000E0804046BDE8F84301F0E6BBE088002897
:105130001FD11F48E5700C30C17800918378427808
:10514000017824A002F0F0F920791949401C20715F
:10515000B6F866200C31284601F062FD012801D026
:1051600010B105E021A000E026A002F0DDF92571D4
:10517000A570BDE8F883FFE7E570257101220221E3
:105180003846FDF722FA0123B6F86620194628466C
:1051900003F006FA414620B11EA0BDE8F84302F034
:1051A000C3B922A0F9E70000100A0020000C01405A
:1051B00098000020536F6B6574202564204573743C
:1051C00061626C69736865642E2E200A000000001D
:1051D0001E150020446F6D61696E2049503A2025EC
:1051E000642E25642E25642E25640A00536F636B9C
:1051F000657420636F6E6E656374204F4B2E2E0AAC
:1052000000000000536F636B657420427573792E44
:105210002E0A0000536F636B6574204F70656E201B
:105220004572726F722025640A000000536F636B31
:105230006574202564204F70656E640A00000000CC
:105240002DE9F04765A16748FAF7CAFFDFF898A192
:10525000664D002420B966A16248FAF7C1FF40B14B
:105260002C706C715046BDE8F04701220221FDF719
:10527000ACB96879052603274FF001094FF00708FC
:1052800009280CD2DFE800F0050D1B34455F697E6C
:105290008E00FEF715FFAE8285F80590EC71BDE833
:1052A000F087A88A0028FAD16C812C7255A002F0F0
:1052B0005BF954A002F038F9AE82022027E0287A88
:1052C00050B154A14748FAF78BFF10B1AF826F710C
:1052D0007AE06C812C72E2E7A88A0028DFD16C8129
:1052E0002C72AE8285F8059026E02C706C71D6E7A2
:1052F000A88A0028D3D16C812C72698B46A002F059
:1053000033F9698B44A002F00FF9AE820420687172
:10531000C5E7287A40B13FA13248FAF761FF00287B
:10532000D7D0AF826E714FE0A88A0028B7D16C81C8
:105330002C72A5F814806F71E879401CC0B2E87136
:105340000328D2D2ABE7A88A0028A8D16C812C729E
:10535000FFF748FBAE820620D9E7287A48B133A18F
:105360002048FAF73DFF0028B3D0AF8285F80580CA
:10537000AFE7A88A002892D16C812C72AF8285F8A1
:1053800005808CE7A88A002889D16C812C720A21BB
:1053900028A002F0E9F80A2126A002F0C5F8AE82A2
:1053A0000820B4E7287A88B126A10E48FAF718FF3A
:1053B00000288ED0012202215046FDF706F9AF8267
:1053C0006C716C701E20E882EC7182E7A88A00285C
:1053D0008DD16C812C7285F80580ADE74552524F16
:1053E00052000000281D0020000C0140D8000020C1
:1053F0005354415F444953434F4E4E4543544544F3
:105400000000000041542B43495042554652455339
:1054100045540A004F4B000041542B43495053451B
:105420004E444255463D25640A00000053454E4413
:10543000204F4B0041542B434950434C4F53450A96
:1054400000000000434C4F534544000070B54FF43A
:1054500080512848FDF7ACF8274901280DD008787D
:10546000264C012668B1487878B394F86800032880
:1054700006D1BDE87040FFF701BE00200870C8707B
:1054800070BD1D4D94F87100103570B114F86C0F9B
:1054900068706078A870A078E870E078287120794A
:1054A0006871BDE8704000F02BBCFFF7E3FA687844
:1054B00004F86C0FA8786070E878A0702879E07024
:1054C000687920710E480670EBE7FFE794F86900F1
:1054D00018B1BDE87040FBF7BFBC074814F8622F55
:1054E0000C30027062784270A2788270E278C270EA
:1054F0004E7070BD0008014098000020100A002086
:10550000F400002070B5284C002520790A2829D302
:10551000257160792549401C6071A079401CA071FB
:10552000088808B1401E08802149088808B1401E3B
:1055300008802049088808B1401E08801E49088854
:1055400008B1401E08801D4E10213046FDF730F88E
:1055500000B10120607020213046FDF729F800B12C
:105560000120A070A079052808D1A5712078042118
:1055700080F0010020701248FDF71FF860790A28BA
:105580000DD36571E0790F49401CE071088808B1BE
:10559000401E08800C49088808B1401E0880E07948
:1055A0003C2800D3E57170BD4C000020D0000020E5
:1055B000F8000020EC000020F0000020000801406E
:1055C00000180140EE0000209E00002070B5044647
:1055D00000680169E26821F4405111430161A1684A
:1055E00020690143606901432068C26841F20C638D
:1055F0009A430A43C26020684169A26921F440715C
:10560000114341611E492068884202D1FDF7A8FA82
:1056100001E0FDF795FA00EBC00101EB00116068B5
:1056200064228000B1FBF0F3B3FBF2F36FF01806D5
:105630007343B1FBF0F5B1FBF0F605EB83053223C4
:1056400003EB0515B5FBF2F5B6FBF2F605F0F00538
:1056500005EB0615B1FBF0F6B1FBF0F0B0FBF2F094
:105660006FF01801484306EB800003EB0010B0FB1D
:10567000F2F0216800F00F002844886070BD00003F
:1056800000380140AFF30080F8B52D4800682C4C7D
:105690000C3421682A4A1432126810F00F0F4FF0B0
:1056A00000050ED027480068016841680091016834
:1056B000416800910168416800910168406800906C
:1056C000F8BD214E214B820610D58A060ED53268D0
:1056D000D7B2DA7B52B91A8AFF2A07D8DFF870C02E
:1056E0000CF80270521C1A8203229A83020618D503
:1056F0000A0616D55A8A9F8ABA4208D0154FBF5C4F
:105700003760521C02F07F025A821D7009E00122AC
:105710001A70226822F080022260226842F0400261
:1057200022604006CCD54806CAD500224FF400615D
:105730000948FCF74AFF206820F040002060F8BDCF
:105740000038014074020020043801406C00002041
:105750009E0A00209E0B002000080140AFF300804D
:10576000F8B524480068234C0C34226821491431D0
:10577000096810F00F0F4FF000050ED01E480068AA
:1057800001684168009101684168009101684168C1
:105790000091016840680090F8BD184E184B8106D2
:1057A00010D591060ED53168CFB2D97851B9998804
:1057B000FF2907D8DFF84CC00CF80170491C99800C
:1057C000142159810006E7D51006E5D5D888198936
:1057D000884208D00C49095C3160401CC0F30800C5
:1057E000D8805D70F8BD01205870206820F08000DE
:1057F0002060F8BD00440040B40200200444004092
:1058000030000020F0030020F0040020AFF30080FF
:10581000F8B525480068244C0C342268224914311C
:10582000096810F00F0F4FF000050ED01F480068F8
:105830000168416800910168416800910168416810
:105840000091016840680090F8BD194E194B81061F
:1058500011D591060FD53168CFB2197A59B9598946
:10586000B1F5007F07D2DFF850C00CF80170491C79
:105870005981032119820006E6D51006E4D59889DE
:10588000D989884208D00D49095C3160401CC0F3B9
:1058900008009881DD70F8BD0120D870206820F0E4
:1058A00080002060F8BD000000480040F4020020A5
:1058B00004480040D8000020281D0020281F002098
:1058C00070B501231A4900200A5C303A0A2A2DD209
:1058D000401CC0B20A28F7D3002B27D00E200A5C48
:1058E000303A0A2A22D2401CC0B21328F7D3002B28
:1058F0001CD0104C002014216060A060E06004F116
:1059000038000546FAF761FC0A220949201DFAF71A
:1059100079FC074909220A312846FAF773FCFBF79C
:10592000A1FEBDE870400720FEF706BE70BD000076
:10593000F0030020100A0020FEE700002DE9F843E4
:10594000214E4FF00008CDF80080B078002838D004
:10595000B08818B300241D4D04E0285DFAF716FC4A
:105960002855641CB0888442F7D3184901F5A0601B
:10597000FAF773FC6946164801F080FC0746007888
:1059800060B1144D002405EB04113846FAF757FCBA
:1059900028B1641C052CF6D3052C06D008E005EBD5
:1059A0000410C16800988847F6E70BA001F0BCFD21
:1059B0000DA001F0B9FD86F8028086F80380A6F8F4
:1059C0000480BDE8F883000030000020F0030020D0
:1059D000F00800205C8E00080A436F6D6D616E64F4
:1059E000206572726F720A000A4D63546563683EE7
:1059F000000000000EB50D48D0E90010CDE9001000
:105A00004020ADF808006946012001F0B3F9401CC0
:105A100002D107A001F088FD02A9042001F0AAF933
:105A2000401C02D109A001F07FFD0EBDAC8E000824
:105A300057353130305320696E697469616C697A09
:105A40006564206661696C2E0D0A0000573531309F
:105A5000305320696E746572727570740D0A00009F
:105A600010B5094C002210212046FCF7AEFD642041
:105A7000FCF7A2FB012210212046FCF7A6FDBDE8A1
:105A800010406420FCF798BB0018014070B50D4C25
:105A90000546E068804760698047226AC5F30721B0
:105AA000094890470848226AE9B2401C90470648D6
:105AB000E169801C8847A1690546884721698847B4
:105AC000284670BD14010020010000602DE9F04758
:105AD000194D07461646E8688846002480476869DD
