:020000040800F2
:100000006854002049010008CD570008E545000864
:10001000C9570008D50A000845770008000000000D
:100020000000000000000000000000008D5E0008DD
:10003000A512000800000000795A0008F5640008C5
:100040006301000863010008630100086301000800
:1000500063010008630100086301000863010008F0
:10006000630100086301000863010008291000080B
:1000700063010008630100086301000863010008D0
:1000800063010008630100087109000863010008AA
:1000900063010008630100086301000863010008B0
:1000A00063010008630100086301000863010008A0
:1000B0006301000863010008630100086301000890
:1000C0006301000863010008630100086301000880
:1000D0006301000879720008097400085D75000862
:1000E0006301000863010008630100086301000860
:1000F0006301000863010008630100086301000850
:10010000630100086301000863010008630100083F
:10011000630100086301000863010008630100082F
:10012000630100086301000863010008630100081F
:10013000DFF810D000F07EFB00480047A9930008CC
:10014000AFF3008068540020064880470648004707
:10015000FEE7FEE7FEE7FEE7FEE7FEE7FEE7FEE777
:10016000FEE7FEE78965000831010008202A04DB6C
:10017000203A21FA02F00021704721FA02F3D04020
:10018000C2F120029140084319467047A0F1610175
:10019000192900D82038704740EA01039B0703D093
:1001A00009E008C9121F08C0042AFAD203E011F8B6
:1001B000013B00F8013B521EF9D27047D2B201E078
:1001C00000F8012B491EFBD270470022F6E710B55C
:1001D00013460A4604461946FFF7F0FF204610BDB5
:1001E00030B505462A460B4612F8010B13F8014BB1
:1001F00008B1A042F8D01CB1002802D06D1CF1E774
:10020000284630BD10B5044604E00B7800F8013BE9
:1002100003B1491C521EF8D2204610BDCAB2401E7E
:1002200010F8011F8A4202D00029F9D1002070473E
:10023000421C10F8011B0029FBD1801A704710B531
:10024000002200E0521C835C8C5CA34201D1002B95
:10025000F8D1D8B2E1B2401A10BD034611F8012B13
:1002600000F8012B002AF9D11846704770B50F4DE0
:1002700000B92868002412E00A4602E09E4203D03A
:10028000521C1378002BF9D1DAB2224305D02BB1DE
:1002900024B1002100F8011B04E00446401C06784C
:1002A000002EE9D12860204670BD0000EC0100203E
:1002B00070B5064607F0A8FD046805460A2200212D
:1002C000304600F0F2F92C6070BD2DE9FE4F8046FB
:1002D00081EA0300C00F0C46009021F0004123F09A
:1002E0000045B8EB0200A94105D2404621469046A0
:1002F0001C460B46024623F00040104347D0270D12
:10030000C7F30A00C3F30A510290401A0190402833
:100310006BDAC3F3130040F4801B0098924620B1BF
:100320000023D2EB030A63EB0B0B01985946C0F193
:100330004002504600F098F906460D465046594690
:10034000019A00F0A0F910EB08006141002487EA4F
:10035000115284EAE7731A4340D0009A62B3019ABB
:10036000012A4FEA075215DC001B61EB02014FF036
:10037000004202EA0752CDE90042001C41F580111B
:1003800032462B4600F0D8F903B0BDE8F08F404666
:100390002146F9E7001B61EB0201001C41F58013C7
:1003A00000185B412018A2F5001747EB030140EA53
:1003B000D570B6196D4111E06D084FEA360645EA71
:1003C000C0754FEA0752001B61EB0201001C41F5AA
:1003D000801149084FEA30000019514132462B463E
:1003E00003B0BDE8F04F00F098B90098012240003A
:1003F0000023D0EB020263EBE073009821464FEA42
:10040000E074B8EB000061EB0401E9E783F000431E
:100410005BE781F0004158E72DE9FE4F81EA0304D4
:1004200004F0004421F0004100944FF0000B23F051
:10043000004350EA01045ED052EA03045BD0C3F3E8
:100440000A54C1F30A552C44A4F2F3340194A0FBDE
:100450000254C1F3130141F48011C3F3130343F4B5
:10046000801301FB024400FB034E840A970A44EA0E
:10047000815447EA8357A4FB076802958D0A05FB60
:1004800007854FEA932C04FB0C542705029D4FEA85
:10049000065847EA1637B5EB08056EEB070C870ED2
:1004A000920E47EA811742EA8312A7FB0201B6EBDC
:1004B0000B0164EB00042B0D43EA0C335E1844EB94
:1004C0001C50DA465146E7FB0201C5F313044FEA1C
:1004D0000B3343EA14534FEA0432019C43EA060308
:1004E000A4F10C040294009CCDE900B400F024F9BE
:1004F00003B0BDE8F08F00200146F9E72DE9F04D8B
:1005000081EA030404F0004B21F0004514464FF04B
:10051000000A23F0004150EA050220D054EA01020B
:100520001DD0C5F30A570246C5F31303C1F31300E8
:10053000C1F30A5640F4801543F48013A7EB060874
:10054000101BD64608F2FD3873EB050002D308F104
:10055000010801E092185B41B8F1000F03DA0020B6
:100560000146BDE8F08D00204FF480110646844618
:100570000EE0171B73EB050705D3121B63EB050396
:1005800006434CEA010C49084FEA300092185B41DF
:1005900050EA0107EDD152EA030012D082EA0400CA
:1005A00083EA0501084305D0101BAB4106D20122A6
:1005B000002306E000224FF0004302E06FF001024A
:1005C00053101AEB06004CEB085110EB0A0041EBFC
:1005D0000B01BDE8F04D00F0A0B830B50B46014668
:1005E00000202022012409E021FA02F59D4205D3D2
:1005F00003FA02F5491B04FA02F52844151EA2F17C
:100600000102F1DC30BD2DE9F05F05460020924685
:100610009B4688460646814640241BE028464146C4
:1006200047462246FFF7A2FD53465A46C01A91415B
:1006300010D311461846224600F016F82D1A67EB23
:1006400001084F4622460120002100F00DF817EB6B
:1006500000094E41201EA4F10104DFDC484631466A
:100660002A464346BDE8F09F202A04DB203A00FAE0
:1006700002F1002070479140C2F1200320FA03F3F9
:10068000194390407047202A06DBCB17203A41FAE5
:1006900002F043EAE07306E041FA02F3D040C2F10F
:1006A000200291400843194670472DE9F0479146D2
:1006B0000F4680460446002614F8015B2DB100F079
:1006C000CBF80068405DC007F6D12B2D02D02D2D50
:1006D00018D0641E4A463946204600F0C1F827B1BA
:1006E0003968A14201D1C7F8008071054FF00204BA
:1006F0000BD54042002803DD07F086FB0460A0070D
:10070000BDE8F08746F48066E4E70028F8DA07F0F1
:100710007BFB04606FF00040F2E710B5141E73F12C
:10072000000408DA401C41F1000192185B411A43B1
:1007300001D120F0010010BD2DE9F04D92469B46FD
:1007400011B1B1FA81F202E0B0FA80F220329046A3
:10075000FFF78AFF04460F4640EA0A0041EA0B0110
:1007600053465A46084313D0114653EA010019D0A4
:10077000C8F140025046FFF7F9FC05460E465046C8
:1007800059464246FFF770FF084305D0012004E0B8
:1007900020463946BDE8F08D0020054346EAE07664
:1007A0002C4337430A986305E40AA0EB08000022B3
:1007B000FD0A44EA47540A3002D500200146E9E721
:1007C000010510196941DDE9084500196941BDE8D5
:1007D000F04DA2E7C1F30A52C1F3130140F2FF3317
:1007E00041F480119A4202DA00200146704740F23B
:1007F00033439A42A2F2334202DC5242FFF7B6BCC4
:10080000FFF732BF30B5041E71F1000404DB4FF076
:100810000044404264EB0101141E73F1000405DB47
:100820001C464FF00043524263EB0403994208BF59
:10083000904230BD064C074D06E0E06840F00103F1
:1008400094E8070098471034AC42F6D3FFF774FCE5
:1008500058B7000878B700080048704754B7000838
:100860002DE9F05F82460078002715468B460AF195
:100870000104B946302801D09DB113E014F8010BF2
:100880000127782803D0582801D045B10AE00DB1DE
:10089000102D07D10027102514F8010B02E00825C0
:1008A00000E00A250026B0460EE005FB080005FB27
:1008B00006F1012701EB10461FFA80F8B6F5803FDC
:1008C00000D3B94614F8010B294600F018F80028A7
:1008D000EBDABBF1000F05D00FB1641E00E0544607
:1008E000CBF80040B9F1000F06D007F08DFA0221D5
:1008F0000160C81EBDE8F09F48EA0640FAE73A28C2
:1009000000D2303820F02002412A01D3A2F1370072
:10091000884201D34FF0FF30704770B58C1810F843
:10092000015B15F0070301D110F8013B2A1106D134
:1009300010F8012B03E010F8016B01F8016B5B1E4E
:10094000F9D12B0705D40023521E0DD401F8013B29
:10095000FAE710F8013BCB1A921C03E013F8015B95
:1009600001F8015B521EF9D5A142D8D3002070BD19
:1009700010B5024801F09CFB10BD0000F4010020FE
:1009800070B5044600252068806800F00100F0B1D1
:100990002068806820F001002168886002F052FB26
:1009A00005460EE002F04EFB401B022809D9A06A62
:1009B00040F01000A062E06A40F00100E062012017
:1009C00070BD2068806800F001000028EAD1002096
:1009D000F6E770B505466C6AA06A00F05000E0B911
:1009E000A06A40F40070A0622068806800F4602073
:1009F000B0F5602F0DD1207B58B9A06A20F480702B
:100A0000A062A06A00F4805018B9A06A40F001000A
:100A1000A062204601F046FB03E0206A016B2846F5
:100A2000884770BD70B505466C6AA06A40F040000A
:100A3000A062E06A40F00400E062204601F034FB6E
:100A400070BD70B50446656A284601F02CFB70BD88
:100A500038B504460025002000902068806800F02A
:100A6000010080BB2068806840F001002168886038
:100A7000164800681649B0FBF1F0009002E00098BB
:100A8000401E009000980028F9D102F0DBFA0546DC
:100A900013E002F0D7FA401B02280ED9A06A40F0FA
:100AA0001000A062E06A40F00100E06200BF002098
:100AB00084F8240000BF012038BD2068806800F061
:100AC00001000028E5D00020F6E70000200000200B
:100AD00040420F0000BFFEE710B53048007820B15B
:100AE000012834D0022855D141E02D480088002843
:100AF00027DD2C4800682C49097830F81140204641
:100B000004F060FF28480078401C274908702548F9
:100B10000068097830F81140244800EB2410007870
:100B20002349088004F00F002049085C214908800F
:100B300001201A4908701A480088401E1849088088
:100B400004E000F039F863201449087023E01848E5
:100B50000088002805DD16480088401E14490880DA
:100B600004E000F029F802200C49087013E0114855
:100B70000088002805DD0F480088401E0D490880C8
:100B800007E009480078401C074908700020034925
:100B9000087000E000BF00BF10BD0000280000206A
:100BA00034000020300000202C00002070B4000829
:100BB000240000202600002010B50021014803F089
:100BC000B7FB10BDCC02002010B502460B46002139
:100BD00003E01078084481B2521C181EA3F10104EE
:100BE000A3B2F6D1C8B2C0F1FF0010BD1CB5454894
:100BF000007820B101283BD002287FD16EE0424826
:100C00000088002833D101220221404802F014FA62
:100C100000203F4908803F4908703F48B0F866000F
:100C20003D4991F86510CDE900103B4890F86430DB
:100C300090F8632090F8621038A008F01DFD364847
:100C4000B0F86600344991F86510CDE900103248DB
:100C500090F8643090F8632090F862102FA008F0AC
:100C6000E5FCFA202849088001202649087046E062
:100C700028480078C0B132A13348FFF7B1FA20B953
:100C800032A13148FFF7ACFA40B103201E49088079
:100C900002201C49087000202D49087000201C49C2
:100CA00008801C49087017E017480088A0B9002088
:100CB00017490880174908701249087024480078BD
:100CC000401C2349087008460078032804DB0020F4
:100CD000204908700B49087011E00FE001201E49FF
:100CE0000870002007490870094908800949087000
:100CF00000220221054802F09FF900E000BF00BF7A
:100D00001CBD0000190100201E010020000C014044
:100D1000100100200D010020700A002041542B43D7
:100D2000495053544152543D22544350222C2225C1
:100D3000642E25642E25642E2564222C25640A0049
:100D4000434F4E4E454354005E4600204F4B00003B
:100D50001B0100200A0100200B01002038B50446C9
:100D60000D460020009006222D49092006F0BEFD08
:100D70002B4800782A49497808432949897808434B
:100D80002749C978084326490979084324494979FC
:100D9000084370B900202249087008204870DC2000
:100DA00088700020C870087148710622092006F07A
:100DB00003FE1C4804701C4805601C481C49086060
:100DC0001748C07809680844194908601448007930
:100DD00009680844164908601148407909680844C0
:100DE000134908600E48C0780D49097948400C49FC
:100DF000497948400E49096808440D4908600422B1
:100E000069460F2006F0D8FD04226946012006F04D
:100E1000D3FD09F025F900200649087038BD00000F
:100E2000C80100208C010020BC010020785634123B
:100E3000B8010020A901002070B568480078062894
:100E400001D1052070BD66490978090201F203400D
:100E500006F026FD222806D0002344220221604805
:100E6000007809F005FF012508F02CFCC4B25B48AE
:100E700090F90000052877D2DFE800F0030F2C4F2F
:100E8000770000205749087048708870C87009F0D2
:100E9000A5FA0120514908709CE0022C16D1524855
:100EA0000068007C4F4908704F480068407C4870DB
:100EB0004D480068807C88704B480068C07CC870D2
:100EC00009F0D8FB02204549087002E007F03AFC1F
:100ED00005467FE0052C14D107F0FAFB40B14348EA
:100EE0000068804709F0BCF803203C49087013E013
:100EF00009F0B6F83E48006880470020374908707E
:100F00000AE0062C05D109F0ABF80120334908703E
:100F100002E007F017FC05465CE004253548006850
:100F2000401C00B33448006832490968B0EB510FE7
:100F300019D900242B480078304908702948407896
:100F400048702848807888702648C078C8702C4837
:100F50000068401C2A49086009F08CFB09F080F801
:100F600004201E49087035E033E00425052C24D107
:100F7000002024490870214800781A4909788842DD
:100F800011D11E4840781749497888420BD11B4837
:100F9000807814498978884205D11848C078114969
:100FA000C978884203D0032517480068804709F0B4
:100FB00057F80320094908700AE0062C05D109F00A
:100FC0004FF801200549087002E007F0BBFB054619
:100FD00000E000BF00BF284634E70000A901002060
:100FE0008C01002099010020BC010020D0010020CC
:100FF000D8010020AC010020B001002095010020A4
:10100000B8010020AA010020D401002010B5044836
:10101000007807F00BFC06200249087010BD0000A4
:101020008C010020A901002010B5024801F0C2FA8D
:1010300010BD00002402002030B590F8405001247B
:10104000AC40C56B6C60046863604468102C04D1CC
:101050000468A2600468E16003E00468A1600468B9
:10106000E26030BD1CB52649032000F09FF8254AF8
:101070002549264800F0AAF8041E13DD0120244962
:10108000087024A008F0D2FA1E48C0781D4989785B
:10109000CDE900101B48437802781B4922A008F0D4
:1010A000C5FA2BE0601CD0B1164A1749264800F05B
:1010B0008DF8041E13DD01201549087023A008F0E7
:1010C000B5FA1048C0780F498978CDE900100D486D
:1010D000437802780C4914A008F0A8FA0EE0601CCE
:1010E00030B900200A4908701DA008F09FFA05E0F9
:1010F00000200749087029A008F098FA1CBD0000DC
:101100007E0D0020E3000020D3000020C20000205C
:10111000C80000203E2031737420444E5320526595
:1011200073706F6E640A0000446F6D61696E206EAB
:10113000616D65203D2025732C2025642E25642EAD
:1011400025642E25640A0000CF0000203E20326E68
:101150006420444E5320526573706F6E640A000021
:101160003E204D41585F444F4D41494E5F4E414DE9
:101170004520697320746F6F20736D616C6C2E2035
:1011800053686F756C64206265207265646566697A
:101190006E65642069742E0A000000003E20444EF3
:1011A00053204661696C65640A000000044A1070AF
:1011B000044A116041F22212034B1A80704700006A
:1011C000E0010020DC010020E20100202DE9F043D5
:1011D00089B005460F46904600202E4908702E49DA
:1011E000086000231A4602212C48007809F040FDCF
:1011F0004FF480732A4839460268002007F064FFE4
:1012000086B235202B463246009025480168234897
:10121000007809F023FC35E02048007808F022F837
:10122000061E17DDB6F5807F01DD4FF4807602A83B
:1012300003AB324600901A4801681848007808F05D
:101240006BFD86B242461648016804A808F07CFB94
:10125000814618E007F0CCFA0446002C07DA0F4864
:10126000007807F0E3FA002009B0BDE8F0834CB93C
:1012700035202B463246009009480168074800781F
:1012800009F0ECFBC8E700BF0448007807F0CEFA8D
:101290004846E9E7E8010020E4010020E0010020E1
:1012A000DC0100207047000010B5224800780028BB
:1012B0003FD000F0CFFC20480078E0B11F48007814
:1012C00070B11F48008858B1002405E01D49085D31
:1012D00004F044FF601C84B2194800888442F5DBA6
:1012E00019A008F0A3F900201449087011490870EA
:1012F000134908801DE012480088132812D11148B4
:10130000807A4D280ED10F48C07A43280AD10D4863
:10131000007B472806D10B48407B572802D106F0B6
:10132000C7F901E006F010FA0020024908700449EC
:10133000088010BD37000020360000204200002049
:101340003A000020500400200A4D63546563683E53
:101350000000000070B5A4480078002874D1A348AC
:101360000078062871D2DFE800F003182D42576894
:1013700000220121104604F08BFD002211210120E2
:1013800004F086FD00220121022004F081FD0122EB
:101390001821032004F07CFD7CE00022052110468A
:1013A00004F076FD00221821012004F071FD0022D6
:1013B0000A21022004F06CFD01221146032004F0F2
:1013C00067FD67E000220521104604F061FD002260
:1013D0001421012004F05CFD00220F21022004F002
:1013E00057FD01221821032004F052FD52E0002293
:1013F0000E21104604F04CFD00221821012004F0BB
:1014000047FD00221721022004F042FD012219218C
:10141000032004F03DFD3DE000240BE07448A11DD5
:10142000405C3038C5B200222946204604F030FD29
:10143000601CC4B2042CF1DB2CE00022122103203A
:1014400004F026FD00241EE025E022E06948005D4E
:101450002D2805D100221021204604F019FD10E0AE
:101460006448005D28B900221221204604F010FDD6
:1014700007E06048005D3038C1B20022204604F029
:1014800007FD601CC4B25B48FEF7D2FEA042DDD867
:1014900000E000BFA6E058480078C0B1534800788B
:1014A0000428F7DA00221221104604F0F1FC002291
:1014B0001221012004F0ECFC00221221022004F091
:1014C000E7FC00221221032004F0E2FC8AE04748F6
:1014D000007806287ED2DFE800F003182D42576C12
:1014E00000220121104604F0D3FC0022112101202A
:1014F00004F0CEFC00220121022004F0C9FC0122EC
:101500001821032004F0C4FC6BE0002205211046E2
:1015100004F0BEFC00221821012004F0B9FC0022D6
:101520000A21022004F0B4FC01221146032004F039
:10153000AFFC56E000220521104604F0A9FC002271
:101540001421012004F0A4FC00220F21022004F049
:101550009FFC01221821032004F09AFC41E00022A4
:101560000E21104604F094FC00221821012004F002
:101570008FFC00221721022004F08AFC012219218D
:10158000032004F085FC2CE000220521104604F025
:101590007FFC00220E21012004F07AFC0022192198
:1015A000022004F075FC01221146032004F070FCB7
:1015B00017E000221921104604F06AFC00220521E0
:1015C000012004F065FC00220521022004F060FCEB
:1015D000012200E004E01146032004F059FC00E081
:1015E00000BF00BF70BD00003101002032010020AB
:1015F000740A00205E4C00205400002010B5002228
:101600000521104604F044FC00221A21012004F0B8
:101610003FFC01221146022004F03AFC002208217E
:10162000032004F035FC04F043FC4FF4FA7001F0A1
:1016300021FA10BD704770470021074AD161074960
:10164000096941F00401054A11611146096941F037
:10165000400111617047000030040020002002406A
:101660000021074AD1610749096941F00201054A91
:10167000116111464861096941F0400111617047EB
:1016800030040020002002400022054BDA61054AA8
:10169000126942F00102034B1A6101807047000099
:1016A000300400200020024000201E49C96801F0DB
:1016B000100139B11C49C96941F002011A4AD161CE
:1016C00040F010001749C96801F0040139B116490A
:1016D000C96941F00101144AD16140F00400114987
:1016E000C96901F0010169B10F49C96941F00401FB
:1016F0000D4AD16100BF0B49C96921F00101094AB6
:10170000D16100BF00BF40F20111884206D10549F6
:10171000C96921F00101034AD16101E00149C860B2
:1017200000BF7047002002403004002070B504461E
:1017300001F088FC054609E0601C38B124B101F0D5
:1017400081FC401BA04201D9032070BD1248C06833
:1017500000F001000028EFD10F48C06800F0200021
:1017600020B100BF20200C49C86000BF0A48C068F3
:1017700000F0100048B90848C06900F0010020B925
:101780000548C06800F0040018B1FFF78DFF012084
:10179000DBE70020D9E700000020024070B50446D6
:1017A000B3F5804F13D1D1E9000540EA05108D68EB
:1017B00040EA05208D6928438D8940EA054054F8A8
:1017C0002250064E3540284344F8220003E06FF0D3
:1017D000704044F82200002070BD00000000F0CFEF
:1017E00070B50246086852F8200020F001000E682B
:1017F00042F826008868082801D1402300E0002331
:10180000486818438E683043CE6830430E693043D1
:101810004E693043CE6930430E6A30434E6A3043DE
:101820008E6A3043CE6A30430E6B40EA0604886904
:101830000443486B0443074D45F4806545F4E025B7
:10184000086852F82000A84320430E6842F826009A
:10185000002070BD7FFB080010B50346D1E90004ED
:1018600040EA04108C6840EA04208C8940EA044471
:10187000088A401E44EA0054087D801E44EA006045
:101880008C692043541C53F8244004F04044204306
:10189000541C43F82400002010BD000010B586B091
:1018A000002001908248834908600846006800686B
:1018B0008149086008460068401C002877D17421DF
:1018C0007E48FEF782FC00207C4908607CA17B48B2
:1018D000001DFEF7C2FC7DA178481030FEF7BDFC6C
:1018E0007CA176482430FEF7B8FC7DA173483830DF
:1018F000FEF7B3FC7DA171484C30FEF7AEFC41F21F
:1019000088306E49A1F86000C02081F86200A821EB
:101910006A4880F86310002180F864105A2180F82A
:10192000651041F288306549A1F86600002081F811
:10193000680081F86900802081F86A00002081F841
:101940006B000A215D4880F86C10DC2180F86D1076
:10195000572180F86E10F72180F86F10882180F8E9
:1019600070100020554981F8710072B601F050F9ED
:1019700000BF34206049C86000BF00204E490860A5
:101980001CE0002002904C4800684949084404903B
:101990000120059001A902A801F080F840B101F0F2
:1019A000D5F862B655A007F041FE06B010BD34E090
:1019B0004148006800F500603F4908603E48006803
:1019C000B0F5005FDDD33D48524908601BE0514847
:1019D000006804682246002336480168022001F0AE
:1019E000BFF830B101F0B2F862B64BA007F01EFEAE
:1019F000DBE730480068001D2E4908604548006854
:101A0000001D444908602B48006829497431884208
:101A1000DDD301F09BF862B642E0742026490860ED
:101A200014E02548006822494058414908600846AA
:101A30000068401C28B92048006874381E490860B6
:101A40000AE01D48006874301B4908601A480068A5
:101A500041F68C718842E4D300BF18482D490860D4
:101A60001548006812490844124908600FE01148FF
:101A7000006800682749096808600E480068001D72
:101A80000C49086023480068001D224908600A4884
:101A90000068074908447430064909688842E6D856
:101AA000064890F868002349087000BF7DE70000F1
:101AB00000C003084400002048000020700A0020F5
:101AC0003030303030303030333500006970746978
:101AD0006D65000030333235303832303437000035
:101AE0004D4347573030303335000000736F6C6121
:101AF000723130303000000000200240466C6173CB
:101B000068204572617365204572726F7221210AE7
:101B10000000000050000020466C61736820507285
:101B20006F6772616D204572726F7221210A000029
:101B30004C0000203201002030B587B00020029018
:101B400033480068334908447430019072B601F09C
:101B50005FF800BF34203049C86000BF2F490198AA
:101B6000884228D300202E4908601BE00020039003
:101B70002B4800682749084405900120069002A9D7
:101B800003A800F08BFF38B100F0E0FF62B625A09B
:101B900007F04CFD07B030BD2148006800F500603B
:101BA0001F4908601E480068B0F5005FDED30020C2
:101BB0001749086004E0164800687430144908604A
:101BC00013480068134908440190114C12E025683D
:101BD0002A4600230220019900F0C2FF30B100F034
:101BE000B5FF62B615A007F021FDD3E70198001DEF
:101BF0000190241D06480068064908447430019984
:101C00008842E4D800F0A2FF62B600BFC2E700003D
:101C1000700A002000C003080020024030DE0308E4
:101C200048000020466C617368204572617365202E
:101C30004572726F7221210A00000000466C6173C8
:101C4000682050726F6772616D204572726F7221E9
:101C5000210A000070B5334805880088401E3249CB
:101C60000C5C082C01D07F2C20D100202F4908705B
:101C7000012D13D92B480088801E2A490880002096
:101C80002949284A12888854082004F0F9F92020AC
:101C900004F0F6F9082004F0F3F941E000202149AE
:101CA000088021491F4A1288885439E01D4800885D
:101CB000FF2801DC0D2C17D101201C4908700D20D4
:101CC00004F0DEF90A2004F0DBF90120184908705D
:101CD000002114480088401E134A115411480088FE
:101CE000401E104908801BE01B2C13D101200F4916
:101CF00008700D2004F0C4F90A2004F0C1F9012095
:101D00000B490870002008490870064908800949F5
:101D1000087005E0002005490870204604F0B0F97D
:101D200070BD00003A000020500400203700002061
:101D3000420000203600002070B53448007810B111
:101D400001285FD109E032A007F096FC0220344957
:101D5000088001202D49087055E03248007800289D
:101D600042D000203049314A1288885430A12E4890
:101D7000FEF77CFA0546012428E0601CC4B22CA1C1
:101D80000020FEF773FA0546042C1FD12846FEF703
:101D90004FFA022819D300240DE0285D2D2808D021
:101DA000285D302802DD285D392802DB0020285517
:101DB00006E0601CC4B22846FEF73AFAA042ECD80E
:101DC00000BF29461B48FEF748FA01E0002DD4D198
:101DD00000BF0A20184908800020124908701349E2
:101DE00008800A4908700CE00D48008848B90A20AC
:101DF0001149088000200B4908700C4908800349EC
:101E0000087000E000BF00BF70BD00001801002096
:101E100041542B43574A41505F4355523F0A0000FB
:101E20001E0100200D0100205E4600201001002050
:101E30002C0000005E4C002022010020F8B5044672
:101E400000260020009000BF94F82400012801D152
:101E50000220F8BD012084F8240000BF2046FEF7D0
:101E60008FFD0646002E62D1A06A20F4885040F013
:101E70000200A062022001F08DFA30490968B1FB2E
:101E8000F0F04000009002E00098401E00900098A2
:101E90000028F9D12046FEF7DBFD2068806840F07D
:101EA00008002168886001F0CDF8054611E001F0D6
:101EB000C9F8401B0A280CD9A06A20F0020040F0A3
:101EC0001000A06200BF002084F8240000BF0120A1
:101ED000BFE72068806800F008000028E7D120688C
:101EE000806840F004002168886001F0ABF8054686
:101EF00011E001F0A7F8401B0A280CD9A06A20F0D5
:101F0000020040F01000A06200BF002084F824000E
:101F100000BF01209DE72068806800F004000028D1
:101F2000E7D1A06A20F0020040F00100A06200BFEB
:101F3000002084F8240000BF30468AE720000020FB
:101F40007047000038B5024600230020009000BF13
:101F500092F82400012801D1022038BD012082F826
:101F6000240000BF4868072812D21068406B0C7923
:101F7000641E04EB84051F24AC40A0430D796D1E44
:101F800005EB85050C68AC4020431468606327E0CE
:101F900048680D2812D21068006B0C79E41F04EB1E
:101FA00084051F24AC40A0430D79ED1F05EB85058A
:101FB0000C68AC4020431468206311E01068C06ACC
:101FC0000C790D3C04EB84051F24AC40A0430D7933
:101FD0000D3D05EB85050C68AC4020431468E062BC
:101FE00008680A2812D31068C0680C780A3C04EB11
:101FF00044050724AC40A0430D780A3D05EB450598
:102000008C68AC4020431468E0600FE01068006901
:102010000C7804EB44050724AC40A0430D7805EB95
:1020200045058C68AC40204314682061086810287E
:1020300002D00868112827D1174C1068A0421ED181
:102040001068806800F40000F0B91068806840F4FF
:1020500000001468A0600868102815D10F480068B7
:102060000F4CB0FBF4F000EB80004000009002E069
:102070000098401E009000980028F9D104E0906A72
:1020800040F020009062012300BF002082F824006D
:1020900000BF184661E70000002401402000002036
:1020A00040420F007047704770470146886A70478A
:1020B00010B504462068406800F0200020282FD189
:1020C0002068006800F00200022829D1A06A00F010
:1020D000100018B9A06A40F40070A06220688068FF
:1020E00000F46020B0F5602F13D1207B88B9206800
:1020F000406820F0200021684860A06A20F48070C9
:10210000A062A06A00F4805018B9A06A40F00100F3
:10211000A0622046FFF7C6FF6FF01200216808603A
:102120002068406800F0800080283BD1206800686B
:1021300000F00400042835D1A06A00F0100018B99E
:10214000A06A40F40050A0622068806800F4E0407B
:10215000B0F5E04F0DD02068406800F48060D0B941
:102160002068806800F46020B0F5602F13D1207BD8
:1021700088B92068406820F0800021684860A06A23
:1021800020F48050A062A06A00F4807018B9A06AA0
:1021900040F00100A0622046FFF7D2FE6FF00C0075
:1021A000216808602068406800F0400040280FD196
:1021B0002068006800F0010050B1A06A40F480304F
:1021C000A062204600F0B6F86FF0010021680860B8
:1021D00010BD00002DE9F04104460027002500262F
:1021E000A84614B90120BDE8F081A06810B1207D97
:1021F00000B100BFA06A30B90020E06284F824007A
:10220000204600F099F82046FEF7BAFB0746A06A80
:1022100000F01000002873D1002F7ED1A06A20F4B6
:10222000885040F00200A0623F4AD4E90001904289
:1022300008D1E069B0F5402F02D14FF4002002E050
:10224000E06900E0E0690143207B41EA4000064389
:10225000A068B0F5807F02D0A068012802D14FF4B9
:10226000807000E000200543207D012811D1207BF3
:1022700038B9A069401E4FF4006141EA403005437F
:1022800007E0A06A40F02000A062E06A40F0010090
:10229000E0622068406820F4694028432168486073
:1022A0002068806821490840304321688860A06820
:1022B000B0F5807F02D0A068012802D14FF4807071
:1022C00000E00020B0F5807F03D1208A401E4FEA55
:1022D00000582068C06A20F4700040EA08002168B5
:1022E000C8622068806812490840B04209D10020C5
:1022F000E062A06A20F0020040F00100A06211E05C
:102300000BE0A06A20F0020040F01000A062E06A3A
:1023100040F00100E062012704E0A06A40F01000F4
:10232000A062012738465EE7003C0140FDF7E1FF6F
:10233000FE0E1FFF7047000038B504461B49206899
:10234000884231D100BF1A48806940F400701849B2
:1023500088610846806900F40070009000BF00BFEB
:102360001448154908600020486000211248816027
:102370008021C16049000161C90041612021816162
:102380000902C16100F0E2FA08B1FFF753F900BF9A
:1023900009482062446200BF00221146122000F06A
:1023A000A6FF122000F093FF38BD0000002401407A
:1023B0000010024008000240240200202DE9F041F4
:1023C00004460D461646002757492068884203D028
:1023D00056492068884205D15348001D006800F422
:1023E000702000E0002000287ED100BF94F8240077
:1023F000012802D10220BDE8F081012084F82400E8
:1024000000BF2046FEF724FB0746002F6DD1A06ACF
:1024100040F60161884340F48070A062434920681F
:10242000884209D14048001D006800F4702008B9B6
:10243000012002E0002000E0012078B1A06A20F431
:102440008010A0622068406800F4806000B3A06A39
:1024500020F4005040F48050A06219E0A06A40F4DB
:102460008010A06230492068884203D02F4920683C
:10247000884205D12C48001D006800F4806000E00F
:10248000002028B1A06A20F4005040F48050A062DF
:10249000A06A00F4805020B1E06A20F00600E062FB
:1024A00001E00020E06200BF002084F8240000BFAB
:1024B0001F48216A88621F48216AC8621E48216A33
:1024C00008636FF00200216808602068806840F4AB
:1024D000807021688860226802F14C0133462A46E8
:1024E000206A00F079FA01E01AE014E020688068C0
:1024F00000F46020B0F5602F06D12068806840F4B9
:10250000A000216888600CE02068806840F480109A
:102510002168886005E000BF002084F8240000E006
:102520000127384667E700000024014000280140E9
:10253000D3090008430A0008250A000870B50346BD
:102540000C46002002255D71002104E054F8215062
:102550001E683560491C9142F8D31D682868012522
:102560005D7170BD10B504460CB9012010BD6079D5
:1025700020B900202071204600F004F8012060718D
:102580000020F3E708B5094A016891420DD100BF68
:102590000749496941F04001054A516111464969BD
:1025A00001F04001009100BF00BF08BD00300240B3
:1025B0000010024070B50446E06B056820680668AC
:1025C00094F84010042088402840002875D006F078
:1025D00004000028FAD02068006800F0200028B924
:1025E0002068006820F0040021680860D549206850
:1025F000884254D9D34978392068884201D10420CF
:1026000049E0D04964392068884201D1402042E045
:10261000CC4950392068884201D100153BE0C949B6
:102620003C392068884202D14FF4804033E0C549EC
:1026300028392068884202D14FF480202BE0C1491C
:1026400014392068884202D14FF4800023E0BD494C
:102650002068884201D1C0041DE0BB49206888423F
:1026600001D1042017E0B84914312068884201D113
:10267000402010E0B44928312068884201D100157B
:1026800009E0B1493C312068884202D14FF48040D2
:1026900001E04FF48020AC49091F086054E0A949CB
:1026A00078392068884201D104204AE0A54964397C
:1026B0002068884202D1402043E04CE0A1495039D3
:1026C0002068884201D100153BE09E493C392068D2
:1026D000884202D14FF4804033E09A49283920687B
:1026E000884202D14FF480202BE0964914392068AB
:1026F000884202D14FF4800023E09249206888424A
:1027000001D1C0041DE090492068884201D1042015
:1027100017E08D4914312068884201D1402010E033
:10272000894928312068884201D1001509E086498D
:102730003C312068884202D14FF4804001E04FF4E0
:102740008020804980394860E06A002802D0204615
:10275000E16A8847F4E094F840100220884028405D
:10276000002871D006F002000028FAD02068006826
:1027700000F0200040B92068006820F00A002168BD
:102780000860012084F821006E492068884254D9ED
:102790006C4978392068884201D1022049E06949B2
:1027A00064392068884201D1202042E065495039CF
:1027B0002068884201D140153BE062493C392068DD
:1027C000884202D14FF4005033E05E492839206836
:1027D000884202D14FF400302BE05A491439206866
:1027E000884202D14FF4001023E056492068884205
:1027F00001D180041DE054492068884201D10220A3
:1028000017E0514914312068884201D1202010E09E
:102810004D4928312068884201D1401509E04A49D4
:102820003C312068884202D14FF4005001E04FF45F
:1028300000304549091F086054E042497839206852
:10284000884202D102204AE057E03E4964392068BC
:10285000884201D1202042E03A495039206888421C
:1028600001D140153BE037493C392068884202D10C
:102870004FF4005033E0334928392068884202D1B0
:102880004FF400302BE02F4914392068884202D1E0
:102890004FF4001023E02B492068884201D18004C6
:1028A0001DE029492068884201D1022017E026490D
:1028B00014312068884201D1202010E022492831BB
:1028C0002068884201D1401509E01F493C31206849
:1028D000884202D14FF4005001E04FF40030194912
:1028E0008039486000BF002084F8200000BFA06A43
:1028F00030B32046A16A884722E094F840100820AF
:1029000088402840E0B106F00800C8B1206800689F
:1029100020F00E002168086094F8401001208840E3
:10292000E16B48600120A06384F8210000BF002013
:1029300084F8200000BF206B10B12046216B88472F
:1029400070BD0000800002400804024001460022E1
:1029500009B9012070471E4B086898420BD21D4BE5
:102960000868C01A1423B0FBF3F08000086419480B
:102970000838C8630AE0164B0868C01A1423B0FB75
:10298000F3F08000086412480838C863022081F818
:1029900021000868026843F6F0708243D1E9010320
:1029A0001843CB6818430B6918434B6918438B696C
:1029B0001843CB691843024308680260002088630B
:1029C000012081F82100002081F8200000BFC1E72C
:1029D00008040240080002402DE9F04104460D467B
:1029E00016461F464FF0000800BF94F8200001284B
:1029F00002D10220BDE8F081012084F8200000BF50
:102A000094F8210001282CD1022084F82100002014
:102A1000A0632068006820F00100216808603B4640
:102A2000324629462046FEF707FBE06A30B12068AF
:102A3000006840F00E00216808600BE02068006824
:102A400020F00400216808602068006840F00A0057
:102A5000216808602068006840F001002168086073
:102A600006E000BF002084F8200000BF4FF00208FD
:102A70004046BFE770B5044600F0E4FA0646254636
:102A8000681C10B104480078054400BF00F0DAFA71
:102A9000801BA842FAD370BD180000202DE9F04138
:102AA00004460E460127002500BF2648007E012867
:102AB00002D10220BDE8F08101202249087600BF42
:102AC0002068022813D14CF25030FEF72FFE90BB45
:102AD0000120FEF7B1FD4CF25030FEF727FE07460D
:102AE0001948006920F004001749086123E04CF2FE
:102AF0005030FEF71BFEF0B94FF0FF303060A56894
:102B000012E02846FEF7ACFD4CF25030FEF70EFE08
:102B100007460D48006920F002000B4908610FB11B
:102B2000356007E005F50065D4E9021001EBC0202F
:102B3000A842E6D800BF00BF00200249087600BFC7
:102B40003846B7E7300400200020024003480069FF
:102B500040F08000014908610020704700200240D9
:102B60002DE9FE4F05468B46174698460126002460
:102B70000020029000BF2448007E012802D10220DC
:102B8000BDE8FE8F01202049087600BF4CF250308E
:102B9000FEF7CCFD064686BB012D02D10120029036
:102BA00006E0022D02D10220029001E004200290F2
:102BB00000241EE02201B946C24648465146FDF7B0
:102BC000D5FA80B20190022000FB04B00090019978
:102BD000FEF75AFD4CF25030FEF7A8FD06460B48B2
:102BE000006920F001000949086106B104E0601C99
:102BF000C4B202988442DDDB00BF00BF002002495E
:102C0000087600BF3046BBE73004002000200240B9
:102C100000200849096901F0800151B10649054ABF
:102C20005160064951601146096901F0800101B106
:102C3000012070470020024023016745AB89EFCD9A
:102C400000B585B0002001900290039004901C48CC
:102C5000006808B105B000BD01201949086000BF37
:102C60001848406940F48070164948610846406938
:102C700000F48070009000BF00BF4FF4F06001903E
:102C8000022002900320049001A90F4800F022F8CE
:102C90004CF2B3000190022002900320049001A99D
:102CA0000A4800F017F880200190022002900320CB
:102CB000049001A9064800F00DF800BFCAE7000023
:102CC00008000020001002400018014000140140DC
:102CD000000C01402DE9F847024600239C467BE1A9
:102CE0004FF0010808FA03F4D1F8008008EA040064
:102CF000A0427DD1DFF8F4A2D1F80480A8EB0A0944
:102D0000D0453AD014DCB8F1030F50D009DCB8F14B
:102D1000000F31D0B8F1010F1CD0B8F1020F49D12A
:102D200020E0B8F1110F18D0B8F1120F42D11EE017
:102D3000B9F5881F25D006DCB9F5803F20D0B9F55C
:102D4000801F37D11AE0B9F5001F18D0B9F5041F5C
:102D500030D117E0D1F80CC02DE0D1F80C8008F18B
:102D6000040C28E0D1F80C8008F1080C23E0D1F81D
:102D70000C8008F10C0C1EE000BF00BF00BF00BFBC
:102D800000BF00BFD1F80880B8F1000F02D14FF0AA
:102D9000040C0BE0D1F80880B8F1010F03D14FF01B
:102DA000080C146102E04FF0080C546103E04FF08E
:102DB000000C00E000BF00BFFF2801D8904601E0F2
:102DC00002F104084646FF2802D84FEA830803E0D0
:102DD000A3F108084FEA88084746D6F800804FF06C
:102DE0000F0909FA07F928EA09080CFA07F900E0BF
:102DF0007AE048EA0908C6F80080D1F8048008F0B3
:102E00008058B8F1805F6FD100BFDFF8E481D8F857
:102E1000188048F00108DFF8D891C9F81880C84632
:102E2000D8F8188008F00108CDF8008000BF00BF76
:102E30004FEAB9384FEA930958F829504FEA837896
:102E40004FEA18794FF00F0808FA09F825EA080543
:102E5000DFF8A081424502D14FF0000824E0DFF8FE
:102E60009881424502D14FF001081DE0DFF88C81C6
:102E7000424502D14FF0020816E0DFF88481424556
:102E800002D14FF003080FE0DFF87881424502D10C
:102E90004FF0040808E0DFF87081424502D14FF09E
:102EA000050801E04FF006084FEA83794FEA1979E7
:102EB00008FA09F848EA0505DFF850814FEA930956
:102EC00048F82950D1F8048008F48038B8F5803FDC
:102ED0000BD1DFF83C81D8F8008048EA0008DFF821
:102EE0003091C9F800800AE075E0DFF82481D8F855
:102EF000008028EA0008DFF81891C9F80080D1F8AE
:102F0000048008F40038B8F5003F0ED1DFF80081E6
:102F100008F10408D8F8008048EA0008DFF8F090CB
:102F200009F10409C9F800800DE0DFF8E48008F138
:102F30000408D8F8008028EA0008DFF8D49009F1E6
:102F40000409C9F80080D1F8048008F48018B8F5A5
:102F5000801F0ED1DFF8B88008F10808D8F800808B
:102F600048EA0008DFF8A89009F10809C9F80080CC
:102F70000DE0DFF89C8008F10808D8F8008028EA06
:102F80000008DFF88C9009F10809C9F80080D1F831
:102F9000048008F40018B8F5001F0ED1DFF8708027
:102FA00008F10C08D8F8008048EA0008DFF86090C3
:102FB00009F10C09C9F800800DE0DFF8548008F130
:102FC0000C08D8F8008028EA0008DFF8449009F1DE
:102FD0000C09C9F800805B1CD1F8008028FA03F8BE
:102FE000B8F1000F7FF47CAEBDE8F8870000111047
:102FF0000010024000080140000C01400010014098
:103000000014014000180140001C0140080001406C
:1030100000040140024693680B400BB1012000E020
:103020000020704710B5C26821EA020302EA0104D9
:1030300043EA0443036110BD0AB1016101E00B04DE
:1030400003617047014800687047000010000020CD
:10305000034800680349097808440149086070473B
:10306000100000201800002010B50848006840F04B
:10307000100006490860032000F078F9002000F0F5
:1030800007F800F02BF8002010BD000000200240DF
:1030900070B504460E4800784FF47A71B1FBF0F039
:1030A0000C490968B1FBF0F5284600F0B1FE08B103
:1030B000012070BD102C07D200222146501E00F0C6
:1030C00016F90548046001E00120F2E70020F0E76E
:1030D00018000020200000201400002008B500BFC8
:1030E0001148806940F001000F49886108468069F5
:1030F00000F00100009000BF00BF00BF0846C0699B
:1031000040F08050C8610846C06900F080500090CF
:1031100000BF00BF00BF0549486820F0E06040F0F4
:103120000070486000BF08BD001002400000014070
:103130002DE9F04104460F46164614B90120BDE8BA
:10314000F08194F8410028B9002084F8400020461E
:1031500000F060F804F108012068FEF741FB3946F1
:10316000A2682068FEF778FB3146236BD4E90102A0
:10317000FEF714FBA168206850F8210040F0010020
:10318000A268216841F82200606918B9002020492E
:10319000086002E001201E490860012084F8410017
:1031A000A06810B94FF0C0450DE0A068022802D118
:1031B0004FF0C84507E0A068042802D14FF0D04581
:1031C00001E04FF0D84500BF982111480068012860
:1031D00002D105F1AA0001E005F15500018000BF10
:1031E00000BF00BFBFF34F8F00BF00BF00BF00BFD5
:1031F00007480068012802D105F1260001E005F129
:10320000130000886064204600F009F897E700008A
:103210001C00002010B50446FFF712FD10BD10B5CC
:103220000146002491F84130022B01D1022010BD4B
:10323000012B01D0042B46D100BF91F8400001289A
:1032400001D10220F3E7012081F8400000BF0220F5
:1032500081F84100886810B94FF0C0420DE08868DD
:10326000022802D14FF0C84207E08868042802D142
:103270004FF0D04201E04FF0D842486C02280BD109
:1032800000BFF020108000BF00BF00BFBFF34F8F12
:1032900000BF00BF00BF0FE0486C01280BD100BF8A
:1032A000FF20108000BF00BF00BFBFF34F8F00BFE3
:1032B00000BF00BF00E0012481F8413000BF0020C2
:1032C00081F8400001E00120B1E72046AFE7014668
:1032D0000846002809DB00F01F0301229A40430939
:1032E0009B0003F1E023C3F8002100BF70472DE9E4
:1032F000F05F80460D461646002704F069FD07463C
:1033000039462A46334601F00700C0F1070ABAF1F0
:10331000040F02D94FF0040A01E0C0F1070AD146B8
:1033200000F1040ABAF1070F02D24FF0000A01E0DF
:10333000A0F1030AD4464FF0010A0AFA09FAAAF1E9
:10334000010A0AEA020A0AFA0CFA4FF0010B0BFA18
:103350000CFBABF1010B0BEA030B4AEA0B04214611
:10336000404604F03DFDBDE8F09F000000BF00F0C6
:103370000702064B19684FF6FF031940044B0B4335
:1033800043EA0221014B196000BF70470CED00E0D9
:103390000000FA052DE9F04385B0064642A30FCBA5
:1033A00001AC0FC444A0006800904FF00008002555
:1033B00000270024A146042E36D004DC012E3BD089
:1033C000022E6BD15FE0082E32D0102E66D13B4822
:1033D0004468006800F0807000B301A8C4F3834122
:1033E000475C04F4803070B134484068C0F340401A
:1033F0001DF8008004F4803040B13148B0FBF8F093
:1034000000FB07F502E02F4807FB00F52B4840685A
:1034100000F48000B0F5800F01D1A94603E06800F8
:103420000321B0FBF1F93AE000F0D2F9814636E031
:1034300000F0CEF9814632E02048046A04F440707E
:10344000B0F5807F05D104F0020010B14FF40049BF
:1034500018E004F44070B0F5007F07D11748406AC7
:1034600000F0020010B149F640490BE004F440704E
:10347000B0F5407F06D11148006800F4003008B173
:103480004FF224490BE000F093F90C494968C1F36D
:103490008131491C4900B0FBF1F900E000BF00BFD9
:1034A000484605B0BDE8F083020304050607080995
:1034B0000A0B0C0D0E0F101001020000001002404C
:1034C00000127A0000093D00F8B5044600260025E8
:1034D000207800F0010000286BD000274348C06925
:1034E00000F0805070B900BF4048C06940F0805083
:1034F0003E49C8610846C06900F08050009000BF96
:1035000000BF01273A48006800F48070B0B938481D
:10351000006840F4807036490860FFF793FD064666
:1035200006E0FFF78FFD801B642801D90320F8BD5A
:103530002F48006800F480700028F2D02B48006A01
:1035400000F440752DB3A08800F44070A84220D04C
:103550002648006A20F440750120264908600020B2
:1035600008602248056205F0010090B1FFF76AFD8E
:10357000064608E0FFF766FD801B41F2883188426D
:1035800001D90320D3E71948006A00F0020000289F
:10359000F0D01648006A20F440706168084313496F
:1035A0000862012F04D10846C06920F08050C8612C
:1035B00000BF207800F00200022807D10B484068C5
:1035C00020F44040A168084308494860207800F092
:1035D0001000102807D10548406820F48000616978
:1035E0000843024948600020A1E7000000100240A3
:1035F000007000404004424270B504460D460CB9CC
:10360000012070BD5A48006800F00700A8420ED2A1
:103610005748006820F007002843554908600846CD
:10362000006800F00700A84201D00120E9E72078F7
:1036300000F0020002281DD1207800F004000428C8
:1036400005D14C48406840F4E0604A494860207821
:1036500000F00800082805D14648406840F4605052
:10366000444948604348406820F0F000A16808439E
:1036700040494860207800F0010078B36068012874
:1036800006D13C48006800F4003090B90120B8E74A
:103690006068022806D13748006800F0007040B921
:1036A0000120AEE73348006800F0020008B90120AD
:1036B000A7E73048406820F00300616808432D49BF
:1036C0004860FFF7BFFC064609E0FFF7BBFC801B24
:1036D00041F28831884202D9032092E707E0254869
:1036E000406800F00C006168B0EB810FEDD120481C
:1036F000006800F00700A8420ED91D48006820F0BD
:10370000070028431A4908600846006800F00700CF
:10371000A84201D0012074E7207800F004000428BA
:1037200007D11448406820F4E060E168084311497B
:103730004860207800F00800082808D10D4840684B
:1037400020F46050216940EAC1000A49486000F055
:103750003FF808494968C1F30311074A515CC84062
:103760000649086006480068FFF792FC002048E719
:10377000002002400010024058B400082000002041
:10378000140000200148006870470000200000205D
:1037900000B5FFF7F7FF04494968C1F30221034A66
:1037A000515CC84000BD00000010024068B4000831
:1037B00000B5FFF7E7FF04494968C1F3C221034A96
:1037C000515CC84000BD00000010024068B4000811
:1037D000F0B585B00FF26C0C9CE8E01001A8A0E8F1
:1037E000E0101CA52D680095002100220023002474
:1037F0000020194D696801F00C05F5B1042D02D0C7
:10380000082D19D101E0154819E001ADC1F3834637
:10381000AC5D01F4803555B10F4D6D68C5F3404581
:103820001DF805200D4D6543B5FBF2F302E00C4D8C
:1038300004FB05F3184602E000BF084800BF00BFC4
:1038400005B0F0BD02030405060708090A0B0C0DBC
:103850000E0F1010010200000010024000127A004A
:1038600000093D00F8B504460CB90120F8BD2078E8
:1038700000F00100002878D0F848406800F00C0003
:1038800004280CD0F548406800F00C00082811D13D
:10389000F248406800F48030B0F5803F0AD1EF482C
:1038A000006800F4003000285FD0606800285CD118
:1038B0000120DBE700BF6068B0F5803F06D1E74834
:1038C000006840F48030E549086028E0606858B935
:1038D000E248006820F48030E0490860084600684B
:1038E00020F4802008601AE06068B0F5A02F0BD1AA
:1038F000DA48006840F48020D8490860084600682B
:1039000040F4803008600AE0D448006820F4803039
:10391000D24908600846006820F48020086000BF93
:10392000606888B1FFF78EFB054606E0FFF78AFB6B
:10393000401B642801D9032098E7C848006800F4B8
:1039400000300028F2D010E0FFF77CFB054606E0CF
:10395000FFF778FB401B642801D9032086E7BF48A6
:10396000006800F400300028F2D1207800F0020056
:10397000022857D1B948406800F00C0050B1B74850
:10398000406800F00C00082818D1B448406800F4E2
:10399000803098B9B148006800F0020020B1206979
:1039A000012801D0012061E7AC48006820F0F80050
:1039B000616940EAC100A949086033E02069E8B1C3
:1039C0000120A7490860FFF73DFB054606E0FFF729
:1039D00039FB401B022801D9032047E79F480068B4
:1039E00000F002000028F2D09C48006820F0F800A7
:1039F000616940EAC1009949086013E000209849D4
:103A00000860FFF71FFB054606E0FFF71BFB401BA6
:103A1000022801D9032029E79048006800F002003D
:103A20000028F2D1207800F0080008282DD1A069E4
:103A3000B8B101208B490860FFF704FB054606E09A
:103A4000FFF700FB401B022801D903200EE7834843
:103A5000406A00F002000028F2D0012002F078F85D
:103A600013E000207F490860FFF7ECFA054606E006
:103A7000FFF7E8FA401B022801D90320F6E6774851
:103A8000406A00F002000028F2D1207800F0040023
:103A9000042873D100277148C06900F0805070B9C4
:103AA00000BF6E48C06940F080506C49C86108464C
:103AB000C06900F08050009000BF00BF01276A4835
:103AC000006800F48070B0B96748006840F4807006
:103AD00065490860FFF7B6FA054606E0FFF7B2FA57
:103AE000401B642801D90320C0E65F48006800F449
:103AF00080700028F2D000BFE068012806D1574846
:103B0000006A40F001005549086227E0E06858B9B2
:103B10005248006A20F00100504908620846006AD5
:103B200020F00400086219E0E06805280BD14B483A
:103B3000006A40F00400494908620846006A40F003
:103B4000010008620AE04548006A20F0010043498C
:103B500008620846006A20F00400086200BFE068BE
:103B6000A0B1FFF76FFA054609E0FFF76BFA401BBB
:103B700041F28831884202D9032077E622E03748B3
:103B8000006A00F002000028EFD012E0FFF75AFAB6
:103B9000054608E0FFF756FA401B41F2883188429B
:103BA00001D9032062E62D48006A00F002000028D7
:103BB000F0D1012F05D12948C06920F08050274954
:103BC000C86100BFE069C8B32448406800F00C0039
:103BD000082860D0E069022848D100202049086602
:103BE000FFF730FA054606E0FFF72CFA401B0228E3
:103BF00001D903203AE61948006800F00070002857
:103C0000F2D1206AB0F5803F07D11448406820F413
:103C10000030A168084311494860D4E9080108430D
:103C20000E49496821F4741108430C494860012089
:103C30000B490866FFF706FA054607E03DE0FFF787
:103C400001FA401B022801D903200FE6034800684F
:103C500000F000700028F2D02FE0000000100240B9
:103C6000000042428004424200700040002014499B
:103C70000866FFF7E7F9054606E0FFF7E3F9401BA2
:103C8000022801D90320F1E50E48006800F0007019
:103C90000028F2D111E0E069012800D1E6E50948E9
:103CA000466806F48031206A814204D106F470111E
:103CB000606A814201D00120D8E50020D6E50000ED
:103CC000000042420010024010B504460CB9012029
:103CD00010BD606A38B96068B0F5827F00D105E038
:103CE0000021E16102E00021216161610021A16206
:103CF00094F8510028B9002084F85000204600F0C4
:103D000043F8022084F851002068006820F0400049
:103D100021680860A08800F48270218901F40441C0
:103D20000843A18901F400610843217C01F00201EC
:103D30000843217D01F001010843218B01F400714A
:103D40000843217F01F0380108432021095D01F07B
:103D500080010843218D01F4005108432168086067
:103D60000421A06901EA1040216848602068C06908
:103D700020F400602168C86100206065012084F89B
:103D800051000020A4E7000010B586B004460020D2
:103D900002900390049005901A49206888422FD120
:103DA00000BF1948C06940F480401749C8610846FF
:103DB000C06900F48040019000BF00BF00BF08460A
:103DC000806940F0080088610846806900F00800BA
:103DD000019000BF00BF4FF42040029002200390EA
:103DE0000320059002A90948FEF774FF4FF48040B4
:103DF000029000200390049002A90448FEF76AFF95
:103E000006B010BD0038004000100240000C014018
:103E100070B504462546681EB0F1807F01D30120AD
:103E20000FE0681E4FF0E02148610F214FF0FF3096
:103E300003F0D6FF00204FF0E021886107200861E1
:103E4000002070BD30B502460B4600BF92F83C0022
:103E5000012801D1022030BD012082F83C0000BFC2
:103E6000022082F83D00106844681068816824F0E0
:103E700070041868044310684460144D1068A84228
:103E800013D0134D1068A8420FD01068B0F1804FC6
:103E90000BD0104D1068A84207D00F4D1068A842F3
:103EA00003D00E4D1068A84205D121F0800158685A
:103EB000014310688160012082F83D0000BF0020AE
:103EC00082F83C0000BF00BFC5E70000002C0140A5
:103ED000003401400004004000080040000C004095
:103EE00010B504460CB9012010BD94F83D0028B966
:103EF000002084F83C00204600F026F8022084F8D8
:103F00003D00211D206802F0DFFB012084F84600FF
:103F100000BF84F83E0001213F200155402001559B
:103F20004120015500BF00BF012084F8420043201A
:103F30000155442001554520015500BF012084F85A
:103F40003D000020D0E7000008B5094A0168914211
:103F50000DD100BF0749C96941F00401054AD1618B
:103F60001146C96901F00401009100BF00BF08BDFE
:103F700000080040001002402DE9F04104460D46C3
:103F800000BF94F83C00012802D10220BDE8F08176
:103F9000012084F83C0000BF022084F83D00206826
:103FA000866826F0770626F47F46206886602868B3
:103FB000502833D00CDC202850D004DC00284BD013
:103FC000102851D149E0302849D040284CD139E05F
:103FD00060282DD0702807D0B0F5805F03D0B0F5F1
:103FE000005F41D10DE040E0D5E902136A68206826
:103FF00002F0C9FB2068866846F077062068866074
:1040000033E0D5E902136A68206802F0BCFB20683F
:10401000806840F480402168886026E0EA6869682A
:10402000206802F0A1FC5021206802F0B7FB1CE0E0
:10403000EA686968206802F0AAFC6021206802F042
:10404000ADFB12E0EA686968206802F08DFC40214F
:10405000206802F0A3FB08E000BF00BF00BF296892
:10406000206802F09BFB00E000BF00BF012084F845
:104070003D0000BF002084F83C0000BF00BF85E782
:1040800010B586B00446002002900390049005907D
:104090000E492068884216D100BF0D48806940F063
:1040A00008000B4988610846806900F0080001900B
:1040B00000BF00BF4020029002200390059002A99B
:1040C0000448FEF707FE06B010BD000000080040DF
:1040D00000100240000C014070B504460D46164623
:1040E00000BF94F83C00012801D1022070BD0120DE
:1040F00084F83C0000BF36B1042E1BD0082E31D00E
:104100000C2E5ED145E02946206802F051FB206864
:10411000806940F00800216888612068806920F08B
:104120000400216888612068806929690843216842
:10413000886147E02946206802F072FB20688069A8
:1041400040F40060216888612068806920F4806004
:104150002168886120688069296940EA0120216816
:1041600088612FE02946206802F098FB2068C0692A
:1041700040F008002168C8612068C06920F0040090
:104180002168C8612068C069296908432168C8613D
:1041900018E02946206802F0BDFB2068C06940F4A1
:1041A00000602168C8612068C06920F480602168CF
:1041B000C8612068C069296940EA01202168C86196
:1041C00000E000BF00BF00BF002084F83C0000BF3B
:1041D00000BF8BE710B504460CB9012010BD94F860
:1041E0003D0028B9002084F83C00204600F025F866
:1041F000022084F83D00211D206802F065FA0120AC
:1042000084F8460000BF84F83E0001213F2001559C
:10421000402001554120015500BF00BF012084F816
:10422000420043200155442001554520015500BF5F
:10423000012084F83D000020D0E7704770B50446A7
:104240000D4615B994F83E000BE0042D02D13F2035
:10425000005D06E0082D02D14020005D01E0412014
:10426000005D012801D0012070BD1DB9022084F835
:104270003E000EE0042D03D102213F20015508E04D
:10428000082D03D102214020015502E002214120E6
:10429000015501222946206802F064FA1F4920686E
:1042A000884203D01E492068884201D1012000E0E5
:1042B000002028B12068406C40F400402168486428
:1042C00016492068884213D01549206888420FD0CB
:1042D0002068B0F1804F0BD012492068884207D087
:1042E00011492068884203D01049206888420CD1C7
:1042F0002068806800F00706062E0CD02068006851
:1043000040F001002168086005E02068006840F086
:104310000100216808600020A6E70000002C014091
:10432000003401400004004000080040000C004040
:1043300030B504460D4600222946206802F012FAE4
:1043400023492068884203D022492068884201D14D
:10435000012000E0002090B100BF2068006A41F217
:104360001111084050B92068006A8910084028B926
:104370002068406C20F400402168486400BF00BF02
:104380002068006A41F21111084050B92068006AA3
:104390008910084028B92068006820F001002168D1
:1043A000086000BF1DB9012084F83E000EE0042D16
:1043B00003D101213F20015508E0082D03D101213F
:1043C0004020015502E0012141200155002030BD6F
:1043D000002C01400034014010B504460CB9012006
:1043E00010BDA06900B100E000BF94F8390028B901
:1043F000002084F83800204600F028F8242084F8B3
:1044000039002068C06820F400502168C860204648
:1044100002F0B4FE2068006920F490402168086131
:104420002068406920F02A00216848612068C0683F
:1044300040F400502168C8600020E063202084F828
:10444000390084F83A000020CAE7000010B586B0B1
:104450000446002002900390049005905B49206878
:10446000884238D100BF5A48806940F4804058499A
:1044700088610846806900F48040019000BF00BF59
:1044800000BF0846806940F00400886108468069E2
:1044900000F00400019000BF00BF48150290022008
:1044A00003900320059002A94A48FEF713FC4FF43D
:1044B00080600290002003900120049002A94548EA
:1044C000FEF708FC002211462520FEF710FF2520EC
:1044D000FEF7FDFE77E040492068884237D100BFF3
:1044E0003B48C06940F400303949C8610846C0699A
:1044F00000F40030019000BF00BF00BF0846806993
:1045000040F0040088610846806900F004000190D2
:1045100000BF00BF042002900220039003200590FA
:1045200002A92C48FEF7D6FB082002900020039039
:104530000120049002A92748FEF7CCFB0022114677
:104540002620FEF7D4FE2620FEF7C1FE3BE02349DD
:104550002068884237D100BF1D48C06940F48020E0
:104560001B49C8610846C06900F48020019000BF63
:1045700000BF00BF0846806940F008008861084617
:10458000806900F00800019000BF00BF081502908C
:10459000022003900320059002A91148FEF79AFB20
:1045A0004FF400600290002003900120049002A9C3
:1045B0000B48FEF78FFB002211462720FEF797FEDF
:1045C0002720FEF784FE06B010BD00000038014031
:1045D0000010024000080140004400400048004034
:1045E000000C014000BFFEE710B51A48007820B16A
:1045F00001280FD0022829D11BE000224FF40041EE
:104600001548FEF719FD02201449088001201149C0
:1046100008701CE01148008850B90122D1030E48EF
:10462000FEF70AFD05200D4908800220094908709F
:104630000DE001200A4908700020064908700A2090
:104640000649088007A004F0F1FF00E000BF00BFAA
:1046500010BD000019010020001801401E010020BB
:104660000A01002077696669207265736574206F9E
:104670006B7E7E21210A000010B5B84800780F2813
:104680007ED2DFE800F0081A293959698A9ABAD02F
:10469000F5F3F2F1F00001229103B148FEF7CCFCF2
:1046A00000224FF40041AE48FEF7C6FC0220AD499F
:1046B00008800120A94908704DE1AA48008850B936
:1046C0000122D103A648FEF7B7FC0520A5490880C2
:1046D0000220A24908703EE1A248008858B9A2A071
:1046E00004F0CAFFA0A004F0A1FF02209D490880A9
:1046F00003209A4908702EE19D48007880B19DA161
:104700009D48FBF76DFD28B10120964908800420E3
:1047100092490870002099490880954908700AE07C
:104720009048008838B90020944908809049087062
:1047300002208A4908700EE18A48008858B990A082
:1047400004F09AFF8EA004F071FF022085490880D2
:10475000052082490870FEE08548007888B185A16F
:104760008548FBF73DFD28B101207E4908800620E1
:104770007A4908700020814908807D4908700BE063
:10478000E8E07848008838B900207C4908807849FA
:104790000870042071490870DDE07248008858B93B
:1047A0007CA004F069FF7BA004F040FF02206D496B
:1047B0000880072069490870CDE06D48007880B115
:1047C0006CA16D48FBF70CFD28B1012065490880FC
:1047D0000820624908700020684908806449087010
:1047E0000AE06048008838B90020644908806049C0
:1047F0000870062059490870ADE05A48008888B909
:10480000694AA2F1140169A004F036FF664AA2F1D8
:10481000140166A004F00AFF1E20524908800920F6
:104820004E49087097E05248007880B151A1524833
:10483000FBF7D6FC28B101204A4908800A204749E5
:10484000087000204D490880494908700AE0454831
:10485000008838B900204949088045490870082077
:104860003E49087077E063E042E031E010E0FFE7A6
:104870003C48008858B955A004F0FEFE53A004F04F
:10488000D5FE0A20374908800B203449087062E0C1
:104890003748007880B137A13748FBF7A1FC28B131
:1048A0000220304908800C202C4908700020334930
:1048B00008802F4908700AE02A48008838B900208B
:1048C0002E4908802A4908700A202449087042E0CD
:1048D0002448008858B94CA004F0CEFE4AA004F049
:1048E000A5FE0A201F4908800D201C49087032E0EF
:1048F0001F48007880B11FA11F48FBF771FC28B149
:104900000120184908800E201449087000201B4916
:104910000880174908700AE01248008838B900205A
:1049200016490880124908700C200C49087012E0E2
:104930000120434908700020424908700749087067
:1049400000224FF480410648FEF776FB3EA004F0BB
:104950006DFE00E000BF00BF10BD00001901002087
:10496000001801401E010020415445300A0000009B
:104970000D0100204F4B00005E460020100100207A
:1049800041542B43574D4F44455F4355523D320AE6
:104990000000000041542B4357444843505F4355A7
:1049A000523D302C310A0000BC0A002041542B43F8
:1049B000575341505F4355523D222573222C2225E7
:1049C00073222C312C332C342C300A0041542B43CD
:1049D000495041505F4355523D223139322E3136D4
:1049E000382E33362E31222C223139322E313638C0
:1049F0002E33362E31222C223235352E3235352EBD
:104A00003235352E30220A0041542B435744484357
:104A100050535F4355523D312C3132302C223139C5
:104A2000322E3136382E33362E313030222C223190
:104A300039322E3136382E33362E323030220A00BB
:104A40000A0100200B0100207769666920536F6618
:104A500074204150206D6F646520696E6974206F09
:104A60006B7E7E21210A000010B5D94800780D2800
:104A700070D2DFE800F007192B407085B4C9FDFB48
:104A8000FAF9F80001229103D248FEF7D5FA002284
:104A90004FF40041CF48FEF7CFFA0220CE490880FC
:104AA0000120CB49087091E1CB48008868B9012208
:104AB000D103C848FEF7C0FA0520C7490880022084
:104AC000C34908700020C54908707FE1C2480088CA
:104AD00080B9C3A004F0D0FDC1A004F0A7FD02205E
:104AE000BD4908800320BA4908700020BE490880EB
:104AF000BE4908706AE1BD48007898B1BCA1BD48C4
:104B0000FBF76EFB40B10120B34908800420B04997
:104B100008700020B14908700020B3490880B349EB
:104B2000087016E0AC48008898B90020AE490880AB
:104B3000AE4908700220A6490870A8480078401CB9
:104B4000A649087008460078032802DB0020A04927
:104B500008703BE139E1A048008880B9A6A004F0C4
:104B60008BFDA5A004F062FD02209B490880052072
:104B70009749087000209C4908809C49087025E1ED
:104B80009A48007898B19AA19A48FBF729FB40B15E
:104B900001209149088006208D49087000208F4926
:104BA00008700020904908809049087016E08A48F3
:104BB000008898B900208C4908808C49087004202E
:104BC0008349087085480078401C8449087008466D
:104BD0000078032802DB00207D490870F6E07E485B
:104BE000008880B989A004F047FD88A004F01EFD6C
:104BF00002207949088007207549087000207A4909
:104C000008807A490870E1E07848007898B178A186
:104C10007848FBF7E5FA40B101206F4908800A2087
:104C20006B49087000206D49087000206E490880AB
:104C30006E49087016E06848008898B900206A49F3
:104C400008806A4908700620614908706348007846
:104C5000401C6249087008460078032802DB0020E7
:104C60005B490870B2E093E061E045E015E0FFE7E2
:104C70005948008880B96AA004F0FEFC68A004F0DE
:104C8000D5FC322054490880092051490870002081
:104C9000554908805549087098E05448007898B103
:104CA00062495448FBF79CFA40B101204A49088008
:104CB0000A204749087000204849087000204A49E6
:104CC00008804A49087016E04348008898B90020D7
:104CD000454908804549087008203D4908703F480B
:104CE0000078401C3D49087008460078032802DB24
:104CF00000203749087069E037480088B0B94B4A4E
:104D000014324A494AA004F0B7FC484A14324749D1
:104D100047A004F08BFC82202F4908800B202C49EF
:104D20000870002030490880304908704EE02F4854
:104D3000007898B144A12F48FBF752FA40B1022005
:104D4000254908800C20224908700020234908705A
:104D50000020254908802549087018E01E48008871
:104D6000A8B9002020490880204908700A201A4963
:104D700008801749087019480078401C17490870C6
:104D800008460078032802DB0020114908701DE066
:104D900001203049087000202F4908700C49087024
:104DA0000A200D49088000224FF480410948FEF78F
:104DB00043F900200949087028A004F037FC0020BE
:104DC000094908800949087000E000BF00BF10BD14
:104DD00019010020001801401E0100201B010020C5
:104DE000415445300A000000100100200D01002050
:104DF0004F4B00005E46002041542B43574D4F441B
:104E0000455F4355523D310A0000000041542B4399
:104E100057444843505F4355523D312C310A0000FE
:104E200041542B43574C41500A000000800A002097
:104E300041542B43574A41505F4355523D222573FD
:104E4000222C222573220A005749464920474F54F5
:104E5000204950000A0100200B0100207769666993
:104E60002073746174696F6E206D6F646520696E64
:104E70006974206F6B7E7E21210A000010B53948CD
:104E8000007810B93748C078E8B13748007840B9A1
:104E9000364890F868003649087001203249087099
:104EA0000DE000203049087031480078032806DC06
:104EB0002F4800782D4981F86800FCF73DFE01205D
:104EC00000F0DCFD47E02748407810B929484078D9
:104ED000F0B129480078D8B92348007801280DD1CD
:104EE00023480078401C22490870084600780621B3
:104EF00090FBF1F201FB12001D490870012000F047
:104F0000BDFD1C48407830B30A201B49087022E0E0
:104F10001448807810B917488078E0B116480078B6
:104F2000C8B91148007801280CD111480078002830
:104F300005DD0F480078401E0D49087002E005208D
:104F40000B490870012000F099FD0A48807810B1E3
:104F50000A2009490870002002490870C87048708A
:104F6000887010BD6300002031010020700A00200D
:104F7000320100206B0000203001002010B501211B
:104F80003448FEF747F83449344A127888540221ED
:104F90003048FEF73FF83049C91C304A127888542F
:104FA00004212C48FEF736F82B49891D2B4A12782C
:104FB000885408212748FEF72DF827490931274A48
:104FC0001278885425480078401C24490870084607
:104FD0000078032801DB00200870002437E004EB90
:104FE00044001D49085C48BB04EB44000844407879
:104FF00020BB04EB440008448078F8B91848005DF1
:1050000040B901201649085516490855002016498F
:1050100008551AE01548005DB8B91348005D3228FC
:1050200005DA1148005D401C0F4908550DE00120CC
:105030000E49085500200C49085506E00020084993
:1050400008550A49085508490855601CC4B2042C83
:10505000C5DB10BD00100140E40A00206F000020F5
:105060006700002063000020700000206B0000201B
:105070000EB500200090019002901F481F49086063
:1050800081151E48816001210173002101754FF4D3
:105090006021C1610020194948600221174801615F
:1050A000FDF798F808B1FCF7C5FA10200090012030
:1050B00001900320029069461048FCF743FF08B1B5
:1050C000FCF7B8FA112000900220019069460B48C5
:1050D000FCF738FF08B1FCF7ADFA0848FCF7AEFE64
:1050E00000BF0648FCF7E1FF0128FAD1022204497B
:1050F0000248FDF763F90EBD00240140F4010020D1
:105100001C04002010B50548054908600846FDF755
:1051100029FA08B1FCF78EFA10BD000000300240F9
:105120000000002008B500BF0A48406940F00100B7
:10513000084948610846406900F00100009000BF3E
:1051400000BF002211460B20FEF7D1F80B20FEF71E
:10515000BEF808BD0010024000B587B01C216846AB
:10516000FBF733F84FF020401849086018484860B2
:105170000020886002211548C160082101610021DA
:1051800041618161C161016241624FF4805181627C
:105190000021C1620163416381630320009001200B
:1051A000019008200290002003901020049011200C
:1051B000059000200690002269460448FDF7B8FFDC
:1051C00008B1FCF737FA07B000BD0000D403002097
:1051D000040100A000B585B000200190029003906A
:1051E000049000BF6F48806940F040006D498861BD
:1051F0000846806900F04000009000BF00BF00BF7B
:105200000846806940F0100088610846806900F017
:105210001000009000BF00BF00BF0846806940F04A
:10522000040088610846806900F00400009000BF17
:1052300000BF00BF0846806940F00800886108464A
:10524000806900F00800009000BF00BF00BF084662
:10525000806940F0200088610846806900F02000E5
:10526000009000BF00BF01224EF214014E48FDF72E
:10527000E3FE012248F2C0114C48FDF7DDFE012299
:1052800041F690714A48FDF7D7FE012241F23B01F9
:105290004848FDF7D1FE00224FF480514248FDF707
:1052A000CBFE01224FF401714348FDF7C5FE0022F9
:1052B0004FF400613D48FDF7BFFE4FF2140001902E
:1052C0000120029003900320049001A93648FDF7C5
:1052D00001FD20200190002002900120039001A9EF
:1052E0003148FDF7F7FC4F2001900020029001208B
:1052F000039001A92E48FDF7EDFC41F2300001902A
:10530000002002900120039001A92848FDF7E2FC4B
:1053100048F2C010019001200290039003200490F5
:1053200001A92248FDF7D6FC41F6907001900120BA
:10533000029003900320049001A91D48FDF7CAFCC8
:1053400041F23B0001900120029003900320049061
:1053500001A91848FDF7BEFC4FF4745001900020DD
:1053600002900120039001A91348FDF7B3FC4FF40C
:10537000017001900120029003900320049001A984
:105380000D48FDF7A7FC4FF400600190012002904A
:10539000022003900320049001A90448FDF79AFC21
:1053A00005B000BD00100240001801400008014097
:1053B00000100140000C01400014014010B50E48DF
:1053C0000E4908604FF48270486000210B488160EC
:1053D000C160016141614FF4007181613021C1619F
:1053E00000210162416281620A21C162FEF76CFC08
:1053F00008B1FCF71FF910BD00380040740200200E
:1054000000B58DB0002009900A900B900C90079089
:1054100008901C216846FAF7D8FE20482049086009
:105420000020486000211E4881604FF6FF71C16076
:10543000002101618161FEF753FD08B1FCF7FAF824
:105440004FF48050099009A91548FEF795FD08B161
:10545000FCF7F0F81248FEF7BDFE08B1FCF7EAF8D9
:1054600000200790089007A90D48FEF7EBFC08B153
:10547000FCF7E0F8702000900020019002900420DA
:105480000490002269460648FEF726FE08B1FCF7A4
:10549000D1F80348FEF7F4FD0DB000BD0008004050
:1054A000CC02002010B50F480F4908604FF4165089
:1054B000486000210C488160C16001610C2141619C
:1054C00000218161C161FEF787FF08B1FCF7B2F8E6
:1054D00004480C30006840F0200002490C3108609C
:1054E00010BD0000003801401403002010B50F4823
:1054F0000F4908604FF49640486000210C488160D5
:10550000C16001610C21416100218161C161FEF72F
:1055100063FF08B1FCF78EF804480C30006840F0D7
:10552000200002490C31086010BD0000004400401A
:105530005403002010B50F480F4908604FF4E130C4
:10554000486000210C488160C16001610C2141610B
:1055500000218161C161FEF73FFF08B1FCF76AF8E5
:1055600004480C30006840F0200002490C3108600B
:1055700010BD00000048004094030020F0B589B041
:105580000126002400205B49088071025A48FAF77E
:105590001CFE5A495848FAF760FE5748FAF748FE89
:1055A00084B2574803785748B0F90A005549B1F911
:1055B0000810544AB2F90C20CDE90303CDE90121CA
:1055C0005048B0F906004F490090B1F90430B1F9E4
:1055D0000020494908194CA102F0D4FB4648FAF7CB
:1055E00027FE84B24E4801684E4802884E48038820
:1055F0004448B0F90200CDE90332059102904B48CE
:1056000000784B490978CDE900103B490819494910
:105610000B7849490A8849A102F0B4FB3648FAF7E9
:1056200007FE84B24C4800784C4909784C4A1278FD
:105630004C4B1B78CDE90432CDE906104A4801787D
:105640004A4802784A4800784A4B1B78CDE9003036
:10565000CDE902212849081947490B6847490A68DA
:1056600047A102F08FFB012700251CE04C48008871
:10567000384090B12048FAF7DBFD84B23EB10026F5
:105680001D4908192A4647A102F07CFB05E01A498A
:1056900008192A4645A102F075FB4FF6FF7000EA93
:1056A0004707681CC5B20A2DE0DB3D48008800F4BE
:1056B000806080B11048FAF7BBFD84B236B1002695
:1056C0000D4908193AA102F05DFB04E00A490819E6
:1056D00038A102F057FB0848FAF7AAFD84B223204C
:1056E00005490855601C0349088033A003F09EFF5C
:1056F00009B0F0BD24010020684E0020740A00208B
:1057000093000020700D00202C25642C25642C258E
:10571000642C25642C25642C25642C25642C000025
:105720008800002086000020AE000020A00000209D
:105730009500002094000020AC00002025642C255A
:10574000642C25642C25642C25642C25642C25646C
:105750002C25642C00000000A8000020A7000020D9
:10576000A6000020A5000020A4000020A300002027
:10577000A2000020A10000208C0000209800002042
:1057800025642C25642C25642C25642C25642C256B
:10579000642C25642C25642C25642C2564000000D1
:1057A000AA0000202C452564000000004525640067
:1057B0002C455A00455A000053656E6420506163C1
:1057C0006B65742E2E0A000000BFFEE770470000D4
:1057D00010B5104890F86800032815D10E480068ED
:1057E000B8B90E48007830B100224FF400510C488F
:1057F000FDF722FC0DE04FF400510948FDF712FCC3
:1058000032200549086004E0012251030448FDF7F5
:1058100013FC10BD700A002074000020C700002097
:1058200000180140014601F00F01092903DC01F1D4
:105830003000C0B2704701F13700C0B2FAE7000093
:1058400010B54748007805287BD2DFE800F0031D3B
:105850003C577B0043480088A8B9012202214248F6
:10586000FDF7EAFB0020414908804149087041A04A
:1058700003F002FF3FA003F0D9FE0320394908805E
:1058800001203749087068E03948007880B13DA1AF
:105890003D48FAF7A5FC28B10320324908800220D0
:1058A0002F4908700020314908803149087009E00B
:1058B0002C48008830B900202C4908802C490870F9
:1058C0002749087049E027480088B0B900202749D7
:1058D0000880274908702D48B0F860102CA003F00C
:1058E000CBFE2A48B0F8601029A003F09FFE0A20E2
:1058F0001C49088003201A4908702EE01C480078D3
:1059000080B120A12048FAF76BFC28B1022015498C
:1059100008800420124908700020144908801449A6
:1059200008700DE00F48008850B900200F4908802A
:105930000F4908700A200B490880022008490870A6
:105940000BE009E001201749087017A003F06EFE74
:1059500000200349087000E000BF00BF10BD000038
:10596000190100201E010020000C01401001002040
:105970000D01002041542B4349504D55583D310AEB
:10598000000000004F4B00005E460020700A00201F
:1059900041542B4349505345525645523D312C25D5
:1059A000640A00000B010020546370205365727676
:1059B000657220496E6974204F6B7E0A00000000FA
:1059C0007047000070B588B0054600261C2101A86C
:1059D000FAF7FBFB244800682449B0FBF1F0401EB5
:1059E00086B2084690FBF5F084B221482149086050
:1059F0000846466010218160601E1E49C860002173
:105A00001C48016141618161FEF76AFA08B1FBF748
:105A100011FE1848FEF7DEFB08B1FBF70BFE702005
:105A20000190204604EBD0714910491E02910220DA
:105A3000039000020490002005904FF480700690BF
:105A400000200790002201A90A48FEF745FB08B193
:105A5000FBF7F0FD00210748FEF7F0FB08B1FBF76C
:105A6000E9FD08B070BD00002000002040420F009A
:105A700000080040CC02002070470000092845D2F1
:105A8000DFE800F0050C131A21282F363D002349CA
:105A9000234A11600321234A118038E02249204A19
:105AA000116001211F4A118031E020491C4A116018
:105AB00003211C4A11802AE01D49194A1160032163
:105AC000184A118023E01B49154A11600221154A2A
:105AD00011801CE01849124A11600321114A1180FB
